:1000000045C000006DC400005FC000005DC000007E
:100010004FC4000059C0000057C0000055C0000088
:1000200053C000003CC300004FC000004DC00000A2
:100030004BC0000049C0000047C000001CC40000C5
:1000400067C4000041C000003FC000003DC0000088
:100050008FC30000C6C3000037C0000035C00000D9
:1000600033C0000031C000002FC000002DC00000D0
:100070002BC0000029C0000027C0000025C00000E0
:1000800023C0000021C000001FC0000011241FBEBB
:10009000CFEFD0E4DEBFCDBF11E0A0E0B1E0ECE6F1
:1000A000FCE100E00BBF02C007900D92A231B10746
:1000B000D9F725E0A2E1B1E001C01D92AC3AB20748
:1000C000E1F740D40C94340E9BCFCF93DF9300D054
:1000D00000D01F92CDB7DEB79A8389837C836B8370
:1000E0004D8389819A81FC01108289819A812B81BB
:1000F0003C81FC013583248389819A81FC01248120
:10010000358189819A81FC013383228389819A8197
:100110002D81FC01218389819A81FC0121818981C2
:100120009A81FC01278389819A81FC012781898139
:100130009A81FC01268300000F900F900F900F9082
:100140000F90DF91CF910895CF93DF9300D0CDB77B
:10015000DEB79A83898389819A81FC018081882313
:1001600019F48FEF9FEF05C089819A8178D0882F8D
:1001700090E00F900F90DF91CF910895CF93DF9390
:10018000CDB7DEB727970FB6F894DEBF0FBECDBF51
:100190009E838D836F838D819E81FC0120818D8163
:1001A0009E81FC018181281710F080E04FC08D8175
:1001B0009E81FC01848195819A83898389819A81BA
:1001C0009C012F5F3F4F3A8329832F81FC012083BD
:1001D0008D819E81FC0187818B838B8181508B83F4
:1001E0008B81882389F48D819E81FC0181818B83A1
:1001F0008B81882F90E091958195910929813A8191
:10020000820F931F9A8389838D819E812B81FC01AC
:1002100027838D819E8129813A81FC013583248346
:100220008FE590E0FC0180818C83F8948D819E8124
:10023000FC01808121E0280F8D819E81FC012083BB
:100240008FE590E02C81FC01208381E027960FB69A
:10025000F894DEBF0FBECDBFDF91CF910895CF934D
:10026000DF93CDB7DEB727970FB6F894DEBF0FBE8A
:10027000CDBF9F838E838E819F81FC01828193817C
:100280009A83898389819A819C012F5F3F4F3A83AA
:100290002983FC0180818C838E819F81FC01868172
:1002A0008B838B8181508B838B81882389F48E8112
:1002B0009F81FC0181818B838B81882F90E09195B8
:1002C0008195910929813A81820F931F9A838983AD
:1002D0008E819F8129813A81FC01338322838E8123
:1002E0009F812B81FC0126838FE590E0FC018081BA
:1002F0008D83F8948E819F81FC0180812FEF280FE0
:100300008E819F81FC0120838FE590E02D81FC018F
:1003100020838C8127960FB6F894DEBF0FBECDBF29
:10032000DF91CF910895EF92FF920F931F93CF9398
:10033000DF93CDB7DEB76E970FB6F894DEBF0FBE72
:10034000CDBF9C8B8B8B7E8B6D8B588F4F8B3A8F59
:10035000298F1C8F0B8FFE8EED8E82E089838CE0BF
:100360008A8389E08B831C8280E290E0FC0180819B
:10037000882F90E088709927892BC1F48091120111
:100380008823A1F481E080931201809100018A30DA
:1003900030F08091000181508093000107C080916E
:1003A00000018A3018F48BE08093000180E290E035
:1003B000FC018081882F90E080729927892B91F42D
:1003C000909101018981891768F480911201882335
:1003D00049F48091010185508093010181E080936F
:1003E0001201B9C080E290E0FC018081882F90E08A
:1003F00080719927892B91F4909101018A81981736
:1004000068F480911201882349F4809101018B5F87
:100410008093010181E0809312019DC080E290E011
:10042000FC01808188230CF43DC0909102018B81F6
:100430009817C0F5809112018823A1F580910001E1
:10044000882F90E08A30910581F08B30910519F06A
:100450000997A9F023C0809113018930D0F48091CD
:1004600013018F5F8093130114C0809114018930B0
:1004700090F4809114018F5F809314010CC08091DF
:100480001501893050F4809115018F5F809315011B
:1004900004C0000003C0000001C0000081E08093A0
:1004A000120159C080E290E0FC018081882F90E029
:1004B00080749927892B09F03DC0909102018C81AD
:1004C0008917C0F5809112018823A1F58091000160
:1004D000882F90E08A30910581F08B30910519F0DA
:1004E0000997A9F023C0809113018823D1F080914E
:1004F000130181508093130114C08091140188234B
:1005000091F0809114018150809314010CC080916E
:100510001501882351F080911501815080931501B8
:1005200004C0000003C0000001C0000081E080930F
:10053000120111C080E290E0FC018081882F90E0E0
:10054000887F9927883F910531F48091120181308D
:1005500011F41092120180E090E0A0E2B1E48D83EA
:100560009E83AF83B88720E030E04AE755E46D8191
:100570007E818F8198850E94960DDC01CB01898751
:100580009A87AB87BC8720E030E040E85FE369856D
:100590007A858B859C850E94430C88232CF481E00E
:1005A00090E09E878D873FC020E03FEF4FE757E404
:1005B00069857A858B859C850E94920D18164CF56D
:1005C00020E030E040E251E46D817E818F819885AA
:1005D0000E94960DDC01CB01BC01CD010E94B40C40
:1005E000DC01CB019E878D870FC080E991E0988B5D
:1005F0008F878F8598890197F1F7988B8F878D85E5
:100600009E8501979E878D878D859E85892B69F7AD
:1006100014C069857A858B859C850E94B40CDC01A9
:10062000CB019E878D878D859E859A8B898B898945
:100630009A890197F1F79A8B898B209101018B8917
:100640009C89FC012083209102018D899E89FC01F7
:100650002083209100018F89988DFC0120832091B7
:100660001301898D9A8DFC012083209114018B8DBB
:100670009C8DFC012083209115018D8D9E8DFC01A8
:10068000208300006E960FB6F894DEBF0FBECDBF7C
:10069000DF91CF911F910F91FF90EF9008951F92DE
:1006A0000F9200905F000F92112400905B000F9258
:1006B0002F933F938F939F93EF93FF93CF93DF936A
:1006C000CDB7DEB783EB90E023EB30E0F90120817A
:1006D0002358FC01208380911601882329F0809102
:1006E00016018150809316010000DF91CF91FF9198
:1006F000EF919F918F913F912F910F9000925B000E
:100700000F9000925F000F901F901895CF93DF938A
:100710001F92CDB7DEB78FE590E0FC018081898321
:10072000F89484EC90E027E630E0FC0131832083EC
:1007300081EC90E028E9FC01208380EC90E020EC43
:10074000FC0120838FE590E02981FC01208340E1BA
:100750006CE975E084E995E0B8DC40E464E575E0B7
:100760008CE495E0B2DC00000F90DF91CF9108950A
:100770001F920F9200905F000F92112400905B0077
:100780000F922F933F934F935F936F937F938F932A
:100790009F93AF93BF93EF93FF93CF93DF93CDB727
:1007A000DEB786EC90E0FC018081682F84E995E05B
:1007B000E5DC0000DF91CF91FF91EF91BF91AF9108
:1007C0009F918F917F916F915F914F913F912F9169
:1007D0000F9000925B000F9000925F000F901F90AF
:1007E00018951F920F9200905F000F9211240090B5
:1007F0005B000F920F931F932F933F934F935F9341
:100800006F937F938F939F93AF93BF93EF93FF93D8
:10081000CF93DF93CDB7DEB780914C05882341F0AD
:1008200006EC10E08CE495E08FDCF801808309C0D1
:1008300081EC90E021EC30E0F90120812F7DFC017A
:1008400020830000DF91CF91FF91EF91BF91AF9195
:100850009F918F917F916F915F914F913F912F91D8
:100860001F910F910F9000925B000F9000925F001C
:100870000F901F9018951F920F9200905F000F929B
:1008800011248F939F93CF93DF93CDB7DEB781E091
:1008900090E090931801809317010000DF91CF91B1
:1008A0009F918F910F9000925F000F901F9018956D
:1008B0001F920F9200905F000F9211248F93CF939D
:1008C000DF93CDB7DEB781E0809315030000DF91A1
:1008D000CF918F910F9000925F000F901F9018950D
:1008E0001F920F9200905F000F9211248F93CF936D
:1008F000DF93CDB7DEB781E080931E030000DF9168
:10090000CF918F910F9000925F000F901F901895DC
:100910001F920F9200905F000F9211248F93CF933C
:10092000DF93CDB7DEB7809120038F5F80932003E4
:100930000000DF91CF918F910F9000925F000F9098
:100940001F9018958F929F92AF92BF92CF92DF9295
:10095000EF92FF920F931F93CF93DF93CDB7DEB744
:1009600064970FB6F894DEBF0FBECDBFF89481E256
:1009700090E021E230E0F90120812770FC01208322
:1009800082E290E022E230E0F9012081286FFC0150
:1009900020838AE290E02AE230E0F90120812B7F77
:1009A000FC0120838BE290E02BE230E0F901208112
:1009B0002460FC0120838AE290E02AE230E0F90121
:1009C0002081277FFC0120838BE290E02BE230E046
:1009D000F90120812860FC01208384E290E02FE06F
:1009E000FC01208385E290E025E230E0F9012081DE
:1009F0002F60FC01208388E690E028E630E0F901D2
:100A000020812160FC0120838BE690E02BE630E022
:100A1000F9012081286FFC01208381E890E021E02A
:100A2000FC01208381E890E02DEFFC01208381E828
:100A300090E024E0FC0120838FE690E020E2FC01BE
:100A4000208378946BD486D461DE87E690E0988723
:100A50008F838AE290E09A8789871C861B861E8690
:100A60001D86188A1F861A8A198A1C8A1B8AE0909A
:100A70001603F090170300911803109119032091A9
:100A80003F0530914005409141055091420588EE67
:100A900093E0DC010E941B0EDC01CB0147015801F1
:100AA000881A990AAA0ABB0AD501C401883E934054
:100AB000A105B105E8F080913F0590914005A09116
:100AC0004105B09142050196A11DB11D80933F05DE
:100AD00090934005A0934105B093420585E290E0D4
:100AE00025E230E0F901308121E02327FC01208359
:100AF00089E290E0FC018081882F90E0887099273E
:100B000021E0892B09F020E0822F80930F01809152
:100B10000F01882309F445C08091160390911703B3
:100B2000A0911803B09119039C01AD0128533F4FC8
:100B30004F4F5F4F8091430590914405A09145052B
:100B4000B091460582179307A407B507E0F5809199
:100B500047058823C1F581E08093470590914805BA
:100B600081E0992309F080E0809348058091480551
:100B7000882349F085E290E025E230E0F901208108
:100B80002D7FFC012083809148058823E1F485E2D4
:100B900090E025E230E0F90120812260FC01208311
:100BA00012C08091160390911703A0911803B09181
:100BB00019038093430590934405A0934505B09392
:100BC00046051092470589E290E0FC018081882F5C
:100BD00090E08470992721E0892B09F020E0822F92
:100BE00080930E0180911E03882321F480910E01D1
:100BF0008130A9F580910501909106019C0140E0AA
:100C000050E080911A0390911B03A0911C03B091B6
:100C10001D03280F391F4A1F5B1F809116039091F7
:100C20001703A0911803B0911903281739074A0731
:100C30005B0718F481E080931F0380911603909165
:100C40001703A0911803B091190380931A0390938E
:100C50001B03A0931C03B0931D0310921E038091ED
:100C60001F03882309F42AC285E290E025E230E0E0
:100C7000F901308128E02327FC012083809126039D
:100C800090912703A0912803B09129038093220318
:100C900090932303A0932403B093250380912A0308
:100CA00090912B03A0912C03B0912D0380932603E8
:100CB00090932703A0932803B093290380912E03D8
:100CC00090912F03A0913003B091310380932A03B8
:100CD00090932B03A0932C03B0932D0380913203A8
:100CE00090913303A0913403B091350380932E0388
:100CF00090932F03A0933003B09331038091160398
:100D000090911703A0911803B091190380933203B7
:100D100090933303A0933403B093350381E0809321
:100D20003603809138038093370380913903809391
:100D3000380380913A038093390320913203309134
:100D40003303409134035091350380912E039091E9
:100D50002F03A0913003B0913103281739074A07B8
:100D60005B0709F454C08091070190910801CC0100
:100D7000A0E0B0E0BC01CD0123D66B017C018091E5
:100D8000320390913303A0913403B0913503BC0139
:100D9000CD0116D64B015C0180912E0390912F035B
:100DA000A0913003B0913103BC01CD0109D6DC0123
:100DB000CB019C01AD01C501B40100D5DC01CB0123
:100DC0009C01AD01C701B60162D5DC01CB016C010C
:100DD0007D0180910901882F90E0A0E0B0E0BC0186
:100DE000CD01EED5DC01CB0111E09C01AD01C701C5
:100DF000B60198D688230CF410E0812F80933A0333
:100E000080913A03882329F41092480502C0109279
:100E10003A0380913603882309F43EC18091370359
:100E2000882309F439C180913803882309F434C137
:100E300080913903882309F42FC180913A038823D4
:100E400009F42AC18091070190910801CC01A0E02A
:100E5000B0E0BC01CD01B4D5DC01CB019C01AD01FA
:100E6000BC01CD01ACD4DC01CB016C017D01209132
:100E70002E0330912F034091300350913103809124
:100E8000260390912703A0912803B09129034901DB
:100E90005A01881A990AAA0ABB0AD501C401BC01E1
:100EA000CD018ED5DC01CB019C01AD01C701B6019E
:100EB000EED4DC01CB0180932F0590933005A093F5
:100EC0003105B09332058091070190910801CC0162
:100ED000A0E0B0E0BC01CD0173D5DC01CB0120E086
:100EE00030E04AEF54E4BC01CD0120D6DC01CB0157
:100EF0005C016D0120913203309133034091340342
:100F00005091350380912A0390912B03A0912C03DB
:100F1000B0912D03281B390B4A0B5B0B81E090E04D
:100F2000A0E0B0E0BC01CD0164D6DA01C9017C01CA
:100F30008D0120912A0330912B0340912C03509175
:100F40002D038091220390912303A0912403B0915B
:100F50002503281B390B4A0B5B0B81E090E0A0E0D6
:100F6000B0E0BC01CD0145D6DA01C901E81AF90AA1
:100F70000A0B1B0B20912E0330912F03409130035D
:100F8000509131038091260390912703A09128036B
:100F9000B0912903281B390B4A0B5B0BC801B70121
:100FA00028D6DA01C901BC01CD010AD5DC01CB018B
:100FB0009C01AD01C601B501B9D5DC01CB0180931F
:100FC000330590933405A0933505B0933605809191
:100FD0000A0190910B01A0910C01B0910D01B05844
:100FE00020912F0530913005409131055091320507
:100FF000BC01CD019BD5DC01CB017C018D01809131
:10100000330590913405A0913505B09136059C01CA
:10101000AD01C801B7018AD5DC01CB01809337054A
:1010200090933805A0933905B0933A058091210338
:101030008823A1F02091370530913805409139057A
:1010400050913A0580912F0590913005A09131057E
:10105000B0913205BC01CD019ED12EC02091330547
:1010600030913405409135055091360580912F051A
:1010700090913005A0913105B0913205BC01CD01B0
:101080003BD2DC01CB0180933B0590933C05A093C0
:101090003D05B0933E0510C010922F05109230050B
:1010A00010923105109232051092330510923405DA
:1010B000109235051092360510921F03809115038A
:1010C0008130B1F50F2EFDE1EF2EF1E0FF2EF02D76
:1010D0000CE111E02BE131E044E051E069E171E025
:1010E00083E091E020D980911B01282F30E080918E
:1010F0001C01882F90E0880F991FAC01440F551FE9
:10110000440F551F840F951F280F391F80911D0113
:10111000482F50E064E6649FC001659F900D112444
:10112000820F931F90931F0180931E01109215034D
:1011300080912001282F30E08F81988582179307B6
:101140000CF05AC01A82198217C089819A81880FBF
:10115000991F8F5D9E4FFC012081318189819A8189
:10116000880F991F855E9D4FFC0131832083898103
:101170009A8101969A83898389819A81873691051C
:1011800024F381E090E09C838B831CC08B819C8145
:10119000880F991F8F5D9E4FFC01808191819C8BF0
:1011A0008B8B8B819C8101972B893C89880F991FA0
:1011B0008F5D9E4FFC01318320838B819C81019642
:1011C0009C838B838B819C8189369105FCF2809175
:1011D000200181508093200180912001882F90E090
:1011E00020911A01222F30E0880F991F8F5D9E4FAA
:1011F000FC01318320830FC080912001882F90E073
:1012000020911A01222F30E0880F991F8F5D9E4F89
:10121000FC0131832083809120018F5F8093200126
:1012200080910301882F90E08730910531F08C3058
:101230009105E9F10297D1F53AC01E821D822CC0BA
:101240008D819E81880F991F8F5D9E4FFC0180814B
:1012500091812CE330E04901881A990AC401988BE6
:101260008F878D819E810D969C878B878D819E8136
:10127000880F991F855E9D4FFC01808191812CE331
:1012800030E04901881A990AC4019A8B898B8D81B3
:101290009E8101969E838D838D819E8187369105E7
:1012A0007CF2109218011092170101C00000809189
:1012B00020038823E1F380912003282F880F330B2C
:1012C0008091490590914A05821793074CF48091CB
:1012D0002003082E000C990B90934A058093490532
:1012E00080912003282F880F330B440B550B8091DE
:1012F000160390911703A0911803B0911903820F60
:10130000931FA41FB51F8093160390931703A093F8
:101310001803B09319031092200397CBCF93DF9358
:10132000CDB7DEB7F89489E690E029E630E0F90120
:1013300020812160FC0120838DE390E02DE330E0EB
:10134000F90120812160FC01208378940000DF9165
:10135000CF910895CF93DF93CDB7DEB7F89485E4AE
:1013600090E025E430E0F90120812360FC01208336
:1013700087E490E02AEFFC0120838EE690E02EE6E1
:1013800030E0F90120812260FC0120837894000084
:10139000DF91CF910895CF93DF93CDB7DEB72A9732
:1013A0000FB6F894DEBF0FBECDBF6B837C838D83F9
:1013B0009E832F83388749875A8719821A8220E0B3
:1013C00030E040E951E46B817C818D819E81AED318
:1013D000DC01CB018B839C83AD83BE8320E030E0B6
:1013E0004FE753E46B817C818D819E819BD31816DE
:1013F00044F480E090E0AFE7B3E48B839C83AD835B
:10140000BE8320E030E0A9016B817C818D819E81CB
:101410003AD2882324F41B821C821D821E826B8197
:101420007C818D819E819BD2DC01CB01898320E070
:1014300030E040E05FE36F81788589859A8576D3D7
:10144000DC01CB018F839887A987BA8720E030E041
:10145000A9016F81788589859A8515D2882324F41E
:101460001F82188619861A8620E030E04FE753E481
:101470006F81788589859A8555D3181644F480E064
:1014800090E0AFE7B3E48F839887A987BA876F812D
:10149000788589859A8563D2DC01CB018A83809126
:1014A000100199819817F0F480914B05882F90E0F6
:1014B000855C9C4F2981FC01208380914B05882FFE
:1014C00090E08B5C9B4F2A81FC0120838981809373
:1014D000100180914B058A3F28F480914B058F5F66
:1014E00080934B0500002A960FB6F894DEBF0FBE1E
:1014F000CDBFDF91CF9108958F929F92AF92BF920F
:10150000CF92DF92EF92FF92CF93DF93CDB7DEB70A
:1015100066970FB6F894DEBF0FBECDBF6F87788B8E
:10152000898B9A8B2B8B3C8B4D8B5E8B1E821F8203
:101530001886198619821A821B821C821A861B86BB
:101540001C861D861E861D8226E636E646E650E48B
:101550006F85788989899A89E9D2DC01CB0120E0FD
:1015600030E040EA50E4BC01CD01E0D2DC01CB0127
:10157000BC01CD01F4D1DC01CB018E8703C08D818C
:101580008F5F8D838D81882F90E0855C9C4FFC015F
:1015900090818E85891798F38D81882F90E0855CE6
:1015A0009C4FFC0190818E859817A9F48D81882F1E
:1015B00090E08B5C9B4FFC018081882F90E0A0E045
:1015C000B0E0BC01CD01FCD1DC01CB0189839A8361
:1015D000AB83BC83AFC08D81882F90E001978B5C7B
:1015E0009B4FFC018081882F90E0A0E0B0E0BC011F
:1015F000CD01E6D16B017C018D81882F90E08B5C61
:101600009B4FFC018081882F90E0A0E0B0E0BC01FE
:10161000CD01D6D1DC01CB019C01AD01C701B601E2
:10162000CDD0DC01CB016C017D018D81882F90E054
:101630000197855C9C4FFC018081882F90E0A0E0A1
:10164000B0E0BC01CD01BCD14B015C018D81882F84
:1016500090E0855C9C4FFC018081882F90E0A0E0A9
:10166000B0E0BC01CD01ACD1DC01CB019C01AD01EE
:10167000C501B401A3D0DC01CB019C01AD01C701C0
:10168000B60105D1DC01CB016C017D018E85882F6F
:1016900090E0A0E0B0E0BC01CD0192D14B015C0133
:1016A0008D81882F90E0855C9C4FFC018081882F84
:1016B00090E0A0E0B0E0BC01CD0182D1DC01CB0123
:1016C0009C01AD01C501B40179D0DC01CB019C01C5
:1016D000AD01C701B6012AD2DC01CB016C017D014D
:1016E0008D81882F90E08B5C9B4FFC018081882F3F
:1016F00090E0A0E0B0E0BC01CD0162D1DC01CB0103
:101700009C01AD01C701B6015AD0DC01CB01898330
:101710009A83AB83BC8389819A81AB81BC819C0114
:10172000AD01BC01CD014BD0DC01CB0189839A8393
:10173000AB83BC8380910A0190910B01A0910C01B5
:10174000B0910D012F85388949895A89BC01CD0195
:10175000EDD1DC01CB012B893C894D895E89BC012F
:10176000CD01E4D1DC01CB018A879B87AC87BD87A3
:101770002A853B854C855D8569817A818B819C8139
:101780001ED0DC01CB018E839F83A887B9878E8111
:101790009F81A885B985BC01CD0166960FB6F894E6
:1017A000DEBF0FBECDBFDF91CF91FF90EF90DF90F6
:1017B000CF90BF90AF909F908F9008955058BB27C7
:1017C000AA270ED075C166D130F06BD120F031F46C
:1017D0009F3F11F41EF45BC10EF4E095E7FB51C18D
:1017E000E92F77D180F3BA1762077307840795074B
:1017F00018F071F49EF58FC10EF4E0950B2EBA2F00
:10180000A02D0B01B90190010C01CA01A001112406
:10181000FF27591B99F0593F50F4503E68F11A16B2
:10182000F040A22F232F342F4427585FF3CF469543
:1018300037952795A795F0405395C9F77EF41F1665
:10184000BA0B620B730B840BBAF09150A1F0FF0F2F
:10185000BB1F661F771F881FC2F70EC0BA0F621F1B
:10186000731F841F48F4879577956795B795F7950B
:101870009E3F08F0B3CF9395880F08F09927EE0F9D
:10188000979587950895D9D008F481E008950CD0F4
:101890000FC107D140F0FED030F021F45F3F19F0C6
:1018A000F0C0511139C1F3C014D198F39923C9F391
:1018B0005523B1F3951B550BBB27AA276217730756
:1018C000840738F09F5F5F4F220F331F441FAA1F0A
:1018D000A9F333D00E2E3AF0E0E830D091505040CA
:1018E000E695001CCAF729D0FE2F27D0660F771F78
:1018F000881FBB1F261737074807AB07B0E809F05A
:10190000BB0B802DBF01FF2793585F4F2AF09E3FEE
:10191000510568F0B6C000C15F3FECF3983EDCF3C0
:10192000869577956795B795F7959F5FC9F7880F67
:10193000911D9695879597F90895E1E0660F771FB9
:10194000881FBB1F621773078407BA0720F0621B4A
:10195000730B840BBA0BEE1F88F7E095089504D043
:101960006894B111D9C00895BCD088F09F5790F009
:10197000B92F9927B751A0F0D1F0660F771F881FB4
:10198000991F1AF0BA95C9F712C0B13081F0C3D0CF
:10199000B1E00895C0C0672F782F8827B85F39F06D
:1019A000B93FCCF3869577956795B395D9F73EF413
:1019B00090958095709561957F4F8F4F9F4F0895BB
:1019C000E89409C097FB3EF49095809570956195D9
:1019D0007F4F8F4F9F4F9923A9F0F92F96E9BB278F
:1019E0009395F695879577956795B795F111F8CF0B
:1019F000FAF4BB0F11F460FF1BC06F5F7F4F8F4F76
:101A00009F4F16C0882311F096E911C0772321F06B
:101A10009EE8872F762F05C0662371F096E8862F03
:101A200070E060E02AF09A95660F771F881FDAF75A
:101A3000880F9695879597F90895990F0008550F87
:101A4000AA0BE0E8FEEF16161706E807F907C0F044
:101A500012161306E407F50798F0621B730B840B4C
:101A6000950B39F40A2661F0232B242B252B21F426
:101A700008950A2609F4A140A6958FEF811D811DC6
:101A8000089597F99F6780E870E060E008959FEF00
:101A900080EC089500240A94161617061806090605
:101AA000089500240A9412161306140605060895D4
:101AB000092E0394000C11F4882352F0BB0F40F45C
:101AC000BF2B11F460FF04C06F5F7F4F8F4F9F4F9C
:101AD000089557FD9058440F551F59F05F3F71F01E
:101AE0004795880F97FB991F61F09F3F79F0879585
:101AF0000895121613061406551FF2CF4695F1DF0E
:101B000008C0161617061806991FF1CF869571059D
:101B1000610508940895E894BB2766277727CB01D1
:101B200097F908958ADF08F48FEF08950BD0C0CF9E
:101B3000B1DF28F0B6DF18F0952309F0A2CFA7CFC8
:101B40001124EACFC6DFA0F3959FD1F3950F50E0A3
:101B5000551F629FF001729FBB27F00DB11D639F5F
:101B6000AA27F00DB11DAA1F649F6627B00DA11D05
:101B7000661F829F2227B00DA11D621F739FB00DAB
:101B8000A11D621F839FA00D611D221F749F33271B
:101B9000A00D611D231F849F600D211D822F762FB4
:101BA0006A2F11249F5750408AF0E1F088234AF0B1
:101BB000EE0FFF1FBB1F661F771F881F91505040FD
:101BC000A9F79E3F510570F05CCFA6CF5F3FECF3C5
:101BD000983EDCF3869577956795B795F795E795E9
:101BE0009F5FC1F7FE2B880F911D9695879597F9FA
:101BF0000895A1E21A2EAA1BBB1BFD010DC0AA1F4E
:101C0000BB1FEE1FFF1FA217B307E407F50720F065
:101C1000A21BB30BE40BF50B661F771F881F991FE0
:101C20001A9469F760957095809590959B01AC0129
:101C3000BD01CF01089509D0A59F900DB49F900DCF
:101C4000A49F800D911D11240895A29FB001B39F00
:101C5000C001A39F700D811D1124911DB29F700DB5
:0C1C6000811D1124911D0895F894FFCF00
:101C6C000B0206020B3200A708010000A042FFFF86
:021C7C00FF0067
:00000001FF
