:1000000045C00000C7C400005FC000005DC0000024
:10001000A9C4000059C0000057C0000055C000002E
:1000200053C000003CC300004FC000004DC00000A2
:100030004BC0000049C0000047C0000076C400006B
:10004000C1C4000041C000003FC000003DC000002E
:10005000A9C30000E0C3000037C0000035C00000A5
:1000600033C0000031C000002FC000002DC00000D0
:100070002BC0000029C0000027C0000025C00000E0
:1000800023C0000021C000001FC0000011241FBEBB
:10009000CFEFD0E4DEBFCDBF11E0A0E0B1E0E4E6F9
:1000A000FEE100E00BBF02C007900D92A431B10742
:1000B000D9F725E0A4E1B1E001C01D92AD3AB20745
:1000C000E1F79AD40C94300F9BCFCF93DF9300D0FD
:1000D00000D01F92CDB7DEB79A8389837C836B8370
:1000E0004D8389819A81FC01108289819A812B81BB
:1000F0003C81FC013583248389819A81FC01248120
:10010000358189819A81FC013383228389819A8197
:100110002D81FC01218389819A81FC0121818981C2
:100120009A81FC01278389819A81FC012781898139
:100130009A81FC01268300000F900F900F900F9082
:100140000F90DF91CF910895CF93DF9300D0CDB77B
:10015000DEB79A83898389819A81FC018081882313
:1001600019F48FEF9FEF05C089819A8178D0882F8D
:1001700090E00F900F90DF91CF910895CF93DF9390
:10018000CDB7DEB727970FB6F894DEBF0FBECDBF51
:100190009E838D836F838D819E81FC0120818D8163
:1001A0009E81FC018181281710F080E04FC08D8175
:1001B0009E81FC01848195819A83898389819A81BA
:1001C0009C012F5F3F4F3A8329832F81FC012083BD
:1001D0008D819E81FC0187818B838B8181508B83F4
:1001E0008B81882389F48D819E81FC0181818B83A1
:1001F0008B81882F90E091958195910929813A8191
:10020000820F931F9A8389838D819E812B81FC01AC
:1002100027838D819E8129813A81FC013583248346
:100220008FE590E0FC0180818C83F8948D819E8124
:10023000FC01808121E0280F8D819E81FC012083BB
:100240008FE590E02C81FC01208381E027960FB69A
:10025000F894DEBF0FBECDBFDF91CF910895CF934D
:10026000DF93CDB7DEB727970FB6F894DEBF0FBE8A
:10027000CDBF9F838E838E819F81FC01828193817C
:100280009A83898389819A819C012F5F3F4F3A83AA
:100290002983FC0180818C838E819F81FC01868172
:1002A0008B838B8181508B838B81882389F48E8112
:1002B0009F81FC0181818B838B81882F90E09195B8
:1002C0008195910929813A81820F931F9A838983AD
:1002D0008E819F8129813A81FC01338322838E8123
:1002E0009F812B81FC0126838FE590E0FC018081BA
:1002F0008D83F8948E819F81FC0180812FEF280FE0
:100300008E819F81FC0120838FE590E02D81FC018F
:1003100020838C8127960FB6F894DEBF0FBECDBF29
:10032000DF91CF910895EF92FF920F931F93CF9398
:10033000DF93CDB7DEB76E970FB6F894DEBF0FBE72
:10034000CDBF9C8B8B8B7E8B6D8B588F4F8B3A8F59
:10035000298F1C8F0B8FFE8EED8E82E089838CE0BF
:100360008A8389E08B831C8280E290E0FC0180819B
:10037000882F90E088709927892BC1F4809114010F
:100380008823A1F481E080931401809100018A30D8
:1003900030F08091000181508093000107C080916E
:1003A00000018A3018F48BE08093000180E290E035
:1003B000FC018081882F90E080729927892B91F42D
:1003C000909101018981891768F480911401882333
:1003D00049F48091010185508093010181E080936F
:1003E0001401B9C080E290E0FC018081882F90E088
:1003F00080719927892B91F4909101018A81981736
:1004000068F480911401882349F4809101018B5F85
:100410008093010181E0809314019DC080E290E00F
:10042000FC01808188230CF43DC0909102018B81F6
:100430009817C0F5809114018823A1F580910001DF
:10044000882F90E08A30910581F08B30910519F06A
:100450000997A9F023C0809115018930D0F48091CB
:1004600015018F5F8093150114C0809116018930AA
:1004700090F4809116018F5F809316010CC08091DB
:100480001701893050F4809117018F5F8093170115
:1004900004C0000003C0000001C0000081E08093A0
:1004A000140159C080E290E0FC018081882F90E027
:1004B00080749927892B09F03DC0909102018C81AD
:1004C0008917C0F5809114018823A1F5809100015E
:1004D000882F90E08A30910581F08B30910519F0DA
:1004E0000997A9F023C0809115018823D1F080914C
:1004F000150181508093150114C080911601882345
:1005000091F0809116018150809316010CC080916A
:100510001701882351F080911701815080931701B2
:1005200004C0000003C0000001C0000081E080930F
:10053000140111C080E290E0FC018081882F90E0DE
:10054000887F9927883F910531F48091140181308B
:1005500011F41092140180E090E0A0E2B1E48D83E8
:100560009E83AF83B88720E030E04AE755E46D8191
:100570007E818F8198850E94770EDC01CB0189876F
:100580009A87AB87BC8720E030E040E85FE369856D
:100590007A858B859C850E94240D88232CF481E02C
:1005A00090E09E878D873FC020E03FEF4FE757E404
:1005B00069857A858B859C850E94730E18164CF58B
:1005C00020E030E040E251E46D817E818F819885AA
:1005D0000E94770EDC01CB01BC01CD010E94950D7C
:1005E000DC01CB019E878D870FC080E991E0988B5D
:1005F0008F878F8598890197F1F7988B8F878D85E5
:100600009E8501979E878D878D859E85892B69F7AD
:1006100014C069857A858B859C850E94950DDC01C7
:10062000CB019E878D878D859E859A8B898B898945
:100630009A890197F1F79A8B898B209101018B8917
:100640009C89FC012083209102018D899E89FC01F7
:100650002083209100018F89988DFC0120832091B7
:100660001501898D9A8DFC012083209116018B8DB7
:100670009C8DFC012083209117018D8D9E8DFC01A6
:10068000208300006E960FB6F894DEBF0FBECDBF7C
:10069000DF91CF911F910F91FF90EF9008951F92DE
:1006A0000F9200905F000F92112400905B000F9258
:1006B0002F933F938F939F93EF93FF93CF93DF936A
:1006C000CDB7DEB783EB90E023EB30E0F90120817A
:1006D0002358FC01208380911801882329F0809100
:1006E00018018150809318010000DF91CF91FF9194
:1006F000EF919F918F913F912F910F9000925B000E
:100700000F9000925F000F901F901895CF93DF938A
:100710001F92CDB7DEB78FE590E0FC018081898321
:10072000F89484EC90E027E630E0FC0131832083EC
:1007300081EC90E028E9FC01208380EC90E020EC43
:10074000FC0120838FE590E02981FC01208340E1BA
:100750006DE975E085E995E0B8DC40E465E575E0B4
:100760008DE495E0B2DC00000F90DF91CF91089509
:10077000CF93DF9300D0CDB7DEB78A836A818DE453
:1007800095E0FCDC898381EC90E021EC30E0F9011C
:1007900020812062FC01208389810F900F90DF91DE
:1007A000CF9108951F920F9200905F000F92112435
:1007B00000905B000F922F933F934F935F936F9343
:1007C0007F938F939F93AF93BF93EF93FF93CF93B9
:1007D000DF93CDB7DEB786EC90E0FC018081682F17
:1007E00085E995E0CBDC0000DF91CF91FF91EF919F
:1007F000BF91AF919F918F917F916F915F914F9139
:100800003F912F910F9000925B000F9000925F003C
:100810000F901F9018951F920F9200905F000F92FB
:10082000112400905B000F920F931F932F933F931F
:100830004F935F936F937F938F939F93AF93BF93E8
:10084000EF93FF93CF93DF93CDB7DEB780914D0544
:10085000882341F006EC10E08DE495E075DCF801AA
:10086000808309C081EC90E021EC30E0F901208127
:100870002F7DFC0120830000DF91CF91FF91EF914C
:10088000BF91AF919F918F917F916F915F914F91A8
:100890003F912F911F910F910F9000925B000F904D
:1008A00000925F000F901F901895CF93DF9300D0B8
:1008B000CDB7DEB79A83898389819A81FC018081D3
:1008C00057DF89819A819C012F5F3F4F3A832983AB
:1008D000FC018081882381F700000F900F90DF9149
:1008E000CF910895CF93DF93CDB7DEB72C970FB696
:1008F000F894DEBF0FBECDBF9C878B878B859C8510
:100900004AE050E09E012F5F3F4FB9010E94F30E75
:10091000CE010196CADF00002C960FB6F894DEBF18
:100920000FBECDBFDF91CF9108951F920F9200901F
:100930005F000F9211248F939F93CF93DF93CDB7D6
:10094000DEB781E090E090931A01809319010000D6
:10095000DF91CF919F918F910F9000925F000F9048
:100960001F9018951F920F9200905F000F92112414
:100970008F93CF93DF93CDB7DEB781E080931703DA
:100980000000DF91CF918F910F9000925F000F9048
:100990001F9018951F920F9200905F000F921124E4
:1009A0008F93CF93DF93CDB7DEB781E080932003A1
:1009B0000000DF91CF918F910F9000925F000F9018
:1009C0001F9018951F920F9200905F000F921124B4
:1009D0008F93CF93DF93CDB7DEB7809122038F5FE4
:1009E000809322030000DF91CF918F910F900092AE
:1009F0005F000F901F9018958F929F92AF92BF92B9
:100A0000CF92DF92EF92FF920F931F93CF93DF93DA
:100A1000CDB7DEB7A0970FB6F894DEBF0FBECDBF3F
:100A2000F89481E290E021E230E0F9012081277022
:100A3000FC01208382E290E022E230E0F901208193
:100A4000286FFC0120838AE290E02AE230E0F9017D
:100A500020812B7FFC0120838BE290E02BE230E0B1
:100A6000F90120812460FC0120838AE290E02AE2DF
:100A700030E0F9012081277FFC0120838BE290E0A8
:100A80002BE230E0F90120812860FC01208384E220
:100A900090E02FE0FC01208385E290E025E230E049
:100AA000F90120812F60FC01208388E690E028E690
:100AB00030E0F90120812160FC0120838BE690E089
:100AC0002BE630E0F9012081286FFC01208381E8CA
:100AD00090E021E0FC01208381E890E02DEFFC0113
:100AE000208381E890E024E0FC0120838FE690E001
:100AF00020E2FC0120837894F2D40DD507DE87E64E
:100B000090E098878F838AE290E09A8789871C8695
:100B10001B861E861D86188A1F861A8A198A1C8AB9
:100B20001B8AE0901803F090190300911A031091AA
:100B30001B032091400530914105409142055091A1
:100B4000430588EE93E0DC010E94DA0EDC01CB0164
:100B500047015801881A990AAA0ABB0AD501C4019B
:100B6000883E9340A105B105E8F080914005909141
:100B70004105A0914205B09143050196A11DB11D0B
:100B80008093400590934105A0934205B09343059F
:100B900085E290E025E230E0F901308121E0232771
:100BA000FC01208389E290E0FC018081882F90E0A5
:100BB0008870992721E0892B09F020E0822F80930B
:100BC0000F0180910F01882309F445C0809118031B
:100BD00090911903A0911A03B0911B039C01AD01E0
:100BE00028533F4F4F4F5F4F8091440590914505EB
:100BF000A0914605B091470582179307A407B50752
:100C0000E0F5809148058823C1F581E0809348058F
:100C10009091490581E0992309F080E0809349058E
:100C200080914905882349F085E290E025E230E093
:100C3000F90120812D7FFC012083809149058823C3
:100C4000E1F485E290E025E230E0F90120812260C4
:100C5000FC01208312C08091180390911903A09188
:100C60001A03B0911B038093440590934505A0930C
:100C70004605B09347051092480589E290E0FC01D3
:100C80008081882F90E08470992721E0892B09F0DA
:100C900020E0822F80930E0180912003882321F48D
:100CA00080910E018130A9F5809105019091060196
:100CB0009C0140E050E080911C0390911D03A091A5
:100CC0001E03B0911F03280F391F4A1F5B1F80911D
:100CD000180390911903A0911A03B0911B032817D0
:100CE00039074A075B0718F481E08093210380915C
:100CF000180390911903A0911A03B0911B038093DC
:100D00001C0390931D03A0931E03B0931F03109226
:100D1000200380912103882309F4B1C285E290E089
:100D200025E230E0F901308128E02327FC0120830F
:100D30008091270390912803A0912903B0912A0361
:100D40008093230390932403A0932503B093260359
:100D500080912B0390912C03A0912D03B0912E0331
:100D60008093270390932803A0932903B0932A0329
:100D700080912F0390913003A0913103B091320301
:100D800080932B0390932C03A0932D03B0932E03F9
:100D90008091330390913403A0913503B0913603D1
:100DA00080932F0390933003A0933103B0933203C9
:100DB0008091180390911903A0911A03B0911B031D
:100DC0008093330390933403A0933503B093360399
:100DD00081E08093370380913903809338038091B9
:100DE0003A038093390380913B0380933A03209127
:100DF0003303309134034091350350913603809191
:100E00002F0390913003A0913103B0913203281742
:100E100039074A075B0709F454C080910701909194
:100E20000801CC01A0E0B0E0BC01CD01AAD66B0165
:100E30007C018091330390913403A0913503B091EC
:100E40003603BC01CD019DD64B015C0180912F037F
:100E500090913003A0913103B0913203BC01CD01D8
:100E600090D6DC01CB019C01AD01C501B40187D551
:100E7000DC01CB019C01AD01C701B601E9D5DC0164
:100E8000CB016C017D0180910901882F90E0A0E0E9
:100E9000B0E0BC01CD0175D6DC01CB0111E09C01B5
:100EA000AD01C701B6011FD788230CF410E0812FD4
:100EB00080933B0380913B03882329F410924905DA
:100EC00002C010923B0380913703882309F4C5C107
:100ED00080913803882309F4C0C1809139038823A5
:100EE00009F4BBC180913A03882309F4B6C180910B
:100EF0003B03882309F4B1C1809107019091080157
:100F0000CC01A0E0B0E0BC01CD013BD6DC01CB01BF
:100F10009C01AD01BC01CD0133D5DC01CB016C01DD
:100F20007D0120912F033091300340913103509186
:100F300032038091270390912803A0912903B09157
:100F40002A0349015A01881A990AAA0ABB0AD5013B
:100F5000C401BC01CD0115D6DC01CB019C01AD0162
:100F6000C701B60175D5DC01CB01809330059093A4
:100F70003105A0933205B0933305209133033091AE
:100F80003403409135035091360380912B039091A7
:100F90002C03A0912D03B0912E0379018A01E81A48
:100FA000F90A0A0B1B0BD801C7018D8B9E8BAF8BE7
:100FB000B88F20912F03309130034091310350912D
:100FC00032038091270390912803A0912903B091C7
:100FD0002A0349015A01881A990AAA0ABB0AD501AB
:100FE000C401898F9A8FAB8FBC8F20912B033091D6
:100FF0002C0340912D0350912E0380912303909157
:101000002403A0912503B091260379018A01E81AEF
:10101000F90A0A0B1B0BD801C7018D8F9E8FAF8F6A
:10102000B8A38091070190910801CC01A0E0B0E045
:10103000BC01CD01A6D5DC01CB0120E030E04AE7C0
:1010400054E4BC01CD0104D5DC01CB019C01AD0110
:10105000BC01CD0195D4DC01CB016C017D016D8912
:101060007E898F89988D8DD5DC01CB019C01AD01E6
:1010700060E070E08AE794E4EBD4DC01CB014C0142
:101080005D016D8D7E8D8F8D98A17BD5DC01CB01AF
:101090009C01AD0160E070E08AE794E4D9D4DC0102
:1010A000CB019C01AD01C501B40169D4DC01CB01C8
:1010B0004C015D01698D7A8D8B8D9C8D62D5DC0133
:1010C000CB0120E030E04AE754E4BC01CD01C0D4BC
:1010D000DC01CB019C01AD01C501B401B9D4DC0137
:1010E000CB019C01AD01C701B60101D6DC01CB01EA
:1010F0008093340590933505A0933605B09337055A
:1011000080910A0190910B01A0910C01B0910D0109
:10111000B058209130053091310540913205509101
:101120003305BC01CD01E3D5DC01CB017C018D0190
:101130008091340590913505A0913605B091370521
:101140009C01AD01C801B701D2D5DC01CB01809370
:10115000380590933905A0933A05B0933B058091EB
:10116000300590913105A0913205B091330526E606
:1011700036E646E650E4BC01CD01B9D5DC01CB0131
:10118000BC01CD01CDD4DC01CB01ACDB81E191E030
:101190008CDB8091340590913505A0913605B09196
:1011A000370520E030E04AE754E4BC01CD019FD58B
:1011B000DC01CB01BC01CD01B3D4DC01CB0192DB5E
:1011C00081E191E072DB8091380590913905A09121
:1011D0003A05B0913B05BC01CD01A2D4DC01CB01A5
:1011E00081DB81E191E061DB81E191E05EDB809177
:1011F00049058823A1F020913805309139054091A7
:101200003A0550913B058091300590913105A091B0
:101210003205B0913305BC01CD019ED12EC0209185
:101220003405309135054091360550913705809150
:10123000300590913105A0913205B0913305BC0184
:10124000CD013BD2DC01CB0180933C0590933D0561
:10125000A0933E05B0933F0510C010923005109248
:101260003105109232051092330510923405109218
:1012700035051092360510923705109221038091A2
:1012800017038130B1F50F2EFFE1EF2EF1E0FF2EB5
:10129000F02D0EE111E02DE131E044E051E06BE191
:1012A00071E083E091E03FD880911D01282F30E06C
:1012B00080911E01882F90E0880F991FAC01440F88
:1012C000551F440F551F840F951F280F391F8091FC
:1012D0001F01482F50E064E6649FC001659F900D98
:1012E0001124820F931F909321018093200110926B
:1012F000170380912201282F30E08F819885821773
:1013000093070CF05AC01A82198217C089819A81FA
:10131000880F991F8D5D9E4FFC012081318189814D
:101320009A81880F991F835E9D4FFC013183208332
:1013300089819A8101969A83898389819A818736E6
:10134000910524F381E090E09C838B831CC08B810A
:101350009C81880F991F8D5D9E4FFC01808191813A
:101360009C8B8B8B8B819C8101972B893C89880F6F
:10137000991F8D5D9E4FFC01318320838B819C8161
:1013800001969C838B838B819C8189369105FCF22D
:101390008091220181508093220180912201882F27
:1013A00090E020911C01222F30E0880F991F8D5D65
:1013B0009E4FFC01318320830FC080912201882F32
:1013C00090E020911C01222F30E0880F991F8D5D45
:1013D0009E4FFC0131832083809122018F5F809397
:1013E000220180910301882F90E08730910531F030
:1013F0008C309105E9F10297D1F53AC01E821D8229
:101400002CC08D819E81880F991F8D5D9E4FFC01A0
:10141000808191812CE330E04901881A990AC40146
:10142000988B8F878D819E810D969C878B878D8170
:101430009E81880F991F835E9D4FFC018081918161
:101440002CE330E04901881A990AC4019A8B898BF0
:101450008D819E8101969E838D838D819E818736AD
:1014600091057CF210921A011092190101C000003E
:10147000809122038823E1F380912203282F880F93
:10148000330B80914A0590914B05821793074CF4DA
:1014900080912203082E000C990B90934B058093AA
:1014A0004A0580912203282F880F330B440B550BDC
:1014B0008091180390911903A0911A03B0911B0316
:1014C000820F931FA41FB51F8093180390931903D5
:1014D000A0931A03B0931B031092220310CBCF9357
:1014E000DF93CDB7DEB7F89489E690E029E630E0E7
:1014F000F90120812160FC0120838DE390E02DE340
:1015000030E0F90120812160FC0120837894000003
:10151000DF91CF910895CF93DF93CDB7DEB7F894E5
:1015200085E490E025E430E0F90120812360FC01AE
:10153000208387E490E02AEFFC0120838EE690E090
:101540002EE630E0F90120812260FC0120837894AE
:101550000000DF91CF910895CF93DF93CDB7DEB731
:101560002A970FB6F894DEBF0FBECDBF6B837C8386
:101570008D839E832F83388749875A8719821A82E1
:1015800020E030E040E951E46B817C818D819E81D7
:10159000AED3DC01CB018B839C83AD83BE8320E083
:1015A00030E04FE753E46B817C818D819E819BD33A
:1015B000181644F480E090E0AFE7B3E48B839C839B
:1015C000AD83BE8320E030E0A9016B817C818D81F9
:1015D0009E813AD2882324F41B821C821D821E82A3
:1015E0006B817C818D819E819BD2DC01CB018983C3
:1015F00020E030E040E05FE36F81788589859A855F
:1016000076D3DC01CB018F839887A987BA8720E046
:1016100030E0A9016F81788589859A8515D2882364
:1016200024F41F82188619861A8620E030E04FE7DE
:1016300053E46F81788589859A8555D3181644F4CB
:1016400080E090E0AFE7B3E48F839887A987BA87FB
:101650006F81788589859A8563D2DC01CB018A8385
:101660008091100199819817F0F480914C05882F92
:1016700090E0845C9C4F2981FC01208380914C0583
:10168000882F90E08A5C9B4F2A81FC01208389810E
:101690008093100180914C058A3F28F480914C057D
:1016A0008F5F80934C0500002A960FB6F894DEBF3A
:1016B0000FBECDBFDF91CF9108958F929F92AF92D1
:1016C000BF92CF92DF92EF92FF92CF93DF93CDB78D
:1016D000DEB766970FB6F894DEBF0FBECDBF6F873B
:1016E000788B898B9A8B2B8B3C8B4D8B5E8B1E82E0
:1016F0001F821886198619821A821B821C821A86FA
:101700001B861C861D861E861D8226E636E646E65C
:1017100050E46F85788989899A89E9D2DC01CB0107
:1017200020E030E040EA50E4BC01CD01E0D2DC0131
:10173000CB01BC01CD01F4D1DC01CB018E8703C00C
:101740008D818F5F8D838D81882F90E0845C9C4F8D
:10175000FC0190818E85891798F38D81882F90E008
:10176000845C9C4FFC0190818E859817A9F48D8133
:10177000882F90E08A5C9B4FFC018081882F90E04D
:10178000A0E0B0E0BC01CD01FCD1DC01CB0189833C
:101790009A83AB83BC83AFC08D81882F90E0019783
:1017A0008A5C9B4FFC018081882F90E0A0E0B0E034
:1017B000BC01CD01E6D16B017C018D81882F90E0C9
:1017C0008A5C9B4FFC018081882F90E0A0E0B0E014
:1017D000BC01CD01D6D1DC01CB019C01AD01C7011B
:1017E000B601CDD0DC01CB016C017D018D81882F4C
:1017F00090E00197845C9C4FFC018081882F90E0F1
:10180000A0E0B0E0BC01CD01BCD14B015C018D81F9
:10181000882F90E0845C9C4FFC018081882F90E0B1
:10182000A0E0B0E0BC01CD01ACD1DC01CB019C015A
:10183000AD01C501B401A3D0DC01CB019C01AD0118
:10184000C701B60105D1DC01CB016C017D018E859C
:10185000882F90E0A0E0B0E0BC01CD0192D14B0117
:101860005C018D81882F90E0845C9C4FFC0180811D
:10187000882F90E0A0E0B0E0BC01CD0182D1DC0176
:10188000CB019C01AD01C501B40179D0DC01CB01D4
:101890009C01AD01C701B6012AD2DC01CB016C016C
:1018A0007D018D81882F90E08A5C9B4FFC018081B7
:1018B000882F90E0A0E0B0E0BC01CD0162D1DC0156
:1018C000CB019C01AD01C701B6015AD0DC01CB01AF
:1018D00089839A83AB83BC8389819A81AB81BC81E4
:1018E0009C01AD01BC01CD014BD0DC01CB01898352
:1018F0009A83AB83BC8380910A0190910B01A091E4
:101900000C01B0910D012F85388949895A89BC0194
:10191000CD01EDD1DC01CB012B893C894D895E895C
:10192000BC01CD01E4D1DC01CB018A879B87AC8768
:10193000BD872A853B854C855D8569817A818B8150
:101940009C811ED0DC01CB018E839F83A887B98741
:101950008E819F81A885B985BC01CD0166960FB6A1
:10196000F894DEBF0FBECDBFDF91CF91FF90EF9017
:10197000DF90CF90BF90AF909F908F900895505878
:10198000BB27AA270ED075C166D130F06BD120F0ED
:1019900031F49F3F11F41EF45BC10EF4E095E7FBB8
:1019A00051C1E92F77D180F3BA1762077307840713
:1019B000950718F071F49EF58FC10EF4E0950B2E8B
:1019C000BA2FA02D0B01B90190010C01CA01A00191
:1019D0001124FF27591B99F0593F50F4503E68F1EC
:1019E0001A16F040A22F232F342F4427585FF3CF2D
:1019F000469537952795A795F0405395C9F77EF4FE
:101A00001F16BA0B620B730B840BBAF09150A1F046
:101A1000FF0FBB1F661F771F881FC2F70EC0BA0FCC
:101A2000621F731F841F48F4879577956795B79554
:101A3000F7959E3F08F0B3CF9395880F08F099274C
:101A4000EE0F979587950895D9D008F481E0089511
:101A50000CD00FC107D140F0FED030F021F45F3F31
:101A600019F0F0C0511139C1F3C014D198F3992382
:101A7000C9F35523B1F3951B550BBB27AA27621752
:101A80007307840738F09F5F5F4F220F331F441F97
:101A9000AA1FA9F333D00E2E3AF0E0E830D09150CF
:101AA0005040E695001CCAF729D0FE2F27D0660FBC
:101AB000771F881FBB1F261737074807AB07B0E8FB
:101AC00009F0BB0B802DBF01FF2793585F4F2AF011
:101AD0009E3F510568F0B6C000C15F3FECF3983EF1
:101AE000DCF3869577956795B795F7959F5FC9F76E
:101AF000880F911D9695879597F90895E1E0660FF7
:101B0000771F881FBB1F621773078407BA0720F06F
:101B1000621B730B840BBA0BEE1F88F7E0950895D8
:101B200004D06894B111D9C00895BCD088F09F57F3
:101B300090F0B92F9927B751A0F0D1F0660F771F19
:101B4000881F991F1AF0BA95C9F712C0B13081F0F9
:101B5000C3D0B1E00895C0C0672F782F8827B85F41
:101B600039F0B93FCCF3869577956795B395D9F75A
:101B70003EF490958095709561957F4F8F4F9F4F64
:101B80000895E89409C097FB3EF490958095709570
:101B900061957F4F8F4F9F4F9923A9F0F92F96E9B9
:101BA000BB279395F695879577956795B795F1112E
:101BB000F8CFFAF4BB0F11F460FF1BC06F5F7F4FCB
:101BC0008F4F9F4F16C0882311F096E911C07723DD
:101BD00021F09EE8872F762F05C0662371F096E8E6
:101BE000862F70E060E02AF09A95660F771F881FB5
:101BF000DAF7880F9695879597F90895990F000859
:101C0000550FAA0BE0E8FEEF16161706E807F907CE
:101C1000C0F012161306E407F50798F0621B730B69
:101C2000840B950B39F40A2661F0232B242B252BEA
:101C300021F408950A2609F4A140A6958FEF811D8D
:101C4000811D089597F99F6780E870E060E008952E
:101C50009FEF80EC089500240A94161617061806C4
:101C60000906089500240A941216130614060506A0
:101C70000895092E0394000C11F4882352F0BB0F31
:101C800040F4BF2B11F460FF04C06F5F7F4F8F4F94
:101C90009F4F089557FD9058440F551F59F05F3FCF
:101CA00071F04795880F97FB991F61F09F3F79F07E
:101CB00087950895121613061406551FF2CF469500
:101CC000F1DF08C0161617061806991FF1CF869582
:101CD0007105610508940895E894BB276627772766
:101CE000CB0197F908958ADF08F48FEF08950BD0A0
:101CF000C0CFB1DF28F0B6DF18F0952309F0A2CFEE
:101D0000A7CF1124EACFC6DFA0F3959FD1F3950F9B
:101D100050E0551F629FF001729FBB27F00DB11D6F
:101D2000639FAA27F00DB11DAA1F649F6627B00DFF
:101D3000A11D661F829F2227B00DA11D621F739FE8
:101D4000B00DA11D621F839FA00D611D221F749FF6
:101D50003327A00D611D231F849F600D211D822F3D
:101D6000762F6A2F11249F5750408AF0E1F0882384
:101D70004AF0EE0FFF1FBB1F661F771F881F915091
:101D80005040A9F79E3F510570F05CCFA6CF5F3F52
:101D9000ECF3983EDCF3869577956795B795F795C4
:101DA000E7959F5FC1F7FE2B880F911D969587954C
:101DB00097F9089509D0A59F900DB49F900DA49F09
:101DC000800D911D11240895A29FB001B39FC00101
:101DD000A39F700D811D1124911DB29F700D811D57
:101DE0001124911D08954532510518F4423008F030
:101DF00004C0FB011082CB010895BB274A3031F4A7
:101E0000992322F4BDE2909581959F4F01C0BB2795
:101E1000FB015527AA27880F991FAA1FA41710F0A6
:101E2000A41B83955051B9F7A05DAA3308F0A95DB2
:101E3000A193009779F7B111B1931192CB0100C032
:101E4000DC01FC01672F71917723E1F7329704C021
:101E50007C916D9370836291AE17BF07C8F30895AC
:041E6000F894FFCF24
:101E64000B0206020B3200A708010000A042FFFF8C
:041E7400FF0A0D0054
:00000001FF
