S0160000444D4D5F50726F6A656B745F30342E737265632F
S1130000B5C500000C94EB11D0C50000CEC50000AE
S11300100C94D311CAC50000C8C50000C6C50000B1
S1130020C4C500000C946B10C0C50000BEC5000020
S1130030BCC50000BAC50000B8C500000C94B611D8
S11300400C940312B2C50000B0C50000AEC5000098
S11300500C94F1100C942B11A8C50000A6C5000047
S1130060A4C50000A2C50000A0C500009EC50000F4
S11300709CC500009AC5000098C5000096C5000004
S113008094C5000092C5000090C500000000000067
S11300900000003E4551453E003E6B6F6B3E001C28
S11300A03E7C3E1C00183C7E3C180030367F3630C7
S11300B000185C7E5C1800000000000000000000D6
S11300C000000000000000000000000000000030FC
S11300D0484A360E0006297929060000000000006F
S11300E000607E0A353F002A1C361C2A00007F3E31
S11300F01C0800081C3E7F000014367F36140000E4
S11301005F005F000006097F017F00224D555922E0
S11301100060606060000014B6FFB6140004067F3F
S113012006040010307F30100008083E1C08000848
S11301301C3E080800784040404000083E083E0845
S113014000303C3F3C3000030F3F0F030000000031
S113015000000000065F06000007030007030024F8
S11301607E247E2400242B6A120000631308646337
S113017000364956205000000703000000003E41AD
S113018000000000413E000000083E1C3E0800083C
S1130190083E08080000E06000000008080808089D
S11301A0000060600000002010080402003E514975
S11301B0453E0000427F400000625149494600220A
S11301C049494936001814127F10002F4949493112
S11301D0003C4A4949300001710905030036494988
S11301E0493600064949291E00006C6C00000000D5
S11301F0EC6C000000081422410000242424242470
S1130200000041221408000201590906003E415D24
S1130210551E007E1111117E007F49494936003E6A
S113022041414122007F4141413E007F49494941CA
S1130230007F09090901003E4149497A007F080805
S1130240087F0000417F410000304040403F007F74
S113025008142241007F40404040007F0204027F96
S1130260007F0204087F003E4141413E007F0909AE
S11302700906003E4151215E007F090919660026E6
S1130280494949320001017F0101003F4040403F9C
S1130290001F2040201F003F403C403F00631408E3
S11302A01463000708700807007149454300000003
S11302B07F414100000204081020000041417F00FA
S11302C00004020102048080808080800000030713
S11302D00000002054545478007F444444380038CB
S11302E04444442800384444447F00385454540857
S11302F000087E0909000018A4A4A47C007F04045B
S113030078000000007D4000004080847D00007F74
S1130310102844000000007F4000007C041804788A
S1130320007C0404780000384444443800FC44440D
S113033044380038444444FC004478440408000829
S11303405454542000043E442400003C40207C00CB
S1130350001C2040201C003C6030603C006C1010ED
S11303606C00009CA0603C00006454544C000008E5
S11303703E414100000000770000000041413E087A
S1130380000201020100003C2623263C001EA1E1DC
S11303902112003D40207D000038545455090020AE
S11303A055555578002055545578002055555478A6
S11303B0002057555778001CA2E2221400385555E6
S11303C05508003855545508003855555408000050
S11303D0017C41000000017D41000000017C4000DF
S11303E000702924297000782F252F78007C54541C
S11303F055450034547C5458007E097F49490038DF
S11304004545390000384544390000394544380031
S1130410003C41217D00003D41207C00009CA16006
S11304203D00003D42423D00003C41403D008070A3
S11304306858380400483E494962007E615D433F84
S11304400022140814220040887E0902002054551A
S113045055780000007D4100003844453900003CD7
S113046040217D00007A090A7100007A1122790086
S113047000085555555E004E51514E000030484D10
S113048040203E415D4B553E04040404041C001707
S1130490084C6A50001708342A780000307D300078
S11304A0000814000814001408001408441144112E
S11304B04411AA55AA55AA55BBEEBBEEBBEE0000EB
S11304C000FF0000080808FF0000007028252970BC
S11304D00070292529700070292528703E415D553A
S11304E0413E0AFB00FF000000FF00FF00000AFA83
S11304F002FE00000A0B080F000000182466240006
S113050000292A7C2A29080808F800000000000FA6
S113051008080808080F0808080808F80808000070
S113052000FF0808080808080808080808FF080861
S113053000205655567900702A252A71000F080BA1
S11305400A0A00FE02FA0A0A0A0B080B0A0A0AFA45
S113055002FA0A0A00FF00FB0A0A0A0A0A0A0A0A3D
S11305600AFB00FB0A0A005D2222225D0022555983
S1130570300000087F49413E007C55555544007CBD
S113058055545544007C5555544400000007000060
S11305900000447D45000000457D45000000457C89
S11305A045000808080F0000000000F80808FFFFD5
S11305B0FFFFFFFFF0F0F0F0F0F000000077000024
S11305C00000457D44000F0F0F0F0F0F003C424306
S11305D03D0000FE4A4A3400003C43433D00003DD8
S11305E043423C000032494A3100003A4546390052
S11305F000FC20201C0000FEAA28100000FFA524F7
S11306001800003C40413D00003C41413D00003D9C
S113061041403C00009CA0613D00000408710904B5
S113062000000202020000000703000000000808A6
S113063008000000242E2400002424242424051768
S11306400A342A780006097F017F00224D55592279
S11306500008082A080800000818180000060909FC
S11306600600000008000800000008000000000266
S11306700F00000000090F05000000090D0A00002A
S1130680003C3C3C3C000000000000000000000076
S11306900000000000000000000000000000000056
S11306A00000000000000000000000000000000046
S11306B00000000000000000000000000000000036
S11306C00000000000000000000000000000000026
S11306D00000000000000000000000000000000016
S11306E00000000000000000000000000000000006
S11306F000000000000000000000000000000000F6
S113070000000000000000000000000000000000E5
S113071000000000000000000000000000000000D5
S113072000000000000000000000000000000000C5
S113073000000000000000000000000000000000B5
S113074000000000000000000000000000000000A5
S1130750000000000000000002020206060E0E0E59
S11307601E1E1E3EFEFEFEFEFCFCFCFCFCFCFCFC15
S1130770FCFCF8F8F8F000000000000000000000A5
S11307800000000000000000000000000000000065
S11307900000000000000000000000000000000055
S11307A00000000000000000000000000000000045
S11307B0000000000000000000000080C0E0E0E055
S11307C0E0E0C080000080C0C0E0E0E0E0C0C0C065
S11307D0C0C0C0808080000002070F1F3F3F7F7FA2
S11307E0FEFEFCF8F0E1C18383030303070707035C
S11307F003030301010000000000000000000000EA
S113080000000000000000000000000000000000E4
S11308100000000000000000000000000000008054
S11308208080C0C0C0C0C0C0C0C0E0E0E0C0C0C0E4
S1130830C0C0C0C080808000000000071FFFFFFF11
S1130840FFFFFFFFFFFC800101030303030707070A
S113085007078FCFEFFFFFFFFFFE7E7C3C00000009
S11308600000010101030383838787874646464CC2
S11308704C4C4848484848404080808080000000F4
S11308800000000000000000000000000000000064
S113089000000080C0E0F0F8FCFCFEFEFFFFFFFF5C
S11308A0FFFFFFFFFFFFFFFFFFFFFFFFFFFFFFFF54
S11308B0FFFFFFFFFFFFFFFFFFFEFCF8F0C0030F89
S11308C03F7FFFFFFFFFFFC0000000406030381C87
S11308D01E0F0F070703030101000080E0603018BA
S11308E00C0C0602030101010000000000000000DE
S11308F000000000000000000000000001010302ED
S1130900060C38F0C00000000000000000000000E9
S113091000003EFFFFFFFFFFFFFFFFFFFFFFFFFFA2
S1130920FFFFFFFFFFFFFFFFFFFFFFFFFFFFFFFFD3
S1130930FFFFFFFFFFFFFFFFFFFF7F3F0F030000ED
S11309400000030F1F7FFFFF800000000000000075
S113095000000000000000000018FFFF81000000FC
S11309600000000000000000000000000000000083
S113097000000000000000000000000000000080F3
S1130980C0703C1F070000000000000000000000D1
S113099000000000010303070F0F0F1F1F1F1F3F5D
S11309A03F3F3F3F3F3F3F3F3F3F3F1F1F1F1F0F03
S11309B00F0F0707070303010000000000000000F9
S11309C000000000000001030F0000000000000010
S11309D00000000000000000000000010307060CF6
S11309E00818101030202020202020202020202033
S11309F0202020201010101808080C0406030301FE
S1130A0000000000000000000000000000000000E2
S1130A1000000000000000000000000000000000D2
S1130A2000000000000000000000000000000000C2
S1130A3000000000000000000000000000000000B2
S1130A4000000000000000000000000000000000A2
S1130A500000000000000000000000000000000092
S1130A600000000000000000000000000000000082
S1130A700000000000000000000000000000000072
S1130A80000000000000000000000000444D4D2D57
S1130A9050726F6A656B74204E722E34200D0A00FA
S1130AA0476573636877696E6469676B65697473B6
S1130AB061626861656E672E0D0A0046616872772F
S1130AC0696465727374616E640D0A005465696CBF
S1130AD06E65686D65723A0D0A004E696B6C6173E0
S1130AE0204B7568726D657965720D0A00506869EE
S1130AF06C697070204C65696665720D0A004C6FF4
S1130B0067676572004B75727665004D6173736536
S1130B10004C6F67676572004B75727665004D61B6
S1130B2073736500760050004C6F67676572004B05
S1130B3075727665004D6173736500696E206B672D
S1130B4000476573636877696E6469676B65697488
S1130B503A002020202020202020006B6D2F6800E8
S1130B604C65697374756E673A00570011241FBE93
S1130B70CFEFD0E4DEBFCDBF11E0A0E0B1E0EAE406
S1130B80F8E300E00BBF02C007900D92A432B10756
S1130B90D9F729E0A4E2B1E001C01D92A23CB2075A
S1130BA0E1F70E944B120C94231C2ACACF93DF93C3
S1130BB000D0CDB7DEB79A838983809124018E312A
S1130BC088F480912501882369F4809124018F5F42
S1130BD080932401809124018E31B9F481E08093C3
S1130BE0250113C080912401882379F08091250187
S1130BF0813059F4809124018150809324018091A3
S1130C002401882311F41092250120912401898163
S1130C109A81FC01208300000F900F90DF91CF9107
S1130C200895CF93DF93CDB7DEB784E290E024E25A
S1130C3030E0F90120812061FC01208385E290E00D
S1130C4025E230E0F90120812061FC0120830E942B
S1130C50610F0000DF91CF910895CF93DF9300D00F
S1130C6000D01F92CDB7DEB79A8389837C836B83D0
S1130C704D8389819A81FC01108289819A812B811B
S1130C803C81FC013583248389819A81FC01248180
S1130C90358189819A81FC013383228389819A81F8
S1130CA02D81FC01218389819A81FC012181898123
S1130CB09A81FC01278389819A81FC01278189819A
S1130CC09A81FC01268300000F900F900F900F90E3
S1130CD00F90DF91CF910895CF93DF9300D0CDB7DC
S1130CE0DEB79A83898389819A81FC018081882374
S1130CF019F48FEF9FEF05C089819A8178D0882FEE
S1130D0090E00F900F90DF91CF910895CF93DF93F0
S1130D10CDB7DEB727970FB6F894DEBF0FBECDBFB1
S1130D209E838D836F838D819E81FC0120818D81C3
S1130D309E81FC018181281710F080E04FC08D81D5
S1130D409E81FC01848195819A83898389819A811A
S1130D509C012F5F3F4F3A8329832F81FC0120831D
S1130D608D819E81FC0187818B838B8181508B8354
S1130D708B81882389F48D819E81FC0181818B8301
S1130D808B81882F90E091958195910929813A81F1
S1130D90820F931F9A8389838D819E812B81FC010D
S1130DA027838D819E8129813A81FC0135832483A7
S1130DB08FE590E0FC0180818C83F8948D819E8185
S1130DC0FC01808121E0280F8D819E81FC0120831C
S1130DD08FE590E02C81FC01208381E027960FB6FB
S1130DE0F894DEBF0FBECDBFDF91CF910895CF93AE
S1130DF0DF93CDB7DEB727970FB6F894DEBF0FBEEB
S1130E00CDBF9F838E838E819F81FC0182819381DC
S1130E109A83898389819A819C012F5F3F4F3A830A
S1130E202983FC0180818C838E819F81FC018681D2
S1130E308B838B8181508B838B81882389F48E8172
S1130E409F81FC0181818B838B81882F90E0919518
S1130E508195910929813A81820F931F9A8389830D
S1130E608E819F8129813A81FC01338322838E8183
S1130E709F812B81FC0126838FE590E0FC0180811A
S1130E808D83F8948E819F81FC0180812FEF280F40
S1130E908E819F81FC0120838FE590E02D81FC01F0
S1130EA020838C8127960FB6F894DEBF0FBECDBF8A
S1130EB0DF91CF910895EF92FF920F931F93CF93F9
S1130EC0DF93CDB7DEB76E970FB6F894DEBF0FBED3
S1130ED0CDBF9C8B8B8B7E8B6D8B588F4F8B3A8FBA
S1130EE0298F1C8F0B8FFE8EED8E82E089838CE020
S1130EF08A8389E08B831C8280E290E0FC018081FC
S1130F00882F90E088709927892BC1F4809126015D
S1130F108823A1F481E080932601809100018A3026
S1130F2030F08091000181508093000107C08091CE
S1130F3000018A3018F48BE08093000180E290E095
S1130F40FC018081882F90E080729927892B91F48D
S1130F50909101018981891768F480912601882381
S1130F6049F48091010185508093010181E08093CF
S1130F702601B9C080E290E0FC018081882F90E0D6
S1130F8080719927892B91F4909101018A81981796
S1130F9068F480912601882349F4809101018B5FD4
S1130FA08093010181E0809326019DC080E290E05E
S1130FB0FC01808188230CF43DC0909102018B8157
S1130FC09817C0F5809126018823A1F5809100012E
S1130FD0882F90E08A30910581F08B30910519F0CB
S1130FE00997A9F023C0809127018930D0F480911A
S1130FF027018F5F8093270114C0809128018930D5
S113100090F4809128018F5F809328010CC0809117
S11310102901893050F4809129018F5F809329013F
S113102004C0000003C0000001C0000081E0809300
S1131030260159C080E290E0FC018081882F90E075
S113104080749927892B09F03DC0909102018C810D
S11310508917C0F5809126018823A1F580910001AC
S1131060882F90E08A30910581F08B30910519F03A
S11310700997A9F023C0809127018823D1F080919A
S1131080270181508093270114C08091280188236F
S113109091F0809128018150809328010CC08091A7
S11310A02901882351F080912901815080932901DD
S11310B004C0000003C0000001C0000081E0809370
S11310C0260111C080E290E0FC018081882F90E02D
S11310D0887F9927883F910531F4809126018130DA
S11310E011F41092260180E090E0A0E2B1E48D8337
S11310F09E83AF83B88720E030E04AE755E46D81F2
S11311007E818F8198850E94481BDC01CB018987F1
S11311109A87AB87BC8720E030E040E85FE36985CD
S11311207A858B859C850E94F51988232CF481E0AF
S113113090E09E878D873FC020E03FEF4FE757E464
S113114069857A858B859C850E94441B18164CF50D
S113115020E030E040E251E46D817E818F8198850A
S11311600E94481BDC01CB01BC01CD010E94661A20
S1131170DC01CB019E878D870FC080E991E0988BBD
S11311808F878F8598890197F1F7988B8F878D8545
S11311909E8501979E878D878D859E85892B69F70E
S11311A014C069857A858B859C850E94661ADC014A
S11311B0CB019E878D878D859E859A8B898B8989A6
S11311C09A890197F1F79A8B898B209101018B8978
S11311D09C89FC012083209102018D899E89FC0158
S11311E02083209100018F89988DFC012083209118
S11311F02701898D9A8DFC012083209128018B8DF4
S11312009C8DFC012083209129018D8D9E8DFC01F4
S1131210208300006E960FB6F894DEBF0FBECDBFDC
S1131220DF91CF911F910F91FF90EF900895CF938D
S1131230DF931F92CDB7DEB78983898180932D0117
S113124000000F90DF91CF910895CF93DF931F9209
S1131250CDB7DEB7898389815DD600000F90DF9119
S1131260CF910895CF93DF931F92CDB7DEB729D6E0
S113127087E290E027E230E0F9012081206CFC0154
S113128020838FE590E0FC0180818983F89488E2D3
S113129090E028E230E0F90120812F77FC012083DF
S11312A088E290E028E230E0F90120812F7BFC0104
S11312B0208382EECADF83EAC8DF81E8C6DF88E0E4
S11312C0C4DF80EAC2DF88ECC0DF85E2BEDF8FE2E4
S11312D0BCDF8FEABADF88E290E028E230E0F9016F
S11312E020812064FC01208388E290E028E230E041
S11312F0F90120812068FC0120830DD08FE590E066
S11313002981FC0120831DD676D38BDC00000F904D
S1131310DF91CF910895CF93DF9300D0CDB7DEB79F
S113132019821A821A821CC0198214C08A81282F39
S113133030E08981882F90E03695322F2227379527
S11313402795820F931F8E599A4FFC011082898131
S11313508F5F8983898188234CF78A818F5F8A8391
S11313608A81883008F38FEF80932A0106D0000029
S11313700F900F90DF91CF910895CF93DF9300D01A
S11313801F92CDB7DEB787E089838FE590E0FC013B
S113139080818B8380912A01882F90E02981022EFD
S11313A0000C330B02C0959587952A95E2F781705E
S11313B09927892B09F446C088E290E028E230E0BE
S11313C0F90120812F7BFC01208388E290E028E250
S11313D030E0F90120812F77FC0120838981806B23
S11313E034DF80E132DF80E030DF88E290E028E221
S11313F030E0F90120812068FC0120831A8216C0A4
S11314008981282F880F330B8A81882F90E03695A5
S1131410322F222737952795820F931F8E599A4F83
S1131420FC01808112DF8A818F5F8A838A8188230D
S11314303CF788E290E028E230E0F9012081206462
S1131440FC0120838981982F91509983882309F086
S1131450A1CF10922A0100000F900F900F90DF91FE
S1131460CF910895CF93DF9300D000D01F92CDB7D2
S1131470DEB78B836C834D838B8188230CF4A0C0EF
S11314808C81803408F09CC08C81869586958695E5
S113149089838C81882F90E09C012770332781E019
S11314A090E002C0880F991F2A95E2F78A838D8104
S11314B0882F90E0009719F0029741F14CC0898180
S11314C0282F30E08B81882F90E04981642F70E0D1
S11314D04B81442F50E07695762F66277795679554
S11314E0460F571F4E595A4FFA014081542F4A81D3
S11314F0409545233695322F222737952795820F1D
S1131500931F8E599A4FFC0140834AC08981282F2A
S113151030E08B81882F90E04981642F70E04B810B
S1131520442F50E07695762F662777956795460F7A
S1131530571F4E595A4FFA0150814A814527369513
S1131540322F222737952795820F931F8E599A4F52
S1131550FC01408325C08981282F30E08B81882FAE
S113156090E04981642F70E04B81442F50E07695E0
S1131570762F662777956795460F571F4E595A4F12
S1131580FA0150814A81452B3695322F222737950F
S11315902795820F931F8E599A4FFC0140830000B8
S11315A08981282F30E081E090E002C0880F991FE4
S11315B02A95E2F7982F80912A01892B80932A019A
S11315C000000F900F900F900F900F90DF91CF912C
S11315D008950F93CF93DF93CDB7DEB72B970FB654
S11315E0F894DEBF0FBECDBF8F83688749872A87F3
S11315F00B878985282F30E08F81882F90E0A901FF
S1131600481B590BCA0199231CF4919581959109A2
S11316108A838A85282F30E08885882F90E0A90165
S1131620481B590BCA0199231CF491958195910982
S11316308B839F818985981710F481E001C08FEF17
S11316408C8398858A85981710F481E001C08FEF08
S11316508D839A818B81891734F48A8188230CF4D1
S11316608F5F85950CC08B81082E000C990B91958A
S11316708195910999230CF4019695958795898311
S11316804B8568858F81EEDE9F818985981721F4CB
S113169098858A85981739F189818E838E81282FC0
S11316A0880F330B8A81082E000C990B9195819534
S11316B091098217930754F499818B81592F581BF0
S11316C0852F89838C819F81890F8F839E818B8154
S11316D09817B4F699818A81890F89838D819885B9
S11316E0890F8887CDCF000000002B960FB6F894A1
S11316F0DEBF0FBECDBFDF91CF910F910895CF9381
S1131700DF93CDB7DEB729970FB6F894DEBF0FBECF
S1131710CDBF89878985882F90E08A30910529F08B
S11317200D9771F410922B01D9C080912C01873050
S113173008F0D1C080912C018F5F80932C01CBC025
S113174080912D01882309F060C019823EC08091E8
S11317502C01682F70E080912B01282F30E0C90103
S1131760880F991F820F931F880F991F9C018981ED
S1131770882F90E0A901480F591F8985282F30E050
S11317808981E82FF0E0C901880F991F820F931F08
S1131790880F991F8E0F9F1F84579F4F9C838B83A5
S11317A08B819C81FC0184918D832D81CB01969545
S11317B0982F882797958795840F951F8E599A4F50
S11317C0FC01208389818F5F89838981863008F4B5
S11317D0BECF80912C01282F30E081E090E002C040
S11317E0880F991F2A95E2F7982F80912A01892B57
S11317F080932A0180912B01843108F06EC080917E
S11318002B018F5F80932B0168C080912D01813063
S113181009F063C01A8240C080912C01682F70E0E7
S113182080912B01282F30E0C901880F991F820F66
S1131830931F880F991F9C018A81882F90E0A9012A
S1131840480F591F8985282F30E08A81E82FF0E05E
S1131850C901880F991F820F931F880F991F8E0F3C
S11318609F1F84579F4F9F838E838E819F81FC018E
S1131870849188878885282F2095CB019695982F69
S1131880882797958795840F951F8E599A4FFC0149
S113189020838A818F5F8A838A81863008F4BCCF53
S11318A080912C01282F30E081E090E002C0880F65
S11318B0991F2A95E2F7982F80912A01892B80930A
S11318C02A0180912B01843140F480912B018F5F98
S11318D080932B0102C0000001C000000000299683
S11318E00FB6F894DEBF0FBECDBFDF91CF91089540
S11318F0CF93DF9300D0CDB7DEB79A8389838981F4
S11319009A81FC018081882381F089819A81FC017C
S11319108081F5DE89819A8101969A838983898100
S11319209A81FC018081882381F700000F900F9039
S1131930DF91CF910895CF93DF9300D000D000D0F2
S1131940CDB7DEB79E838D838D819E819A838983F3
S113195089819A81FC0184918B838B818C838D8115
S11319609E8101969E838D838C81882319F08C81BE
S1131970C6DEEACF0000000026960FB6F894DEBF5C
S11319800FBECDBFDF91CF910895CF93DF9300D0E9
S113199000D000D0CDB7DEB78D836E838E81282F23
S11319A030E08D81882F90E0A9019E012F5F3F4F89
S11319B0B9010E94E61BCE0101969ADF000026962B
S11319C00FB6F894DEBF0FBECDBFDF91CF9108955F
S11319D0CF93DF9300D0CDB7DEB789836A83898143
S11319E080932B018A8180932C0100000F900F902B
S11319F0DF91CF910895CF93DF93CDB7DEB7D0D2E7
S1131A0084ECF7D281E126D380E024D380E022D392
S1131A1080E020D380E01ED380E01CD34CD30000B0
S1131A20DF91CF910895CF93DF931F92CDB7DEB7A7
S1131A308983B6D284ECDDD285E10CD389810AD3C3
S1131A403AD300000F90DF91CF910895CF93DF93A5
S1131A50CDB7DEB7A3970FB6F894DEBF0FBECDBFE8
S1131A601A8219821B821C8285E1DDDF54DC1C8210
S1131A702EC01B8226C08C81482F50E08B81282FDA
S1131A8030E089819A81BC016F5F7F4F7A836983DB
S1131A908457994F9E838D838D819E81FC0184910F
S1131AA08F836F81CA019695982F8827979587957C
S1131AB0820F931F8E599A4FFC0160838B818F5F35
S1131AC08B838B818823BCF68C818F5F8C838C8184
S1131AD0883078F28FEF80932A014FDC80E090E821
S1131AE0ABE3B5E488879987AA87BB8720E030E019
S1131AF04AE755E4688579858A859B850E94481B59
S1131B00DC01CB018A8F9B8FAC8FBD8F20E030E04E
S1131B1040E85FE36A8D7B8D8C8D9D8D0E94F51965
S1131B2088232CF481E090E09F8F8E8F3FC020E0CB
S1131B303FEF4FE757E46A8D7B8D8C8D9D8D0E941E
S1131B40441B18164CF520E030E040E251E468856F
S1131B5079858A859B850E94481BDC01CB01BC01E9
S1131B60CD010E94661ADC01CB019F8F8E8F0FC0BE
S1131B7080E991E099A388A388A199A10197F1F73D
S1131B8099A388A38E8D9F8D01979F8F8E8F8E8DA5
S1131B909F8D892B69F714C06A8D7B8D8C8D9D8DEB
S1131BA00E94661ADC01CB019F8F8E8F8E8D9F8DD4
S1131BB09BA38AA38AA19BA10197F1F79BA38AA364
S1131BC0AADB60E080E004DF8CE89AE0B4DE80EA1F
S1131BD09AE0B1DE8BEB9AE0AEDE8CEC9AE0ABDE01
S1131BE08AED9AE0A8DE8DEE9AE0A5DEC6DB80E001
S1131BF090E8ABE3B5E48C879D87AE87BF8720E090
S1131C0030E04AE755E46C857D858E859F850E948A
S1131C10481BDC01CB01888B998BAA8BBB8B20E002
S1131C2030E040E85FE3688979898A899B890E946A
S1131C30F51988232CF481E090E09D8B8C8B3FC0B8
S1131C4020E03FEF4FE757E4688979898A899B89C7
S1131C500E94441B18164CF520E030E040E251E4A9
S1131C606C857D858E859F850E94481BDC01CB0198
S1131C70BC01CD010E94661ADC01CB019D8B8C8BCB
S1131C800FC080E991E09F8B8E8B8E899F8901978D
S1131C90F1F79F8B8E8B8C899D8901979D8B8C8B03
S1131CA08C899D89892B69F714C0688979898A8907
S1131CB09B890E94661ADC01CB019D8B8C8B8C89DD
S1131CC09D89998F888F888D998D0197F1F7998FC8
S1131CD0888F21DB5FD00000A3960FB6F894DEBF97
S1131CE00FBECDBFDF91CF910895CF93DF9300D086
S1131CF01F92CDB7DEB789836A834B838981882F8E
S1131D0090E08730910541F08C30910539F00297CD
S1131D1009F039C03FD037C05DD035C0ADD080E2C6
S1131D2090E0FC01808188235CF081E080DA8B8183
S1131D3063E04EDE8EE1E3DC20DB80E078DA22C073
S1131D4080E290E0FC018081882F90E080749927E4
S1131D50892B59F481E06BDA8B8165E039DE8FE100
S1131D60CEDC0BDB80E063DA0DC080E060DA8B81CF
S1131D7063E02EDE8EE1C3DC8B8165E029DE8FE13A
S1131D80BEDCFBDA000000000F900F900F90DF9193
S1131D90CF910895CF93DF93CDB7DEB7BCDA60E07F
S1131DA080E016DE81E043DA8EEF9AE0C4DD80E065
S1131DB03EDA60E088E00CDE85E09BE0BCDD60E0BC
S1131DC08FE006DE8BE09BE0B6DDD7DA0000DF9122
S1131DD0CF9108950F93CF93DF93CDB7DEB79BDAFE
S1131DE060E080E0F5DD81E19BE0A5DD60E088E076
S1131DF0EFDD81E01CDA88E19BE09DDD80E017DA0D
S1131E0060E08FE0E5DD8EE19BE095DD67E084E155
S1131E10DFDD84E29BE08FDD62E080E0D9DD86E2F5
S1131E209BE089DD01E02CE348E76CE38CE0D1DB47
S1131E3001E02CE34CE06AE08CE0CBDB01E02AE03B
S1131E404CE06DE08AE0C5DB01E02AE04CE06DE0A7
S1131E508EE0BFDB01E02CE348E76AE385E7B9DB0A
S1131E6001E02CE348E76EE385E7B3DB86DA0000A4
S1131E70DF91CF910F910895CF93DF93CDB7DEB764
S1131E804ADA60E080E0A4DD88E29BE054DD60E0B3
S1131E9088E09EDD8FE29BE04EDD60E08FE098DD20
S1131EA081E0C5D985E39BE046DD80E0C0D964E0EC
S1131EB08AE08EDD8BE39BE03EDD0000DF91CF9175
S1131EC00895CF93DF93CDB7DEB780912E01909123
S1131ED02F0181709927892BC9F484E290E024E2D0
S1131EE030E0F9012081206AFC0120838CE490E039
S1131EF020E5FC0120838DE490E021E0FC012083B7
S1131F0081E090E090932F0180932E010000DF91F7
S1131F10CF910895CF93DF931F92CDB7DEB7898316
S1131F208EE490E02981FC01208300008DE490E0A0
S1131F30FC0180818823D4F700000F90DF91CF91BA
S1131F400895CF93DF93CDB7DEB787E290E027E221
S1131F5030E0F90120812C7FFC01208388E290E0AD
S1131F6028E230E0F90120812360FC01208388EB22
S1131F7090E023E0FC01208381EB90E027E0FC016A
S1131F80208380E790E022E0FC01208383EB90E053
S1131F902DE7FC01208378940000DF91CF91089510
S1131FA0CF93DF93CDB7DEB78AE0809330018CEB1B
S1131FB090E024EAFC012083000080913001882312
S1131FC031F08CEB90E0FC0180818823B4F78091A0
S1131FD03001882349F089EB90E0FC018081882F4F
S1131FE090E0887F992702C08FEF9FEFDF91CF9118
S1131FF00895CF93DF931F92CDB7DEB789838AE02C
S1132000809330018BEB90E02981FC0120838CEBE1
S113201090E024E8FC0120830000809130018823B3
S113202031F08CEB90E0FC0180818823B4F780913F
S11320303001882349F089EB90E0FC018081882FEE
S113204090E0887F992702C08FEF9FEF0F90DF9178
S1132050CF910895CF93DF931F92CDB7DEB78983D5
S11320608AE0809330018BEB90E02981FC0120838E
S11320708CEB90E024E8FC01208300008091300187
S1132080882331F08CEB90E0FC0180818823B4F745
S113209080913001882349F089EB90E0FC01808134
S11320A0882F90E0887F992702C08FEF9FEF0F90D1
S11320B0DF91CF910895CF93DF93CDB7DEB78AE058
S11320C0809330018CEB90E024E9FC012083000034
S11320D0DF91CF9108951F920F9200905F000F92AD
S11320E0112400905B000F922F933F938F939F9343
S11320F0EF93FF93CF93DF93CDB7DEB783EB90E0FD
S113210023EB30E0F90120812358FC0120838091E6
S11321103001882329F0809130018150809330016F
S11321200000DF91CF91FF91EF919F918F913F91AB
S11321302F910F9000925B000F9000925F000F9020
S11321401F901895CF93DF931F92CDB7DEB78FE51D
S113215090E0FC0180818983F89484EC90E027E688
S113216030E0FC013183208381EC90E028E9FC011C
S1132170208380EC90E020ECFC0120838FE590E04C
S11321802981FC01208340E162EB79E08AEA99E04D
S11321900E942D0640E46AE679E082E699E00E9416
S11321A02D0600000F90DF91CF910895CF93DF9318
S11321B000D0CDB7DEB78A836A8182E699E00E94B7
S11321C08606898381EC90E021EC30E0F9012081DE
S11321D02062FC01208389810F900F90DF91CF91C1
S11321E008951F920F9200905F000F9211240090A7
S11321F05B000F922F933F934F935F936F937F9363
S11322008F939F93AF93BF93EF93FF93CF93DF93FA
S1132210CDB7DEB786EC90E0FC018081682F8AEAB6
S113222099E00E9486060000DF91CF91FF91EF9123
S1132230BF91AF919F918F917F916F915F914F91DA
S11322403F912F910F9000925B000F9000925F00DE
S11322500F901F9018951F920F9200905F000F929D
S1132260112400905B000F920F931F932F933F93C1
S11322704F935F936F937F938F939F93AF93BF938A
S1132280EF93FF93CF93DF93CDB7DEB780916209CD
S1132290882349F006EC10E082E699E00E946C067F
S11322A0F801808309C081EC90E021EC30E0F90171
S11322B020812F7DFC0120830000DF91CF91FF91CD
S11322C0EF91BF91AF919F918F917F916F915F91AA
S11322D04F913F912F911F910F910F9000925B00AE
S11322E00F9000925F000F901F901895CF93DF938B
S11322F000D0CDB7DEB79A83898389819A81FC01A6
S1132300808154DF89819A819C012F5F3F4F3A83FA
S11323102983FC018081882381F700000F900F90AE
S1132320DF91CF910895CF93DF93CDB7DEB72C978C
S11323300FB6F894DEBF0FBECDBF9C878B878B850D
S11323409C854AE050E09E012F5F3F4FB9010E94F7
S1132350E61BCE010196CADF00002C960FB6F89456
S1132360DEBF0FBECDBFDF91CF9108951F920F92B4
S113237000905F000F9211248F939F93CF93DF936C
S1132380CDB7DEB781E090E09093320180933101C4
S11323900000DF91CF919F918F910F9000925F0089
S11323A00F901F9018951F920F9200905F000F924C
S11323B011248F93CF93DF93CDB7DEB781E0809361
S11323C02F030000DF91CF918F910F9000925F0057
S11323D00F901F9018951F920F9200905F000F921C
S11323E011248F93CF93DF93CDB7DEB781E0809331
S11323F038030000DF91CF918F910F9000925F001E
S11324000F901F9018951F920F9200905F000F92EB
S1132410112400905B000F922F933F938F939F930F
S1132420EF93FF93CF93DF93CDB7DEB780913A0359
S11324308F5F80933A0380915D0590915E050196CC
S113244090935E0580935D0580915D0590915E0596
S1132450883E934070F010925E0510925D0585E20F
S113246090E025E230E0F901308122E02327FC01ED
S113247020830000DF91CF91FF91EF919F918F9185
S11324803F912F910F9000925B000F9000925F009C
S11324900F901F9018958F929F92AF92BF92CF92F8
S11324A0DF92EF92FF920F931F93CF93DF93CDB7F9
S11324B0DEB764970FB6F894DEBF0FBECDBFF894B5
S11324C081E290E021E230E0F90120812770FC01F3
S11324D0208382E290E022E230E0F9012081286F3B
S11324E0FC0120838AE290E02AE230E0F9012081B5
S11324F02B7FFC0120838BE290E02BE230E0F9019A
S113250020812460FC01208384E290E02FE0FC0120
S1132510208385E290E025E230E0F90120812F60FC
S1132520FC01208388E690E028E630E0F901208170
S11325302160FC0120838BE690E02BE630E0F9017A
S11325402081286FFC01208381E890E021E0FC01D8
S1132550208381E890E02DEFFC01208381E890E066
S113256024E0FC0120838FE690E020E2FC0120833C
S11325700E9432090E948B0969DA789481D49CD430
S1132580E1DD87E690E098878F838AE290E09A877E
S113259089871C861B861E861D86188A1F861A8AB2
S11325A0198A1C8A1B8AE0903003F0903103009151
S11325B03203109133032091590530915A0540910B
S11325C05B0550915C0588EE93E0DC010E94CD1B15
S11325D0DC01CB01A8019701281B390B4A0B5B0BCB
S11325E0DA01C901883E9340A105B105E8F0809164
S11325F0590590915A05A0915B05B0915C0501962F
S1132600A11DB11D8093590590935A05A0935B05B4
S1132610B0935C0585E290E025E230E0F901308179
S113262021E02327FC01208389E290E0FC018081E2
S1132630882F90E08470992721E0892B09F020E00D
S1132640822F80930E0180913803882321F4809196
S11326500E018130A9F580910501909106019C013C
S113266040E050E08091340390913503A09136030B
S1132670B0913703280F391F4A1F5B1F8091300325
S113268090913103A0913203B09133032817390795
S11326904A075B0718F481E0809339038091300383
S11326A090913103A0913203B091330380933403AA
S11326B090933503A0933603B093370310923803F5
S11326C080913903882309F419C285E290E025E258
S11326D030E0F901308128E02327FC012083809138
S11326E0400390914103A0914203B091430380932E
S11326F03C0390933D03A0933E03B0933F0380912A
S1132700440390914503A0914603B09147038093FD
S1132710400390934103A0934203B09343038091F9
S1132720480390914903A0914A03B0914B038093CD
S1132730440390934503A0934603B09347038091C9
S11327404C0390914D03A0914E03B0914F0380939D
S1132750480390934903A0934A03B0934B03809199
S1132760300390913103A0913203B09133038093ED
S11327704C0390934D03A0934E03B0934F0381E019
S113278080935003809152038093510380915303AB
S113279080935203809154038093530320914C03FC
S11327A030914D0340914E0350914F038091480363
S11327B090914903A0914A03B0914B03281739071C
S11327C04A075B0709F44EC0809107019091080104
S11327D0CC01A0E0B0E0BC01CD01A4D66B017C012A
S11327E080914C0390914D03A0914E03B0914F03FF
S11327F0BC01CD0197D64B015C01809148039091B7
S11328004903A0914A03B0914B03BC01CD018AD680
S1132810DC01CB019C01AD01C501B40181D5DC0112
S1132820CB019C01AD01C701B601E3D5DC01CB01AD
S11328306C017D0180910901882F90E0A0E0B0E057
S1132840BC01CD016FD6DC01CB0111E09C01AD01CF
S1132850C701B60119D788230CF410E0812F8093A7
S1132860540302C01092540380915003882309F446
S113287033C180915103882309F42EC180915203FE
S1132880882309F429C180915303882309F424C1BE
S113289080915403882309F41FC120914803309187
S11328A0490340914A0350914B0380914003909116
S11328B04103A0914203B091430379018A01E81ACC
S11328C0F90A0A0B1B0BD801C701BC01CD012AD69A
S11328D0DC01CB018093490590934A05A0934B05F5
S11328E0B0934C0580E191E001DD80914905909120
S11328F04A05A0914B05B0914C05BC01CD01E1D531
S1132900DC01CB0110DD8091070190910801CC011D
S1132910A0E0B0E0BC01CD0105D6DC01CB0120E094
S113292030E04AEF54E4BC01CD01B2D6DC01CB0166
S11329305C016D0120914C0330914D0340914E0395
S113294050914F038091440390914503A091460315
S1132950B0914703281B390B4A0B5B0B81E090E0D5
S1132960A0E0B0E0BC01CD01F6D6DA01C9017C01DA
S11329708D012091440330914503409146035091C9
S1132980470380913C0390913D03A0913E03B09195
S11329903F03281B390B4A0B5B0B81E090E0A0E05E
S11329A0B0E0BC01CD01D7D6DA01C901E81AF90AB1
S11329B00A0B1B0B209148033091490340914A03B1
S11329C050914B038091400390914103A0914203A5
S11329D0B0914303281B390B4A0B5B0BC801B701A9
S11329E0BAD6DA01C901BC01CD019CD5DC01CB0109
S11329F09C01AD01C601B5014BD6DC01CB0180932E
S1132A004D0590934E05A0934F05B09350058091CA
S1132A100A0190910B01A0910C01B0910D01B058E5
S1132A202091490530914A0540914B0550914C0540
S1132A30BC01CD012DD6DC01CB017C018D0180913F
S1132A404D0590914E05A0914F05B09150059C0104
S1132A50AD01C801B7011CD6DC01CB01809351053F
S1132A6090935205A0935305B093540580913B0372
S1132A708823A1F0209151053091520540915305CE
S1132A80509154058091490590914A05A0914B05B8
S1132A90B0914C05BC01CD0130D22EC020914D0522
S1132AA030914E0540914F05509150058091490554
S1132AB090914A05A0914B05B0914C05BC01CD0104
S1132AC0CDD2DC01CB018093550590935605A0939C
S1132AD05705B093580510C01092490510924A0545
S1132AE010924B0510924C0510924D0510924E0514
S1132AF010924F05109250051092390380912F03C4
S1132B00813009F040C00F2EF7E3EF2EF1E0FF2EE5
S1132B10F02D06E311E025E331E044E051E063E306
S1132B2071E083E091E00E945B0780913501282FDA
S1132B3030E080913601882F90E0880F991FAC0116
S1132B40440F551F440F551F840F951F280F391F1D
S1132B5080913701482F50E064E6649FC001659F6F
S1132B60900D1124820F931F9093390180933801A3
S1132B70209104019091330180910301422F692F28
S1132B80B4D810922F0384E391E00E94D60580917B
S1132B903A01282F30E08F819885821793070CF033
S1132BA05AC01A82198217C089819A81880F991F85
S1132BB0855C9E4FFC012081318189819A81880F37
S1132BC0991F8B5C9D4FFC013183208389819A81FD
S1132BD001969A83898389819A818736910524F3A2
S1132BE081E090E09C838B831CC08B819C81880F47
S1132BF0991F855C9E4FFC01808191819C8B8B8BFE
S1132C008B819C8101972B893C89880F991F855C56
S1132C109E4FFC01318320838B819C8101969C8390
S1132C208B838B819C8189369105FCF280913A01DA
S1132C30815080933A0180913A01882F90E020914D
S1132C403401222F30E0880F991F855C9E4FFC01D0
S1132C50318320830FC080913A01882F90E0209126
S1132C603401222F30E0880F991F855C9E4FFC01B0
S1132C703183208380913A018F5F80933A01809160
S1132C800301882F90E08730910509F44AC08C3005
S1132C90910509F492C0029709F0ADC063E081E0A8
S1132CA00E94E80C81E49BE00E949B0C64E081E0BC
S1132CB00E94E80C82E59BE00E949B0C64E081E0AA
S1132CC00E94E80C8091490590914A05A0914B051A
S1132CD0B0914C05BC01CD01F4D3DC01CB016AE019
S1132CE00E94C50C64E088E00E94E80C8BE59BE040
S1132CF00E949B0C65E081E00E94E80C80E69BE06A
S1132D000E949B0C66E081E00E94E80C66E084E08F
S1132D100E94E80C8AE69BE00E949B0C0E94BD097D
S1132D206BC01E821D823CC08D819E81880F991FBD
S1132D30855C9E4FFC01808191812CE330E0790118
S1132D40E81AF90AC701988B8F878D819E810D96A9
S1132D509C878B878D819E81880F991F8B5C9D4FEB
S1132D60FC01808191812CE330E07901E81AF90AB1
S1132D70C7019A8B898B29899B858B8502E0492F12
S1132D806CE30E94E90A2F859B858B8501E0492F1E
S1132D906CE30E94E90A8D819E8101969E838D8356
S1132DA08D819E81873691050CF4BECF0E94BD09AA
S1132DB010923201109231011FC064E08BE00E9436
S1132DC0E80C809135016AE00E94C50C64E08AE059
S1132DD00E94E80C809136016AE00E94C50C64E010
S1132DE089E00E94E80C809137016AE00E94C50CDA
S1132DF00E94BD0901C0000080913A038823E1F3D9
S1132E0080913A03282F880F330B80915F059091AE
S1132E106005821793074CF480913A03082E000C46
S1132E20990B9093600580935F0566E081E00E94B2
S1132E30E80C80915F05909160056AE00E94C50CE2
S1132E400E94BD0980913A03282F880F330B440B4D
S1132E50550B8091300390913103A0913203B091CE
S1132E603303820F931FA41FB51F809330039093E5
S1132E703103A0933203B093330310923A0381CB0E
S1132E80CF93DF93CDB7DEB7F89489E690E029E6D7
S1132E9030E0F90120812160FC0120838DE390E082
S1132EA02DE330E0F90120812160FC012083789436
S1132EB00000DF91CF910895CF93DF93CDB7DEB7B4
S1132EC0F89485E490E025E430E0F9012081236062
S1132ED0FC01208387E490E02AEFFC0120838EE646
S1132EE090E02EE630E0F90120812260FC0120838D
S1132EF078940000DF91CF910895CF93DF93CDB7FD
S1132F00DEB72A970FB6F894DEBF0FBECDBF6B8332
S1132F107C838D839E832F83388749875A871982C0
S1132F201A8220E030E040E951E46B817C818D819C
S1132F309E81AED3DC01CB018B839C83AD83BE83A6
S1132F4020E030E04FE753E46B817C818D819E81EA
S1132F509BD3181644F480E090E0AFE7B3E48B838E
S1132F609C83AD83BE8320E030E0A9016B817C812A
S1132F708D819E813AD2882324F41B821C821D8277
S1132F801E826B817C818D819E819BD2DC01CB0171
S1132F90898320E030E040E05FE36F8178858985B4
S1132FA09A8576D3DC01CB018F839887A987BA876A
S1132FB020E030E0A9016F81788589859A8515D252
S1132FC0882324F41F82188619861A8620E030E0AC
S1132FD04FE753E46F81788589859A8555D3181610
S1132FE044F480E090E0AFE7B3E48F839887A98747
S1132FF0BA876F81788589859A8563D2DC01CB0194
S11330008A8380910F0199819817F0F4809161056A
S1133010882F90E08B5A9C4F2981FC01208380915A
S11330206105882F90E0815B9B4F2A81FC012083FE
S1133030898180930F01809161058A3F28F48091F2
S113304061058F5F8093610500002A960FB6F8949E
S1133050DEBF0FBECDBFDF91CF9108958F929F92B7
S1133060AF92BF92CF92DF92EF92FF92CF93DF9312
S1133070CDB7DEB766970FB6F894DEBF0FBECDBFEF
S11330806F87788B898B9A8B2B8B3C8B4D8B5E8BCC
S11330901E821F821886198619821A821B821C823C
S11330A01A861B861C861D861E861D8226E636E62B
S11330B046E650E46F85788989899A89E9D2DC01EA
S11330C0CB0120E030E040EA50E4BC01CD01E0D285
S11330D0DC01CB01BC01CD01F4D1DC01CB018E8735
S11330E003C08D818F5F8D838D81882F90E08B5AF3
S11330F09C4FFC0190818E85891798F38D81882FD0
S113310090E08B5A9C4FFC0190818E859817A9F40E
S11331108D81882F90E0815B9B4FFC018081882FFB
S113312090E0A0E0B0E0BC01CD01FCD1DC01CB011A
S113313089839A83AB83BC83AFC08D81882F90E051
S11331400197815B9B4FFC018081882F90E0A0E078
S1133150B0E0BC01CD01E6D16B017C018D81882FEB
S113316090E0815B9B4FFC018081882F90E0A0E080
S1133170B0E0BC01CD01D6D1DC01CB019C01AD0195
S1133180C701B601CDD0DC01CB016C017D018D817D
S1133190882F90E001978B5A9C4FFC018081882FE7
S11331A090E0A0E0B0E0BC01CD01BCD14B015C01DA
S11331B08D81882F90E08B5A9C4FFC018081882F51
S11331C090E0A0E0B0E0BC01CD01ACD1DC01CB01CA
S11331D09C01AD01C501B401A3D0DC01CB019C016C
S11331E0AD01C701B60105D1DC01CB016C017D0144
S11331F08E85882F90E0A0E0B0E0BC01CD0192D193
S11332004B015C018D81882F90E08B5A9C4FFC010F
S11332108081882F90E0A0E0B0E0BC01CD0182D194
S1133220DC01CB019C01AD01C501B40179D0DC0105
S1133230CB019C01AD01C701B6012AD2DC01CB014F
S11332406C017D018D81882F90E0815B9B4FFC0197
S11332508081882F90E0A0E0B0E0BC01CD0162D174
S1133260DC01CB019C01AD01C701B6015AD0DC01E0
S1133270CB0189839A83AB83BC8389819A81AB8197
S1133280BC819C01AD01BC01CD014BD0DC01CB0163
S113329089839A83AB83BC8380910A0190910B014B
S11332A0A0910C01B0910D012F85388949895A8963
S11332B0BC01CD01EDD1DC01CB012B893C894D89C9
S11332C05E89BC01CD01E4D1DC01CB018A879B87F7
S11332D0AC87BD872A853B854C855D8569817A816C
S11332E08B819C811ED0DC01CB018E839F83A887B8
S11332F0B9878E819F81A885B985BC01CD01669669
S11333000FB6F894DEBF0FBECDBFDF91CF91FF9013
S1133310EF90DF90CF90BF90AF909F908F900895E3
S11333205058BB27AA270ED075C166D130F06BD197
S113333020F031F49F3F11F41EF45BC10EF4E095CC
S1133340E7FB51C1E92F77D180F3BA1762077307FE
S11333508407950718F071F49EF58FC10EF4E0957B
S11333600B2EBA2FA02D0B01B90190010C01CA013B
S1133370A0011124FF27591B99F0593F50F4503EE6
S113338068F11A16F040A22F232F342F4427585FD8
S1133390F3CF469537952795A795F0405395C9F7F0
S11333A07EF41F16BA0B620B730B840BBAF09150A8
S11333B0A1F0FF0FBB1F661F771F881FC2F70EC047
S11333C0BA0F621F731F841F48F48795779567951A
S11333D0B795F7959E3F08F0B3CF9395880F08F003
S11333E09927EE0F979587950895D9D008F481E031
S11333F008950CD00FC107D140F0FED030F021F475
S11334005F3F19F0F0C0511139C1F3C014D198F3E2
S11334109923C9F35523B1F3951B550BBB27AA2751
S113342062177307840738F09F5F5F4F220F331FC3
S1133430441FAA1FA9F333D00E2E3AF0E0E830D08F
S113344091505040E695001CCAF729D0FE2F27D092
S1133450660F771F881FBB1F261737074807AB0760
S1133460B0E809F0BB0B802DBF01FF2793585F4FD5
S11334702AF09E3F510568F0B6C000C15F3FECF3EF
S1133480983EDCF3869577956795B795F7959F5F9A
S1133490C9F7880F911D9695879597F90895E1E0EE
S11334A0660F771F881FBB1F621773078407BA074D
S11334B020F0621B730B840BBA0BEE1F88F7E095A8
S11334C0089504D06894B111D9C00895BCD088F08F
S11334D09F5790F0B92F9927B751A0F0D1F0660FFC
S11334E0771F881F991F1AF0BA95C9F712C0B13017
S11334F081F0C3D0B1E00895C0C0672F782F88272A
S1133500B85F39F0B93FCCF3869577956795B39555
S1133510D9F73EF490958095709561957F4F8F4FC4
S11335209F4F0895E89409C097FB3EF490958095C9
S1133530709561957F4F8F4F9F4F9923A9F0F92F75
S113354096E9BB279395F695879577956795B795F3
S1133550F111F8CFFAF4BB0F11F460FF1BC06F5FD9
S11335607F4F8F4F9F4F16C0882311F096E911C0EB
S1133570772321F09EE8872F762F05C0662371F00C
S113358096E8862F70E060E02AF09A95660F771F20
S1133590881FDAF7880F9695879597F90895990FFC
S11335A00008550FAA0BE0E8FEEF16161706E80709
S11335B0F907C0F012161306E407F50798F0621B2A
S11335C0730B840B950B39F40A2661F0232B242BFF
S11335D0252B21F408950A2609F4A140A6958FEF1E
S11335E0811D811D089597F99F6780E870E060E070
S11335F008959FEF80EC089500240A941616170688
S113360018060906089500240A94121613061406CF
S113361005060895092E0394000C11F4882352F032
S1133620BB0F40F4BF2B11F460FF04C06F5F7F4FEA
S11336308F4F9F4F089557FD9058440F551F59F0D1
S11336405F3F71F04795880F97FB991F61F09F3F8B
S113365079F087950895121613061406551FF2CFB4
S11336604695F1DF08C0161617061806991FF1CF04
S113367086957105610508940895E894BB2766272B
S11336807727CB0197F908958ADF08F48FEF08951F
S11336900BD0C0CFB1DF28F0B6DF18F0952309F0C6
S11336A0A2CFA7CF1124EACFC6DFA0F3959FD1F311
S11336B0950F50E0551F629FF001729FBB27F00DDC
S11336C0B11D639FAA27F00DB11DAA1F649F662731
S11336D0B00DA11D661F829F2227B00DA11D621F80
S11336E0739FB00DA11D621F839FA00D611D221F3A
S11336F0749F3327A00D611D231F849F600D211D1E
S1133700822F762F6A2F11249F5750408AF0E1F0C0
S113371088234AF0EE0FFF1FBB1F661F771F881F09
S113372091505040A9F79E3F510570F05CCFA6CF51
S11337305F3FECF3983EDCF3869577956795B795F4
S1133740F795E7959F5FC1F7FE2B880F911D96951E
S1133750879597F90895A1E21A2EAA1BBB1BFD01B8
S11337600DC0AA1FBB1FEE1FFF1FA217B307E4075C
S1133770F50720F0A21BB30BE40BF50B661F771FB4
S1133780881F991F1A9469F7609570958095909594
S11337909B01AC01BD01CF01089509D0A59F900DF7
S11337A0B49F900DA49F800D911D11240895A29F94
S11337B0B001B39FC001A39F700D811D1124911D01
S11337C0B29F700D811D1124911D0895453251053C
S11337D018F4423008F004C0FB011082CB010895B4
S11337E0BB274A3031F4992322F4BDE290958195A8
S11337F09F4F01C0BB27FB015527AA27880F991F9C
S1133800AA1FA41710F0A41B83955051B9F7A05D0B
S1133810AA3308F0A95DA193009779F7B111B19388
S11338201192CB0100C0DC01FC01672F7191772359
S1133830E1F7329704C07C916D9370836291AE1767
S10D3840BF07C8F30895F894FFCF02
S113384A0B0206020B3200A708010000A042FFFF88
S113385A0A0D73706565645F63757272656E743A96
S107386A200A0D001F
S9030000FC
