S0160000444D4D5F50726F6A656B745F30342E737265632F
S1130000B0C50000CDC50000CBC50000C9C50000C7
S11300100C94BB0FC5C50000C3C50000C1C50000DA
S1130020BFC500000C94670FBBC50000B9C5000034
S1130030B7C50000B5C50000B3C500000C949E0F01
S1130040AFC50000ADC50000ABC50000A9C50000E8
S1130050A7C50000A5C50000A3C50000A1C50000F8
S11300609FC500009DC500009BC5000099C5000008
S113007097C5000095C5000093C5000091C5000018
S11300808FC500008DC500008BC500000000000076
S11300900000003E4551453E003E6B6F6B3E001C28
S11300A03E7C3E1C00183C7E3C180030367F3630C7
S11300B000185C7E5C1800000000000000000000D6
S11300C000000000000000000000000000000030FC
S11300D0484A360E0006297929060000000000006F
S11300E000607E0A353F002A1C361C2A00007F3E31
S11300F01C0800081C3E7F000014367F36140000E4
S11301005F005F000006097F017F00224D555922E0
S11301100060606060000014B6FFB6140004067F3F
S113012006040010307F30100008083E1C08000848
S11301301C3E080800784040404000083E083E0845
S113014000303C3F3C3000030F3F0F030000000031
S113015000000000065F06000007030007030024F8
S11301607E247E2400242B6A120000631308646337
S113017000364956205000000703000000003E41AD
S113018000000000413E000000083E1C3E0800083C
S1130190083E08080000E06000000008080808089D
S11301A0000060600000002010080402003E514975
S11301B0453E0000427F400000625149494600220A
S11301C049494936001814127F10002F4949493112
S11301D0003C4A4949300001710905030036494988
S11301E0493600064949291E00006C6C00000000D5
S11301F0EC6C000000081422410000242424242470
S1130200000041221408000201590906003E415D24
S1130210551E007E1111117E007F49494936003E6A
S113022041414122007F4141413E007F49494941CA
S1130230007F09090901003E4149497A007F080805
S1130240087F0000417F410000304040403F007F74
S113025008142241007F40404040007F0204027F96
S1130260007F0204087F003E4141413E007F0909AE
S11302700906003E4151215E007F090919660026E6
S1130280494949320001017F0101003F4040403F9C
S1130290001F2040201F003F403C403F00631408E3
S11302A01463000708700807007149454300000003
S11302B07F414100000204081020000041417F00FA
S11302C00004020102048080808080800000030713
S11302D00000002054545478007F444444380038CB
S11302E04444442800384444447F00385454540857
S11302F000087E0909000018A4A4A47C007F04045B
S113030078000000007D4000004080847D00007F74
S1130310102844000000007F4000007C041804788A
S1130320007C0404780000384444443800FC44440D
S113033044380038444444FC004478440408000829
S11303405454542000043E442400003C40207C00CB
S1130350001C2040201C003C6030603C006C1010ED
S11303606C00009CA0603C00006454544C000008E5
S11303703E414100000000770000000041413E087A
S1130380000201020100003C2623263C001EA1E1DC
S11303902112003D40207D000038545455090020AE
S11303A055555578002055545578002055555478A6
S11303B0002057555778001CA2E2221400385555E6
S11303C05508003855545508003855555408000050
S11303D0017C41000000017D41000000017C4000DF
S11303E000702924297000782F252F78007C54541C
S11303F055450034547C5458007E097F49490038DF
S11304004545390000384544390000394544380031
S1130410003C41217D00003D41207C00009CA16006
S11304203D00003D42423D00003C41403D008070A3
S11304306858380400483E494962007E615D433F84
S11304400022140814220040887E0902002054551A
S113045055780000007D4100003844453900003CD7
S113046040217D00007A090A7100007A1122790086
S113047000085555555E004E51514E000030484D10
S113048040203E415D4B553E04040404041C001707
S1130490084C6A50001708342A780000307D300078
S11304A0000814000814001408001408441144112E
S11304B04411AA55AA55AA55BBEEBBEEBBEE0000EB
S11304C000FF0000080808FF0000007028252970BC
S11304D00070292529700070292528703E415D553A
S11304E0413E0AFB00FF000000FF00FF00000AFA83
S11304F002FE00000A0B080F000000182466240006
S113050000292A7C2A29080808F800000000000FA6
S113051008080808080F0808080808F80808000070
S113052000FF0808080808080808080808FF080861
S113053000205655567900702A252A71000F080BA1
S11305400A0A00FE02FA0A0A0A0B080B0A0A0AFA45
S113055002FA0A0A00FF00FB0A0A0A0A0A0A0A0A3D
S11305600AFB00FB0A0A005D2222225D0022555983
S1130570300000087F49413E007C55555544007CBD
S113058055545544007C5555544400000007000060
S11305900000447D45000000457D45000000457C89
S11305A045000808080F0000000000F80808FFFFD5
S11305B0FFFFFFFFF0F0F0F0F0F000000077000024
S11305C00000457D44000F0F0F0F0F0F003C424306
S11305D03D0000FE4A4A3400003C43433D00003DD8
S11305E043423C000032494A3100003A4546390052
S11305F000FC20201C0000FEAA28100000FFA524F7
S11306001800003C40413D00003C41413D00003D9C
S113061041403C00009CA0613D00000408710904B5
S113062000000202020000000703000000000808A6
S113063008000000242E2400002424242424051768
S11306400A342A780006097F017F00224D55592279
S11306500008082A080800000818180000060909FC
S11306600600000008000800000008000000000266
S11306700F00000000090F05000000090D0A00002A
S1130680003C3C3C3C000000000000000000000076
S11306900000000000000000000000000000000056
S11306A00000000000000000000000000000000046
S11306B00000000000000000000000000000000036
S11306C00000000000000000000000000000000026
S11306D00000000000000000000000000000000016
S11306E00000000000000000000000000000000006
S11306F000000000000000000000000000000000F6
S113070000000000000000000000000000000000E5
S113071000000000000000000000000000000000D5
S113072000000000000000000000000000000000C5
S113073000000000000000000000000000000000B5
S113074000000000000000000000000000000000A5
S1130750000000000000000002020206060E0E0E59
S11307601E1E1E3EFEFEFEFEFCFCFCFCFCFCFCFC15
S1130770FCFCF8F8F8F000000000000000000000A5
S11307800000000000000000000000000000000065
S11307900000000000000000000000000000000055
S11307A00000000000000000000000000000000045
S11307B0000000000000000000000080C0E0E0E055
S11307C0E0E0C080000080C0C0E0E0E0E0C0C0C065
S11307D0C0C0C0808080000002070F1F3F3F7F7FA2
S11307E0FEFEFCF8F0E1C18383030303070707035C
S11307F003030301010000000000000000000000EA
S113080000000000000000000000000000000000E4
S11308100000000000000000000000000000008054
S11308208080C0C0C0C0C0C0C0C0E0E0E0C0C0C0E4
S1130830C0C0C0C080808000000000071FFFFFFF11
S1130840FFFFFFFFFFFC800101030303030707070A
S113085007078FCFEFFFFFFFFFFE7E7C3C00000009
S11308600000010101030383838787874646464CC2
S11308704C4C4848484848404080808080000000F4
S11308800000000000000000000000000000000064
S113089000000080C0E0F0F8FCFCFEFEFFFFFFFF5C
S11308A0FFFFFFFFFFFFFFFFFFFFFFFFFFFFFFFF54
S11308B0FFFFFFFFFFFFFFFFFFFEFCF8F0C0030F89
S11308C03F7FFFFFFFFFFFC0000000406030381C87
S11308D01E0F0F070703030101000080E0603018BA
S11308E00C0C0602030101010000000000000000DE
S11308F000000000000000000000000001010302ED
S1130900060C38F0C00000000000000000000000E9
S113091000003EFFFFFFFFFFFFFFFFFFFFFFFFFFA2
S1130920FFFFFFFFFFFFFFFFFFFFFFFFFFFFFFFFD3
S1130930FFFFFFFFFFFFFFFFFFFF7F3F0F030000ED
S11309400000030F1F7FFFFF800000000000000075
S113095000000000000000000018FFFF81000000FC
S11309600000000000000000000000000000000083
S113097000000000000000000000000000000080F3
S1130980C0703C1F070000000000000000000000D1
S113099000000000010303070F0F0F1F1F1F1F3F5D
S11309A03F3F3F3F3F3F3F3F3F3F3F1F1F1F1F0F03
S11309B00F0F0707070303010000000000000000F9
S11309C000000000000001030F0000000000000010
S11309D00000000000000000000000010307060CF6
S11309E00818101030202020202020202020202033
S11309F0202020201010101808080C0406030301FE
S1130A0000000000000000000000000000000000E2
S1130A1000000000000000000000000000000000D2
S1130A2000000000000000000000000000000000C2
S1130A3000000000000000000000000000000000B2
S1130A4000000000000000000000000000000000A2
S1130A500000000000000000000000000000000092
S1130A600000000000000000000000000000000082
S1130A700000000000000000000000000000000072
S1130A80000000000000000000000000444D4D2D57
S1130A9050726F6A656B74204E722E34200D0A00FA
S1130AA0476573636877696E6469676B65697473B6
S1130AB061626861656E672E0D0A0046616872772F
S1130AC0696465727374616E640D0A005465696CBF
S1130AD06E65686D65723A0D0A004E696B6C6173E0
S1130AE0204B7568726D657965720D0A00506869EE
S1130AF06C697070204C65696665720D0A004C6FF4
S1130B0067676572004B75727665004D6173736536
S1130B10004C6F67676572004B75727665004D61B6
S1130B2073736500760050004C6F67676572004B05
S1130B3075727665004D6173736500696E206B672D
S1130B4000476573636877696E6469676B65697488
S1130B503A006D2F73004C65697374756E673A00C3
S1130B60570011241FBECFEFD0E4DEBFCDBF11E08C
S1130B70A0E0B1E0E6ECF5E200E00BBF02C00790B4
S1130B800D92A630B107D9F727E0A6E0B1E001C085
S1130B901D92A231B207E1F70E94D30F0C94E11227
S1130BA02FCACF93DF9300D0CDB7DEB79A83898362
S1130BB0809106018E3188F480910701882369F4BD
S1130BC0809106018F5F80930601809106018E312A
S1130BD0B9F481E08093070113C080910601882352
S1130BE079F080910701813059F480910601815098
S1130BF08093060180910601882311F41092070165
S1130C002091060189819A81FC01208300000F90C4
S1130C100F90DF91CF910895CF93DF93CDB7DEB7D7
S1130C2084E290E024E230E0F90120812061FC01BB
S1130C30208385E290E025E230E0F9012081206103
S1130C40FC0120830E945D0E0000DF91CF91089586
S1130C50EF92FF920F931F93CF93DF93CDB7DEB73D
S1130C606E970FB6F894DEBF0FBECDBF9C8B8B8BF7
S1130C707E8B6D8B588F4F8B3A8F298F1C8F0B8FE8
S1130C80FE8EED8E82E089838CE08A8389E08B83FB
S1130C901C8280E290E0FC018081882F90E08870C3
S1130CA09927892BC1F4809108018823A1F481E05C
S1130CB080930801809100018A3030F08091000116
S1130CC081508093000107C0809100018A3018F49C
S1130CD08BE08093000180E290E0FC018081882F0A
S1130CE090E080729927892B91F490910101898178
S1130CF0891768F480910801882349F480910101DF
S1130D0085508093010181E080930801B9C080E29D
S1130D1090E0FC018081882F90E080719927892BD5
S1130D2091F4909101018A81981768F480910801E7
S1130D30882349F4809101018B5F8093010181E054
S1130D40809308019DC080E290E0FC0180818823AB
S1130D500CF43DC0909102018B819817C0F58091ED
S1130D6008018823A1F580910001882F90E08A3042
S1130D70910581F08B30910519F00997A9F023C0F2
S1130D80809109018930D0F4809109018F5F8093AB
S1130D90090114C080910A01893090F480910A01FC
S1130DA08F5F80930A010CC080910B01893050F44D
S1130DB080910B018F5F80930B0104C0000003C07E
S1130DC0000001C0000081E08093080159C080E266
S1130DD090E0FC018081882F90E080749927892B12
S1130DE009F03DC0909102018C818917C0F5809172
S1130DF008018823A1F580910001882F90E08A30B2
S1130E00910581F08B30910519F00997A9F023C061
S1130E10809109018823D1F0809109018150809348
S1130E20090114C080910A01882391F080910A017C
S1130E30815080930A010CC080910B01882351F0EA
S1130E4080910B01815080930B0104C0000003C00A
S1130E50000001C0000081E08093080111C080E21D
S1130E6090E0FC018081882F90E0887F9927883F5B
S1130E70910531F480910801813011F41092080138
S1130E8080E090E0A0E2B1E48D839E83AF83B887D5
S1130E9020E030E04AE755E46D817E818F819885BA
S1130EA00E941912DC01CB0189879A87AB87BC8722
S1130EB020E030E040E85FE369857A858B859C8596
S1130EC00E94981188232CF481E090E09E878D87FE
S1130ED03FC020E03FEF4FE757E469857A858B8573
S1130EE09C850E94151218164CF520E030E040E273
S1130EF051E46D817E818F8198850E941912DC01F5
S1130F00CB01BC01CD010E949C11DC01CB019E8769
S1130F108D870FC080E991E0988B8F878F859889A2
S1130F200197F1F7988B8F878D859E8501979E8712
S1130F308D878D859E85892B69F714C069857A858F
S1130F408B859C850E949C11DC01CB019E878D873B
S1130F508D859E859A8B898B89899A890197F1F76A
S1130F609A8B898B209101018B899C89FC012083B8
S1130F70209102018D899E89FC012083209100012A
S1130F808F89988DFC01208320910901898D9A8D88
S1130F90FC01208320910A018B8D9C8DFC01208310
S1130FA020910B018D8D9E8DFC01208300006E9697
S1130FB00FB6F894DEBF0FBECDBFDF91CF911F9166
S1130FC00F91FF90EF900895CF93DF931F92CDB7C9
S1130FD0DEB78983898180930F0100000F90DF9130
S1130FE0CF910895CF93DF931F92CDB7DEB7898356
S1130FF089818CD600000F90DF91CF910895CF9313
S1131000DF931F92CDB7DEB758D687E290E027E290
S113101030E0F9012081206CFC0120838FE590E011
S1131020FC0180818983F89488E290E028E230E032
S1131030F90120812F77FC01208388E290E028E2E7
S113104030E0F90120812F7BFC01208382EECADF8E
S113105083EAC8DF81E8C6DF88E0C4DF80EAC2DF54
S113106088ECC0DF85E2BEDF8FE2BCDF8FEABADF47
S113107088E290E028E230E0F90120812064FC015C
S1131080208388E290E028E230E0F90120812068A2
S1131090FC0120830DD08FE590E02981FC012083A1
S11310A04CD67BD3B9DD00000F90DF91CF9108952A
S11310B0CF93DF9300D0CDB7DEB719821A821A829C
S11310C01CC0198214C08A81282F30E08981882F9E
S11310D090E03695322F222737952795820F931F5C
S11310E08E5E9C4FFC01108289818F5F8983898188
S11310F088234CF78A818F5F8A838A81883008F33A
S11311008FEF80930C0106D000000F900F90DF91B9
S1131110CF910895CF93DF9300D01F92CDB7DEB760
S113112087E089838FE590E0FC0180818B83F894CC
S113113080910C01882F90E02981022E000C330B42
S113114002C0959587952A95E2F781709927892B96
S113115009F446C088E290E028E230E0F9012081F9
S11311602F7BFC01208388E290E028E230E0F90143
S113117020812F77FC0120838981806B33DF80E11C
S113118031DF80E02FDF88E290E028E230E0F901EF
S113119020812068FC0120831A8216C08981282FAF
S11311A0880F330B8A81882F90E03695322F2227BF
S11311B037952795820F931F8E5E9C4FFC0180818B
S11311C011DF8A818F5F8A838A8188233CF788E2D2
S11311D090E028E230E0F90120812064FC012083C2
S11311E08981982F91509983882309F0A1CF109277
S11311F00C018FE590E02B81FC01208300000F900F
S11312000F900F90DF91CF910895CF93DF9300D08B
S113121000D01F92CDB7DEB78B836C834D838B8157
S113122088230CF4A0C08C81803408F09CC08C818D
S113123086958695869589838C81882F90E09C017C
S11312402770332781E090E002C0880F991F2A9508
S1131250E2F78A838D81882F90E0009719F0029736
S113126041F14CC08981282F30E08B81882F90E098
S11312704981642F70E04B81442F50E07695762F9E
S1131280662777956795460F571F4E5E5C4FFA01A8
S11312904081542F4A81409545233695322F222789
S11312A037952795820F931F8E5E9C4FFC014083D8
S11312B04AC08981282F30E08B81882F90E04981B2
S11312C0642F70E04B81442F50E07695762F66278B
S11312D077956795460F571F4E5E5C4FFA01508114
S11312E04A8145273695322F222737952795820F35
S11312F0931F8E5E9C4FFC01408325C08981282F5B
S113130030E08B81882F90E04981642F70E04B811D
S1131310442F50E07695762F662777956795460F8C
S1131320571F4E5E5C4FFA0150814A81452B36951A
S1131330322F222737952795820F931F8E5E9C4F5D
S1131340FC01408300008981282F30E081E090E097
S113135002C0880F991F2A95E2F7982F80910C01FB
S1131360892B80930C0100000F900F900F900F9029
S11313700F90DF91CF9108950F93CF93DF93CDB763
S1131380DEB72B970FB6F894DEBF0FBECDBF8F83A9
S1131390688749872A870B878985282F30E08F81C2
S11313A0882F90E0A901481B590BCA0199231CF40A
S11313B09195819591098A838A85282F30E08885C3
S11313C0882F90E0A901481B590BCA0199231CF4EA
S11313D09195819591098B839F818985981710F444
S11313E081E001C08FEF8C8398858A85981710F46B
S11313F081E001C08FEF8D839A818B81891734F44A
S11314008A8188230CF48F5F85950CC08B81082E0C
S1131410000C990B91958195910999230CF40196EF
S11314209595879589834B8568858F81EEDE9F81AD
S11314308985981721F498858A85981739F18981C7
S11314408E838E81282F880F330B8A81082E000CFF
S1131450990B9195819591098217930754F4998179
S11314608B81592F581B852F89838C819F81890FEC
S11314708F839E818B819817B4F699818A81890F15
S113148089838D819885890F8887CDCF00000000DE
S11314902B960FB6F894DEBF0FBECDBFDF91CF9170
S11314A00F910895CF93DF93CDB7DEB729970FB689
S11314B0F894DEBF0FBECDBF89878985882F90E061
S11314C08A30910529F00D9771F410920D01D9C05D
S11314D080910E01873008F0D1C080910E018F5F9A
S11314E080930E01CBC080910F01882309F060C066
S11314F019823EC080910E01682F70E080910D0129
S1131500282F30E0C901880F991F820F931F880F7D
S1131510991F9C018981882F90E0A901480F591FC8
S11315208985282F30E08981E82FF0E0C901880FF0
S1131530991F820F931F880F991F8E0F9F1F845727
S11315409F4F9C838B838B819C81FC0184918D8331
S11315502D81CB019695982F882797958795840F91
S1131560951F8E5E9C4FFC01208389818F5F898348
S11315708981863008F4BECF80910E01282F30E097
S113158081E090E002C0880F991F2A95E2F7982F16
S113159080910C01892B80930C0180910D01843181
S11315A008F06EC080910D018F5F80930D0168C0BB
S11315B080910F01813009F063C01A8240C080918C
S11315C00E01682F70E080910D01282F30E0C901D1
S11315D0880F991F820F931F880F991F9C018A817E
S11315E0882F90E0A901480F591F8985282F30E0E2
S11315F08A81E82FF0E0C901880F991F820F931F99
S1131600880F991F8E0F9F1F84579F4F9F838E8330
S11316108E819F81FC01849188878885282F20955D
S1131620CB019695982F882797958795840F951FBA
S11316308E5E9C4FFC0120838A818F5F8A838A811E
S1131640863008F4BCCF80910E01282F30E081E071
S113165090E002C0880F991F2A95E2F7982F809195
S11316600C01892B80930C0180910D01843140F48D
S113167080910D018F5F80930D0102C0000001C0B5
S11316800000000029960FB6F894DEBF0FBECDBF50
S1131690DF91CF910895CF93DF9300D0CDB7DEB71C
S11316A09A83898389819A81FC018081882381F0CE
S11316B089819A81FC018081F5DE89819A81019674
S11316C09A83898389819A81FC018081882381F7A7
S11316D000000F900F90DF91CF910895CF93DF9387
S11316E000D000D000D0CDB7DEB79E838D838D812E
S11316F09E819A83898389819A81FC0184918B8359
S11317008B818C838D819E8101969E838D838C81B8
S1131710882319F08C81C6DEEACF000000002696EB
S11317200FB6F894DEBF0FBECDBFDF91CF91089501
S1131730CF93DF9300D000D000D0CDB7DEB78D8338
S11317406E838E81282F30E08D81882F90E0A9014F
S11317509E012F5F3F4FB901F7D6CE0101969BDF63
S1131760000026960FB6F894DEBF0FBECDBFDF9102
S1131770CF910895CF93DF9300D0CDB7DEB789839F
S11317806A83898180930D018A8180930E01000010
S11317900F900F90DF91CF910895CF93DF93CDB742
S11317A0DEB7FAD284EC21D381E150D380E04ED36A
S11317B080E04CD380E04AD380E048D380E046D335
S11317C076D30000DF91CF910895CF93DF931F92DA
S11317D0CDB7DEB78983E0D284EC07D385E136D375
S11317E0898134D364D300000F90DF91CF910895A1
S11317F0CF93DF93CDB7DEB7A3970FB6F894DEBFD0
S11318000FBECDBF1A8219821B821C8285E1DDDFE7
S11318104FDC1C822EC01B8226C08C81482F50E0D6
S11318208B81282F30E089819A81BC016F5F7F4FC3
S11318307A8369838457994F9E838D838D819E819A
S1131840FC0184918F836F81CA019695982F882714
S113185097958795820F931F8E5E9C4FFC01608342
S11318608B818F5F8B838B818823BCF68C818F5F08
S11318708C838C81883078F28FEF80930C014ADC62
S113188080E090E8ABE3B5E488879987AA87BB87B3
S113189020E030E04AE755E4688579858A859B85B0
S11318A0C8D5DC01CB018A8F9B8FAC8FBD8F20E024
S11318B030E040E85FE36A8D7B8D8C8D9D8D38D55B
S11318C088232CF481E090E09F8F8E8F3BC020E032
S11318D03FEF4FE757E46A8D7B8D8C8D9D8DA5D5A9
S11318E018163CF520E030E040E251E46885798543
S11318F08A859B859ED5DC01CB01BC01CD011CD51D
S1131900DC01CB019F8F8E8F0FC080E991E099A3FA
S113191088A388A199A10197F1F799A388A38E8D33
S11319209F8D01979F8F8E8F8E8D9F8D892B69F749
S113193013C06A8D7B8D8C8D9D8DFED4DC01CB0113
S11319409F8F8E8F8E8D9F8D9BA38AA38AA19BA12F
S11319500197F1F79BA38AA3ABDB60E080E00ADF89
S11319608CE89AE0BBDE80EA9AE0B8DE8BEB9AE082
S1131970B5DE8CEC9AE0B2DE8AED9AE0AFDE8DEE55
S11319809AE0ACDEC7DB80E090E8ABE3B5E48C879B
S11319909D87AE87BF8720E030E04AE755E46C8539
S11319A07D858E859F8545D5DC01CB01888B998B00
S11319B0AA8BBB8B20E030E040E85FE3688979893B
S11319C08A899B89B5D488232CF481E090E09D8B8F
S11319D08C8B3BC020E03FEF4FE757E4688979895F
S11319E08A899B8922D518163CF520E030E040E234
S11319F051E46C857D858E859F851BD5DC01CB01EB
S1131A00BC01CD0199D4DC01CB019D8B8C8B0FC023
S1131A1080E991E09F8B8E8B8E899F890197F1F7E6
S1131A209F8B8E8B8C899D8901979D8B8C8B8C8948
S1131A309D89892B69F713C0688979898A899B896B
S1131A407BD4DC01CB019D8B8C8B8C899D89998FF8
S1131A50888F888D998D0197F1F7998F888F28DB6E
S1131A605FD00000A3960FB6F894DEBF0FBECDBFC3
S1131A70DF91CF910895CF93DF9300D01F92CDB71C
S1131A80DEB789836A834B838981882F90E087300E
S1131A90910541F08C30910539F0029709F039C075
S1131AA03FD037C06FD035C0D1D080E290E0FC0188
S1131AB0808188235CF081E087DA8B8163E05ADEE1
S1131AC08EE1F0DC27DB80E07FDA22C080E290E068
S1131AD0FC018081882F90E080749927892B59F428
S1131AE081E072DA8B8165E045DE8FE1DBDC12DBBD
S1131AF080E06ADA0DC080E067DA8B8163E03ADE69
S1131B008EE1D0DC8B8165E035DE8FE1CBDC02DB5E
S1131B10000000000F900F900F90DF91CF91089577
S1131B20CF93DF93CDB7DEB785E290E025E230E0D6
S1131B30F90120812E7FFC01208385E290E025E2DB
S1131B4030E0F90120812260FC012083B1DA60E0F9
S1131B5080E010DE81E038DA8EEF9AE0BFDD80E0CD
S1131B6033DA60E088E006DE85E09BE0B7DD60E024
S1131B708FE000DE8BE09BE0B1DDCCDA0000DF918A
S1131B80CF9108950F93CF93DF93CDB7DEB785E25E
S1131B9090E025E230E0F90120812D7FFC012083D3
S1131BA085E290E025E230E0F90120812560FC0126
S1131BB020837EDA60E080E0DDDD81E19BE08EDD84
S1131BC060E088E0D7DD81E0FFD988E19BE086DD35
S1131BD080E0FAD960E08FE0CDDD8EE19BE07EDD30
S1131BE067E084E1C7DD84E29BE078DD62E080E0C9
S1131BF0C1DD86E29BE072DD01E02CE348E76CE3A3
S1131C008CE0BADB01E02CE34CE06AE08CE0B4DB6E
S1131C1001E02AE04CE06DE08AE0AEDB01E02AE07E
S1131C204CE06DE08EE0A8DB01E02CE348E76AE3DA
S1131C3085E7A2DB01E02CE348E76EE385E79CDB64
S1131C4069DA0000DF91CF910F910895CF93DF936C
S1131C50CDB7DEB785E290E025E230E0F9012081DE
S1131C602B7FFC01208385E290E025E230E0F9013E
S1131C7020812260FC0120831BDA60E080E07ADDB1
S1131C8088E29BE02BDD60E088E074DD8FE29BE07E
S1131C9025DD60E08FE06EDD81E096D985E39BE091
S1131CA01DDD80E091D964E08AE064DD8BE39BE094
S1131CB015DD0000DF91CF910895CF93DF93CDB769
S1131CC0DEB7809110019091110181709927892BC1
S1131CD0C9F484E290E024E230E0F9012081206A32
S1131CE0FC0120838CE490E020E5FC0120838DE45A
S1131CF090E021E0FC01208381E090E090931101C9
S1131D00809310010000DF91CF910895CF93DF936A
S1131D101F92CDB7DEB789838EE490E02981FC0160
S1131D20208300008DE490E0FC0180818823D4F7B7
S1131D3000000F90DF91CF910895CF93DF93CDB73B
S1131D40DEB787E290E027E230E0F90120812C7FC2
S1131D50FC01208388E290E028E230E0F901208150
S1131D602360FC01208388EB90E023E0FC012083C6
S1131D7081EB90E027E0FC01208380E790E022E003
S1131D80FC01208383EB90E02DE7FC012083789411
S1131D900000DF91CF910895CF93DF93CDB7DEB7E5
S1131DA08AE0809312018CEB90E024EAFC0120830A
S1131DB0000080911201882331F08CEB90E0FC014B
S1131DC080818823B4F780911201882349F089EB3C
S1131DD090E0FC018081882F90E0887F992702C0E1
S1131DE08FEF9FEFDF91CF910895CF93DF931F92F1
S1131DF0CDB7DEB789838AE0809312018BEB90E044
S1131E002981FC0120838CEB90E024E8FC012083F1
S1131E10000080911201882331F08CEB90E0FC01EA
S1131E2080818823B4F780911201882349F089EBDB
S1131E3090E0FC018081882F90E0887F992702C080
S1131E408FEF9FEF0F90DF91CF910895CF93DF93A2
S1131E501F92CDB7DEB789838AE0809312018BEBA2
S1131E6090E02981FC0120838CEB90E024E8FC01C4
S1131E702083000080911201882331F08CEB90E0E4
S1131E80FC0180818823B4F780911201882349F0F2
S1131E9089EB90E0FC018081882F90E0887F99276E
S1131EA002C08FEF9FEF0F90DF91CF910895CF93F2
S1131EB0DF93CDB7DEB78AE0809312018CEB90E01C
S1131EC024E9FC0120830000DF91CF9108951F9243
S1131ED00F9200905F000F92112400905B000F920C
S1131EE02F933F938F939F93EF93FF93CF93DF931E
S1131EF0CDB7DEB783EB90E023EB30E0F90120812E
S1131F002358FC01208380911201882329F08091B9
S1131F1012018150809312010000DF91CF91FF9153
S1131F20EF919F918F913F912F910F9000925B00C1
S1131F300F9000925F000F901F9018951F920F92C0
S1131F4000905F000F9211248F939F93CF93DF93A0
S1131F50CDB7DEB781E090E0909314018093130134
S1131F600000DF91CF919F918F910F9000925F00BD
S1131F700F901F9018951F920F9200905F000F9280
S1131F8011248F93CF93DF93CDB7DEB781E0809395
S1131F9011030000DF91CF918F910F9000925F00A9
S1131FA00F901F901895EF92FF920F931F93CF936A
S1131FB0DF93CDB7DEB764970FB6F894DEBF0FBEDC
S1131FC0CDBFF89481E290E021E230E0F901208174
S1131FD02770FC01208382E290E022E230E0F901E4
S1131FE02081286FFC01208384E290E02FE0FC0133
S1131FF0208385E290E025E230E0F90120812F6022
S1132000FC01208388E690E028E630E0F901208195
S11320102160FC0120838BE690E02BE630E0F9019F
S11320202081286FFC01208381E890E021E0FC01FD
S1132030208381E890E02DEFFC01208381E890E08B
S113204024E0FC0120838FE690E020E2FC01208361
S11320500E94FF072DD8CCDB789487E690E0988720
S11320608F838AE290E09A8789871C861B861E8666
S11320701D86188A1F861A8A198A1C8A1B8A8091CF
S11320801103813009F040C00F2EF9E1EF2EF1E089
S1132090FF2EF02D08E111E027E131E044E051E0AA
S11320A065E171E083E091E00E94280680911701C8
S11320B0282F30E080911801882F90E0880F991F15
S11320C0AC01440F551F440F551F840F951F280F53
S11320D0391F80911901482F50E064E6649FC001C4
S11320E0659F900D1124820F931F90931B01809381
S11320F01A01209104019091150180910301422F4E
S1132100692FB9DC1092110386E191E00E94D10598
S113211080911C01282F30E08F81988582179307C6
S11321200CF05AC01A82198217C089819A81880FCB
S1132130991F835E9E4FFC012081318189819A81A0
S1132140880F991F895E9D4FFC013183208389810B
S11321509A8101969A83898389819A818736910528
S113216024F381E090E09C838B831CC08B819C8151
S1132170880F991F835E9E4FFC01808191819C8B07
S11321808B8B8B819C8101972B893C89880F991FAC
S1132190835E9E4FFC01318320838B819C81019659
S11321A09C838B838B819C8189369105FCF2809181
S11321B01C01815080931C0180911C01882F90E0A8
S11321C020911601222F30E0880F991F835E9E4FC5
S11321D0FC01318320830FC080911C01882F90E083
S11321E020911601222F30E0880F991F835E9E4FA5
S11321F0FC013183208380911C018F5F80931C013B
S113220080910301882F90E08730910571F18C3023
S1132210910509F474C0029709F089C063E081E074
S1132220A9DA81E49BE05ADA64E081E0A3DA62E0AF
S113223081E07EDA64E084E09DDA82E59BE04EDAB8
S113224065E081E097DA86E59BE048DA66E081E0C4
S113225091DA6AE082E06CDA66E084E08BDA80E6A8
S11322609BE03CDA0E948A0862C01E821D823AC04A
S11322708D819E81880F991F835E9E4FFC01808112
S113228091812CE330E0A901481B590BCA01988BBA
S11322908F878D819E810D969C878B878D819E81F2
S11322A0880F991F895E9D4FFC01808191812CE3E9
S11322B030E0A901481B590BCA019A8B898B2989E3
S11322C09B858B8502E0492F6CE356D82F859B852F
S11322D08B8501E0492F6CE34FD88D819E81019657
S11322E09E838D838D819E81873691050CF4C0CFAA
S11322F00E948A08109214011092130118C064E01D
S11323008BE038DA809117016AE012DA64E08AE03F
S113231031DA809118016AE00BDA64E089E02ADAA4
S1132320809119016AE004DA0E948A08000095CEBF
S11323302FD008F481E0089557D088F09F5790F08B
S1132340B92F9927B751A0F0D1F0660F771F881FD6
S1132350991F1AF0BA95C9F712C0B13081F05ED056
S1132360B1E008955BC0672F782F8827B85F39F0F4
S1132370B93FCCF3869577956795B395D9F73EF435
S113238090958095709561957F4F8F4F9F4F0895DD
S1132390990F0008550FAA0BE0E8FEEF1616170672
S11323A0E807F907C0F012161306E407F50798F0DA
S11323B0621B730B840B950B39F40A2661F0232BF3
S11323C0242B252B21F408950A2609F4A140A6956F
S11323D08FEF811D811D089557FD9058440F551F9F
S11323E059F05F3F71F04795880F97FB991F61F093
S11323F09F3F79F087950895121613061406551F0A
S1132400F2CF4695F1DF08C0161617061806991F75
S1132410F1CF86957105610508940895E894BB276A
S113242066277727CB0197F90895B2DF08F48FEF79
S113243008950BD078C069D028F06ED018F0952399
S113244009F05AC05FC01124EACFC6DFA0F3959FFC
S1132450D1F3950F50E0551F629FF001729FBB2787
S1132460F00DB11D639FAA27F00DB11DAA1F649F33
S11324706627B00DA11D661F829F2227B00DA11DE6
S1132480621F739FB00DA11D621F839FA00D611D6C
S1132490221F749F3327A00D611D231F849F600D8D
S11324A0211D822F762F6A2F11249F5750408AF0C6
S11324B0E1F088234AF0EE0FFF1FBB1F661F771F52
S11324C0881F91505040A9F79E3F510570F014C0E9
S11324D0A6CF5F3FECF3983EDCF38695779567953E
S11324E0B795F795E7959F5FC1F7FE2B880F911D70
S11324F09695879597F9089597F99F6780E870E016
S113250060E008959FEF80EC089500240A94161665
S1132510170618060906089500240A9412161306CD
S1132520140605060895092E0394000C11F488235B
S113253052F0BB0F40F4BF2B11F460FF04C06F5F77
S11325407F4F8F4F9F4F08954532510518F4423005
S113255008F004C0FB011082CB010895BB274A3068
S113256031F4992322F4BDE2909581959F4F01C0E7
S1132570BB27FB015527AA27880F991FAA1FA41759
S113258010F0A41B83955051B9F7A05DAA3308F04D
S1132590A95DA193009779F7B111B1931192CB0181
S11325A000C0DC01FC01672F71917723E1F73297BA
S11325B004C07C916D9370836291AE17BF07C8F31A
S10925C00895F894FFCF1A
S10925C60B0206020B00EB
S9030000FC
