S0160000444D4D5F50726F6A656B745F30342E737265632F
S1130000B3C500000C94AD0FCEC50000CCC50000F4
S11300100C94950FC8C50000C6C50000C4C50000F7
S1130020C2C500000C94410FBEC50000BCC5000051
S1130030BAC50000B8C50000B6C500000C94780F1E
S11300400C94C50FB0C50000AEC50000ACC50000DF
S1130050AAC50000A8C50000A6C50000A4C50000EC
S1130060A2C50000A0C500009EC500009CC50000FC
S11300709AC5000098C5000096C5000094C500000C
S113008092C5000090C500008EC50000000000006D
S11300900000003E4551453E003E6B6F6B3E001C28
S11300A03E7C3E1C00183C7E3C180030367F3630C7
S11300B000185C7E5C1800000000000000000000D6
S11300C000000000000000000000000000000030FC
S11300D0484A360E0006297929060000000000006F
S11300E000607E0A353F002A1C361C2A00007F3E31
S11300F01C0800081C3E7F000014367F36140000E4
S11301005F005F000006097F017F00224D555922E0
S11301100060606060000014B6FFB6140004067F3F
S113012006040010307F30100008083E1C08000848
S11301301C3E080800784040404000083E083E0845
S113014000303C3F3C3000030F3F0F030000000031
S113015000000000065F06000007030007030024F8
S11301607E247E2400242B6A120000631308646337
S113017000364956205000000703000000003E41AD
S113018000000000413E000000083E1C3E0800083C
S1130190083E08080000E06000000008080808089D
S11301A0000060600000002010080402003E514975
S11301B0453E0000427F400000625149494600220A
S11301C049494936001814127F10002F4949493112
S11301D0003C4A4949300001710905030036494988
S11301E0493600064949291E00006C6C00000000D5
S11301F0EC6C000000081422410000242424242470
S1130200000041221408000201590906003E415D24
S1130210551E007E1111117E007F49494936003E6A
S113022041414122007F4141413E007F49494941CA
S1130230007F09090901003E4149497A007F080805
S1130240087F0000417F410000304040403F007F74
S113025008142241007F40404040007F0204027F96
S1130260007F0204087F003E4141413E007F0909AE
S11302700906003E4151215E007F090919660026E6
S1130280494949320001017F0101003F4040403F9C
S1130290001F2040201F003F403C403F00631408E3
S11302A01463000708700807007149454300000003
S11302B07F414100000204081020000041417F00FA
S11302C00004020102048080808080800000030713
S11302D00000002054545478007F444444380038CB
S11302E04444442800384444447F00385454540857
S11302F000087E0909000018A4A4A47C007F04045B
S113030078000000007D4000004080847D00007F74
S1130310102844000000007F4000007C041804788A
S1130320007C0404780000384444443800FC44440D
S113033044380038444444FC004478440408000829
S11303405454542000043E442400003C40207C00CB
S1130350001C2040201C003C6030603C006C1010ED
S11303606C00009CA0603C00006454544C000008E5
S11303703E414100000000770000000041413E087A
S1130380000201020100003C2623263C001EA1E1DC
S11303902112003D40207D000038545455090020AE
S11303A055555578002055545578002055555478A6
S11303B0002057555778001CA2E2221400385555E6
S11303C05508003855545508003855555408000050
S11303D0017C41000000017D41000000017C4000DF
S11303E000702924297000782F252F78007C54541C
S11303F055450034547C5458007E097F49490038DF
S11304004545390000384544390000394544380031
S1130410003C41217D00003D41207C00009CA16006
S11304203D00003D42423D00003C41403D008070A3
S11304306858380400483E494962007E615D433F84
S11304400022140814220040887E0902002054551A
S113045055780000007D4100003844453900003CD7
S113046040217D00007A090A7100007A1122790086
S113047000085555555E004E51514E000030484D10
S113048040203E415D4B553E04040404041C001707
S1130490084C6A50001708342A780000307D300078
S11304A0000814000814001408001408441144112E
S11304B04411AA55AA55AA55BBEEBBEEBBEE0000EB
S11304C000FF0000080808FF0000007028252970BC
S11304D00070292529700070292528703E415D553A
S11304E0413E0AFB00FF000000FF00FF00000AFA83
S11304F002FE00000A0B080F000000182466240006
S113050000292A7C2A29080808F800000000000FA6
S113051008080808080F0808080808F80808000070
S113052000FF0808080808080808080808FF080861
S113053000205655567900702A252A71000F080BA1
S11305400A0A00FE02FA0A0A0A0B080B0A0A0AFA45
S113055002FA0A0A00FF00FB0A0A0A0A0A0A0A0A3D
S11305600AFB00FB0A0A005D2222225D0022555983
S1130570300000087F49413E007C55555544007CBD
S113058055545544007C5555544400000007000060
S11305900000447D45000000457D45000000457C89
S11305A045000808080F0000000000F80808FFFFD5
S11305B0FFFFFFFFF0F0F0F0F0F000000077000024
S11305C00000457D44000F0F0F0F0F0F003C424306
S11305D03D0000FE4A4A3400003C43433D00003DD8
S11305E043423C000032494A3100003A4546390052
S11305F000FC20201C0000FEAA28100000FFA524F7
S11306001800003C40413D00003C41413D00003D9C
S113061041403C00009CA0613D00000408710904B5
S113062000000202020000000703000000000808A6
S113063008000000242E2400002424242424051768
S11306400A342A780006097F017F00224D55592279
S11306500008082A080800000818180000060909FC
S11306600600000008000800000008000000000266
S11306700F00000000090F05000000090D0A00002A
S1130680003C3C3C3C000000000000000000000076
S11306900000000000000000000000000000000056
S11306A00000000000000000000000000000000046
S11306B00000000000000000000000000000000036
S11306C00000000000000000000000000000000026
S11306D00000000000000000000000000000000016
S11306E00000000000000000000000000000000006
S11306F000000000000000000000000000000000F6
S113070000000000000000000000000000000000E5
S113071000000000000000000000000000000000D5
S113072000000000000000000000000000000000C5
S113073000000000000000000000000000000000B5
S113074000000000000000000000000000000000A5
S1130750000000000000000002020206060E0E0E59
S11307601E1E1E3EFEFEFEFEFCFCFCFCFCFCFCFC15
S1130770FCFCF8F8F8F000000000000000000000A5
S11307800000000000000000000000000000000065
S11307900000000000000000000000000000000055
S11307A00000000000000000000000000000000045
S11307B0000000000000000000000080C0E0E0E055
S11307C0E0E0C080000080C0C0E0E0E0E0C0C0C065
S11307D0C0C0C0808080000002070F1F3F3F7F7FA2
S11307E0FEFEFCF8F0E1C18383030303070707035C
S11307F003030301010000000000000000000000EA
S113080000000000000000000000000000000000E4
S11308100000000000000000000000000000008054
S11308208080C0C0C0C0C0C0C0C0E0E0E0C0C0C0E4
S1130830C0C0C0C080808000000000071FFFFFFF11
S1130840FFFFFFFFFFFC800101030303030707070A
S113085007078FCFEFFFFFFFFFFE7E7C3C00000009
S11308600000010101030383838787874646464CC2
S11308704C4C4848484848404080808080000000F4
S11308800000000000000000000000000000000064
S113089000000080C0E0F0F8FCFCFEFEFFFFFFFF5C
S11308A0FFFFFFFFFFFFFFFFFFFFFFFFFFFFFFFF54
S11308B0FFFFFFFFFFFFFFFFFFFEFCF8F0C0030F89
S11308C03F7FFFFFFFFFFFC0000000406030381C87
S11308D01E0F0F070703030101000080E0603018BA
S11308E00C0C0602030101010000000000000000DE
S11308F000000000000000000000000001010302ED
S1130900060C38F0C00000000000000000000000E9
S113091000003EFFFFFFFFFFFFFFFFFFFFFFFFFFA2
S1130920FFFFFFFFFFFFFFFFFFFFFFFFFFFFFFFFD3
S1130930FFFFFFFFFFFFFFFFFFFF7F3F0F030000ED
S11309400000030F1F7FFFFF800000000000000075
S113095000000000000000000018FFFF81000000FC
S11309600000000000000000000000000000000083
S113097000000000000000000000000000000080F3
S1130980C0703C1F070000000000000000000000D1
S113099000000000010303070F0F0F1F1F1F1F3F5D
S11309A03F3F3F3F3F3F3F3F3F3F3F1F1F1F1F0F03
S11309B00F0F0707070303010000000000000000F9
S11309C000000000000001030F0000000000000010
S11309D00000000000000000000000010307060CF6
S11309E00818101030202020202020202020202033
S11309F0202020201010101808080C0406030301FE
S1130A0000000000000000000000000000000000E2
S1130A1000000000000000000000000000000000D2
S1130A2000000000000000000000000000000000C2
S1130A3000000000000000000000000000000000B2
S1130A4000000000000000000000000000000000A2
S1130A500000000000000000000000000000000092
S1130A600000000000000000000000000000000082
S1130A700000000000000000000000000000000072
S1130A80000000000000000000000000444D4D2D57
S1130A9050726F6A656B74204E722E34200D0A00FA
S1130AA0476573636877696E6469676B65697473B6
S1130AB061626861656E672E0D0A0046616872772F
S1130AC0696465727374616E640D0A005465696CBF
S1130AD06E65686D65723A0D0A004E696B6C6173E0
S1130AE0204B7568726D657965720D0A00506869EE
S1130AF06C697070204C65696665720D0A004C6FF4
S1130B0067676572004B75727665004D6173736536
S1130B10004C6F67676572004B75727665004D61B6
S1130B2073736500760050004C6F67676572004B05
S1130B3075727665004D6173736500696E206B672D
S1130B4000476573636877696E6469676B65697488
S1130B503A00202020006B6D2F68004C6569737487
S1130B60756E673A0057000011241FBECFEFD0E422
S1130B70DEBFCDBF11E0A0E0B1E0E2E2F3E300E0CC
S1130B800BBF02C007900D92A031B107D9F729E03D
S1130B90A0E1B1E001C01D92AA34B207E1F70E94BE
S1130BA0DF0F0C948F192CCACF93DF9300D0CDB7ED
S1130BB0DEB79A838983809110018E3188F4809105
S1130BC01101882369F4809110018F5F80931001D3
S1130BD0809110018E31B9F481E08093110113C02A
S1130BE080911001882379F080911101813059F4AA
S1130BF0809110018150809310018091100188230D
S1130C0011F4109211012091100189819A81FC0143
S1130C10208300000F900F90DF91CF910895CF9320
S1130C20DF93CDB7DEB784E290E024E230E0F9014F
S1130C3020812061FC01208385E290E025E230E000
S1130C40F90120812061FC0120830E94370E0000FD
S1130C50DF91CF910895EF92FF920F931F93CF935B
S1130C60DF93CDB7DEB76E970FB6F894DEBF0FBE35
S1130C70CDBF9C8B8B8B7E8B6D8B588F4F8B3A8F1C
S1130C80298F1C8F0B8FFE8EED8E82E089838CE082
S1130C908A8389E08B831C8280E290E0FC0180815E
S1130CA0882F90E088709927892BC1F480911201D4
S1130CB08823A1F481E080931201809100018A309D
S1130CC030F08091000181508093000107C0809131
S1130CD000018A3018F48BE08093000180E290E0F8
S1130CE0FC018081882F90E080729927892B91F4F0
S1130CF0909101018981891768F4809112018823F8
S1130D0049F48091010185508093010181E0809331
S1130D101201B9C080E290E0FC018081882F90E04C
S1130D2080719927892B91F4909101018A819817F8
S1130D3068F480911201882349F4809101018B5F4A
S1130D408093010181E0809312019DC080E290E0D4
S1130D50FC01808188230CF43DC0909102018B81B9
S1130D609817C0F5809112018823A1F580910001A4
S1130D70882F90E08A30910581F08B30910519F02D
S1130D800997A9F023C0809113018930D0F4809190
S1130D9013018F5F8093130114C080911401893073
S1130DA090F4809114018F5F809314010CC08091A2
S1130DB01501893050F4809115018F5F80931501DE
S1130DC004C0000003C0000001C0000081E0809363
S1130DD0120159C080E290E0FC018081882F90E0EC
S1130DE080749927892B09F03DC0909102018C8170
S1130DF08917C0F5809112018823A1F58091000123
S1130E00882F90E08A30910581F08B30910519F09C
S1130E100997A9F023C0809113018823D1F0809110
S1130E20130181508093130114C08091140188230D
S1130E3091F0809114018150809314010CC0809131
S1130E401501882351F0809115018150809315017B
S1130E5004C0000003C0000001C0000081E08093D2
S1130E60120111C080E290E0FC018081882F90E0A3
S1130E70887F9927883F910531F480911201813050
S1130E8011F41092120180E090E0A0E2B1E48D83AD
S1130E909E83AF83B88720E030E04AE755E46D8154
S1130EA07E818F8198850E94A518DC01CB018987FA
S1130EB09A87AB87BC8720E030E040E85FE3698530
S1130EC07A858B859C850E94521788232CF481E0B7
S1130ED090E09E878D873FC020E03FEF4FE757E4C7
S1130EE069857A858B859C850E94A11818164CF516
S1130EF020E030E040E251E46D817E818F8198856D
S1130F000E94A518DC01CB01BC01CD010E94C317CE
S1130F10DC01CB019E878D870FC080E991E0988B1F
S1130F208F878F8598890197F1F7988B8F878D85A7
S1130F309E8501979E878D878D859E85892B69F770
S1130F4014C069857A858B859C850E94C317DC0152
S1130F50CB019E878D878D859E859A8B898B898908
S1130F609A890197F1F79A8B898B209101018B89DA
S1130F709C89FC012083209102018D899E89FC01BA
S1130F802083209100018F89988DFC01208320917A
S1130F901301898D9A8DFC012083209114018B8D7E
S1130FA09C8DFC012083209115018D8D9E8DFC016B
S1130FB0208300006E960FB6F894DEBF0FBECDBF3F
S1130FC0DF91CF911F910F91FF90EF900895CF93F0
S1130FD0DF931F92CDB7DEB789838981809319018E
S1130FE000000F90DF91CF910895CF93DF931F926C
S1130FF0CDB7DEB78983898163D600000F90DF9176
S1131000CF910895CF93DF931F92CDB7DEB72FD63C
S113101087E290E027E230E0F9012081206CFC01B6
S113102020838FE590E0FC0180818983F89488E235
S113103090E028E230E0F90120812F77FC01208341
S113104088E290E028E230E0F90120812F7BFC0166
S1131050208382EECADF83EAC8DF81E8C6DF88E046
S1131060C4DF80EAC2DF88ECC0DF85E2BEDF8FE246
S1131070BCDF8FEABADF88E290E028E230E0F901D1
S113108020812064FC01208388E290E028E230E0A3
S1131090F90120812068FC0120830DD08FE590E0C8
S11310A02981FC01208323D67CD3B9DD00000F9075
S11310B0DF91CF910895CF93DF9300D0CDB7DEB702
S11310C019821A821A821CC0198214C08A81282F9C
S11310D030E08981882F90E03695322F222737958A
S11310E02795820F931F865B9A4FFC01108289819A
S11310F08F5F8983898188234CF78A818F5F8A83F4
S11311008A81883008F38FEF8093160106D000009F
S11311100F900F90DF91CF910895CF93DF9300D07C
S11311201F92CDB7DEB787E089838FE590E0FC019D
S113113080818B83F89480911601882F90E0298117
S1131140022E000C330B02C0959587952A95E2F781
S113115081709927892B09F446C088E290E028E23F
S113116030E0F90120812F7BFC01208388E290E0AC
S113117028E230E0F90120812F77FC012083898166
S1131180806B33DF80E131DF80E02FDF88E290E0A5
S113119028E230E0F90120812068FC0120831A82D2
S11311A016C08981282F880F330B8A81882F90E0FD
S11311B03695322F222737952795820F931F865B0A
S11311C09A4FFC01808111DF8A818F5F8A838A8133
S11311D088233CF788E290E028E230E0F90120819E
S11311E02064FC0120838981982F9150998388235E
S11311F009F0A1CF109216018FE590E02B81FC013C
S1131200208300000F900F900F90DF91CF910895ED
S1131210CF93DF9300D000D01F92CDB7DEB78B837E
S11312206C834D838B8188230CF4A0C08C81803423
S113123008F09CC08C8186958695869589838C81DF
S1131240882F90E09C012770332781E090E002C052
S1131250880F991F2A95E2F78A838D81882F90E061
S1131260009719F0029741F14CC08981282F30E092
S11312708B81882F90E04981642F70E04B81442F4B
S113128050E07695762F662777956795460F571F1A
S1131290465B5A4FFA014081542F4A8140954523B9
S11312A03695322F222737952795820F931F865B19
S11312B09A4FFC0140834AC08981282F30E08B81FA
S11312C0882F90E04981642F70E04B81442F50E0D7
S11312D07695762F662777956795460F571F465B59
S11312E05A4FFA0150814A8145273695322F2227D9
S11312F037952795820F931F865B9A4FFC01408395
S113130025C08981282F30E08B81882F90E0498186
S1131310642F70E04B81442F50E07695762F66273A
S113132077956795460F571F465B5A4FFA015081D0
S11313304A81452B3695322F222737952795820FE0
S1131340931F865B9A4FFC01408300008981282FFC
S113135030E081E090E002C0880F991F2A95E2F7FF
S1131360982F80911601892B8093160100000F900D
S11313700F900F900F900F90DF91CF9108950F93DE
S1131380CF93DF93CDB7DEB72B970FB6F894DEBFBC
S11313900FBECDBF8F83688749872A870B878985CE
S11313A0282F30E08F81882F90E0A901481B590B2A
S11313B0CA0199231CF49195819591098A838A85A0
S11313C0282F30E08885882F90E0A901481B590B0D
S11313D0CA0199231CF49195819591098B839F816E
S11313E08985981710F481E001C08FEF8C8398856C
S11313F08A85981710F481E001C08FEF8D839A815C
S11314008B81891734F48A8188230CF48F5F859546
S11314100CC08B81082E000C990B91958195910934
S113142099230CF401969595879589834B85688556
S11314308F81EEDE9F818985981721F498858A85AE
S1131440981739F189818E838E81282F880F330B69
S11314508A81082E000C990B919581959109821728
S1131460930754F499818B81592F581B852F8983B5
S11314708C819F81890F8F839E818B819817B4F60D
S113148099818A81890F89838D819885890F8887BD
S1131490CDCF000000002B960FB6F894DEBF0FBE30
S11314A0CDBFDF91CF910F910895CF93DF93CDB747
S11314B0DEB729970FB6F894DEBF0FBECDBF89877C
S11314C08985882F90E08A30910529F00D9771F471
S11314D010921701D9C080911801873008F0D1C04B
S11314E0809118018F5F80931801CBC080911901FE
S11314F0882309F060C019823EC080911801682FCA
S113150070E080911701282F30E0C901880F991FDE
S1131510820F931F880F991F9C018981882F90E067
S1131520A901480F591F8985282F30E08981E82FA8
S1131530F0E0C901880F991F820F931F880F991F2C
S11315408E0F9F1F84579F4F9C838B838B819C811D
S1131550FC0184918D832D81CB019695982F88274A
S113156097958795840F951F865B9A4FFC0120837E
S113157089818F5F89838981863008F4BECF809109
S11315801801282F30E081E090E002C0880F991FF5
S11315902A95E2F7982F80911601892B80931601E2
S11315A080911701843108F06EC0809117018F5F1C
S11315B08093170168C080911901813009F063C0DC
S11315C01A8240C080911801682F70E08091170141
S11315D0282F30E0C901880F991F820F931F880FAD
S11315E0991F9C018A81882F90E0A901480F591FF7
S11315F08985282F30E08A81E82FF0E0C901880F1F
S1131600991F820F931F880F991F8E0F9F1F845756
S11316109F4F9F838E838E819F81FC018491888755
S11316208885282F2095CB019695982F8827979504
S11316308795840F951F865B9A4FFC0120838A81CE
S11316408F5F8A838A81863008F4BCCF8091180129
S1131650282F30E081E090E002C0880F991F2A957E
S1131660E2F7982F80911601892B809316018091BF
S11316701701843140F4809117018F5F8093170123
S113168002C0000001C00000000029960FB6F894C3
S1131690DEBF0FBECDBFDF91CF910895CF93DF930F
S11316A000D0CDB7DEB79A83898389819A81FC0102
S11316B08081882381F089819A81FC018081F5DE13
S11316C089819A8101969A83898389819A81FC010F
S11316D08081882381F700000F900F90DF91CF91D4
S11316E00895CF93DF9300D000D000D0CDB7DEB7FC
S11316F09E838D838D819E819A83898389819A813A
S1131700FC0184918B838B818C838D819E810196D6
S11317109E838D838C81882319F08C81C6DEEACF69
S11317200000000026960FB6F894DEBF0FBECDBFB2
S1131730DF91CF910895CF93DF9300D000D000D0F4
S1131740CDB7DEB78D836E838E81282F30E08D81F7
S1131750882F90E0A9019E012F5F3F4FB9010E949D
S11317605219CE0101969ADF000026960FB6F8941E
S1131770DEBF0FBECDBFDF91CF910895CF93DF932E
S113178000D0CDB7DEB789836A838981809317013E
S11317908A818093180100000F900F90DF91CF9100
S11317A00895CF93DF93CDB7DEB7D0D284ECF7D2D0
S11317B081E126D380E024D380E022D380E020D3CB
S11317C080E01ED380E01CD34CD30000DF91CF9186
S11317D00895CF93DF931F92CDB7DEB78983B6D236
S11317E084ECDDD285E10CD389810AD33AD300009D
S11317F00F90DF91CF910895CF93DF93CDB7DEB7EC
S1131800A3970FB6F894DEBF0FBECDBF1A8219821C
S11318101B821C8285E1DDDF4EDC1C822EC01B8214
S113182026C08C81482F50E08B81282F30E089819D
S11318309A81BC016F5F7F4F7A8369838457994F84
S11318409E838D838D819E81FC0184918F836F8122
S1131850CA019695982F882797958795820F931F8D
S1131860865B9A4FFC0160838B818F5F8B838B81B6
S11318708823BCF68C818F5F8C838C81883078F2CE
S11318808FEF8093160149DC80E090E8ABE3B5E488
S113189088879987AA87BB8720E030E04AE755E428
S11318A0688579858A859B850E94A518DC01CB0112
S11318B08A8F9B8FAC8FBD8F20E030E040E85FE3E0
S11318C06A8D7B8D8C8D9D8D0E94521788232CF4FC
S11318D081E090E09F8F8E8F3FC020E03FEF4FE785
S11318E057E46A8D7B8D8C8D9D8D0E94A1181816EE
S11318F04CF520E030E040E251E4688579858A8542
S11319009B850E94A518DC01CB01BC01CD010E947E
S1131910C317DC01CB019F8F8E8F0FC080E991E04C
S113192099A388A388A199A10197F1F799A388A302
S11319308E8D9F8D01979F8F8E8F8E8D9F8D892B7E
S113194069F714C06A8D7B8D8C8D9D8D0E94C317A1
S1131950DC01CB019F8F8E8F8E8D9F8D9BA38AA3DD
S11319608AA19BA10197F1F79BA38AA3A4DB60E062
S113197080E004DF8CE89AE0B4DE80EA9AE0B1DE2D
S11319808BEB9AE0AEDE8CEC9AE0ABDE8AED9AE06B
S1131990A8DE8DEE9AE0A5DEC0DB80E090E8ABE344
S11319A0B5E48C879D87AE87BF8720E030E04AE7A7
S11319B055E46C857D858E859F850E94A518DC0184
S11319C0CB01888B998BAA8BBB8B20E030E040E85D
S11319D05FE3688979898A899B890E9452178823E1
S11319E02CF481E090E09D8B8C8B3FC020E03FEF96
S11319F04FE757E4688979898A899B890E94A118ED
S1131A0018164CF520E030E040E251E46C857D8509
S1131A108E859F850E94A518DC01CB01BC01CD01F8
S1131A200E94C317DC01CB019D8B8C8B0FC080E916
S1131A3091E09F8B8E8B8E899F890197F1F79F8B05
S1131A408E8B8C899D8901979D8B8C8B8C899D892C
S1131A50892B69F714C0688979898A899B890E94CE
S1131A60C317DC01CB019D8B8C8B8C899D89998F4D
S1131A70888F888D998D0197F1F7998F888F1BDB5B
S1131A805FD00000A3960FB6F894DEBF0FBECDBFA3
S1131A90DF91CF910895CF93DF9300D01F92CDB7FC
S1131AA0DEB789836A834B838981882F90E08730EE
S1131AB0910541F08C30910539F0029709F039C055
S1131AC03FD037C05DD035C0ADD080E290E0FC019E
S1131AD0808188235CF081E07ADA8B8163E04EDEDA
S1131AE08EE1E3DC1ADB80E072DA22C080E290E06F
S1131AF0FC018081882F90E080749927892B59F408
S1131B0081E065DA8B8165E039DE8FE1CEDC05DBCF
S1131B1080E05DDA0DC080E05ADA8B8163E02EDE6E
S1131B208EE1C3DC8B8165E029DE8FE1BEDCF5DA72
S1131B30000000000F900F900F90DF91CF91089557
S1131B40CF93DF93CDB7DEB7B6DA60E080E016DE80
S1131B5081E03DDA8EEF9AE0C4DD80E038DA60E0BF
S1131B6088E00CDE85E09BE0BCDD60E08FE006DE13
S1131B708BE09BE0B6DDD1DA0000DF91CF910895D0
S1131B800F93CF93DF93CDB7DEB795DA60E080E0B3
S1131B90F5DD81E19BE0A5DD60E088E0EFDD81E03B
S1131BA016DA88E19BE09DDD80E011DA60E08FE0E9
S1131BB0E5DD8EE19BE095DD67E084E1DFDD84E235
S1131BC09BE08FDD62E080E0D9DD86E29BE089DD89
S1131BD001E02CE348E76CE38CE0D1DB01E02CE38B
S1131BE04CE06AE08CE0CBDB01E02AE04CE06DE005
S1131BF08AE0C5DB01E02AE04CE06DE08EE0BFDB6B
S1131C0001E02CE348E76AE385E7B9DB01E02CE374
S1131C1048E76EE385E7B3DB80DA0000DF91CF911C
S1131C200F910895CF93DF93CDB7DEB744DA60E028
S1131C3080E0A4DD88E29BE054DD60E088E09EDD86
S1131C408FE29BE04EDD60E08FE098DD81E0BFD95C
S1131C5085E39BE046DD80E0BAD964E08AE08EDD6E
S1131C608BE39BE03EDD0000DF91CF910895CF939D
S1131C70DF93CDB7DEB780911A0190911B0181707B
S1131C809927892BC9F484E290E024E230E0F90139
S1131C902081206AFC0120838CE490E020E5FC0193
S1131CA020838DE490E021E0FC01208381E090E03A
S1131CB090931B0180931A010000DF91CF91089546
S1131CC0CF93DF931F92CDB7DEB789838EE490E084
S1131CD02981FC01208300008DE490E0FC018081D7
S1131CE08823D4F700000F90DF91CF910895CF930C
S1131CF0DF93CDB7DEB787E290E027E230E0F90169
S1131D0020812C7FFC01208388E290E028E230E0EF
S1131D10F90120812360FC01208388EB90E023E01B
S1131D20FC01208381EB90E027E0FC01208380E725
S1131D3090E022E0FC01208383EB90E02DE7FC019E
S1131D40208378940000DF91CF910895CF93DF939F
S1131D50CDB7DEB78AE080931C018CEB90E024EAD7
S1131D60FC012083000080911C01882331F08CEB5E
S1131D7090E0FC0180818823B4F780911C018823C2
S1131D8049F089EB90E0FC018081882F90E0887F06
S1131D90992702C08FEF9FEFDF91CF910895CF93E2
S1131DA0DF931F92CDB7DEB789838AE080931C014D
S1131DB08BEB90E02981FC0120838CEB90E024E8FC
S1131DC0FC012083000080911C01882331F08CEBFE
S1131DD090E0FC0180818823B4F780911C01882362
S1131DE049F089EB90E0FC018081882F90E0887FA6
S1131DF0992702C08FEF9FEF0F90DF91CF91089545
S1131E00CF93DF931F92CDB7DEB789838AE08093A7
S1131E101C018BEB90E02981FC0120838CEB90E08A
S1131E2024E8FC012083000080911C01882331F008
S1131E308CEB90E0FC0180818823B4F780911C0135
S1131E40882349F089EB90E0FC018081882F90E0A1
S1131E50887F992702C08FEF9FEF0F90DF91CF917A
S1131E600895CF93DF93CDB7DEB78AE080931C014A
S1131E708CEB90E024E9FC0120830000DF91CF91FA
S1131E8008951F920F9200905F000F92112400900A
S1131E905B000F922F933F938F939F93EF93FF9346
S1131EA0CF93DF93CDB7DEB783EB90E023EB30E045
S1131EB0F90120812358FC01208380911C0188238F
S1131EC029F080911C01815080931C010000DF9156
S1131ED0CF91FF91EF919F918F913F912F910F900F
S1131EE000925B000F9000925F000F901F90189576
S1131EF01F920F9200905F000F9211248F939F9373
S1131F00CF93DF93CDB7DEB781E090E090931E01CD
S1131F1080931D010000DF91CF919F918F910F90CD
S1131F2000925F000F901F9018951F920F920090DF
S1131F305F000F9211248F93CF93DF93CDB7DEB759
S1131F4081E080931B030000DF91CF918F910F906C
S1131F5000925F000F901F9018951F920F920090AF
S1131F605F000F9211248F93CF93DF93CDB7DEB729
S1131F7081E0809324030000DF91CF918F910F9033
S1131F8000925F000F901F9018951F920F9200907F
S1131F905F000F9211248F93CF93DF93CDB7DEB7F9
S1131FA0809126038F5F809326030000DF91CF91F9
S1131FB08F910F9000925F000F901F9018958F9251
S1131FC09F92AF92BF92CF92DF92EF92FF920F93C4
S1131FD01F93CF93DF93CDB7DEB764970FB6F89412
S1131FE0DEBF0FBECDBFF89481E290E021E230E085
S1131FF0F90120812770FC01208382E290E022E233
S113200030E0F9012081286FFC0120838AE290E00E
S11320102AE230E0F90120812B7FFC0120838BE24E
S113202090E02BE230E0F90120812460FC01208360
S113203084E290E02FE0FC01208385E290E025E239
S113204030E0F90120812F60FC01208388E690E0D4
S113205028E630E0F90120812160FC0120838BE631
S113206090E02BE630E0F9012081286FFC01208309
S113207081E890E021E0FC01208381E890E02DEFED
S1132080FC01208381E890E024E0FC0120838FE6BA
S113209090E020E2FC0120830E9402080CD8ACDB13
S11320A078944BD466D487E690E098878F838AE24D
S11320B090E09A8789871C861B861E861D86188A4F
S11320C01F861A8A198A1C8A1B8AE0901C03F090C6
S11320D01D0300911E0310911F03209145053091AB
S11320E04605409147055091480588EE93E0DC0190
S11320F00E943919DC01CB01A8019701281B390B77
S11321004A0B5B0BDA01C901883E9340A105B10576
S1132110E8F08091450590914605A0914705B0915E
S113212048050196A11DB11D809345059093460570
S1132130A0934705B093480585E290E025E230E09E
S1132140F901308121E02327FC01208389E290E01A
S1132150FC018081882F90E08470992721E0892BED
S113216009F020E0822F80930E01809124038823BC
S113217021F480910E018130A9F58091050190919F
S113218006019C0140E050E08091200390912103DE
S1132190A0912203B0912303280F391F4A1F5B1F0C
S11321A080911C0390911D03A0911E03B0911F0305
S11321B0281739074A075B0718F481E08093250341
S11321C080911C0390911D03A0911E03B0911F03E5
S11321D08093200390932103A0932203B0932303BD
S11321E01092240380912503882309F4FAC185E21F
S11321F090E025E230E0F901308128E02327FC015A
S1132200208380912C0390912D03A0912E03B091F3
S11322102F038093280390932903A0932A03B09358
S11322202B038091300390913103A0913203B0913C
S1132230330380932C0390932D03A0932E03B09328
S11322402F038091340390913503A0913603B0910C
S113225037038093300390933103A0933203B093F8
S113226033038091380390913903A0913A03B091DC
S11322703B038093340390933503A0933603B093C8
S1132280370380911C0390911D03A0911E03B0910C
S11322901F038093380390933903A0933A03B093B8
S11322A03B0381E080933C0380913E0380933D0394
S11322B080913F0380933E038091400380933F03CA
S11322C0209138033091390340913A0350913B03F4
S11322D08091340390913503A0913603B091370374
S11322E0281739074A075B0709F44EC08091070194
S11322F090910801CC01A0E0B0E0BC01CD016FD603
S11323006B017C018091380390913903A0913A03C9
S1132310B0913B03BC01CD0162D64B015C018091BD
S1132320340390913503A0913603B0913703BC0177
S1132330CD0155D6DC01CB019C01AD01C501B40131
S11323404CD5DC01CB019C01AD01C701B601AED572
S1132350DC01CB016C017D0180910901882F90E0A3
S1132360A0E0B0E0BC01CD013AD6DC01CB0111E024
S11323709C01AD01C701B601E4D688230CF410E03A
S1132380812F8093400302C01092400380913C034C
S1132390882309F424C180913D03882309F41FC1D3
S11323A080913E03882309F41AC180913F03882356
S11323B009F415C180914003882309F410C1809168
S11323C0070190910801880F991F7C0100E010E03B
S11323D020913403309135034091360350913703F3
S11323E080912C0390912D03A0912E03B0912F0383
S11323F0281B390B4A0B5B0BC801B70118D7DA014C
S1132400C901BC01CD01EBD5DC01CB0180933505BD
S113241090933605A0933705B09338054091070192
S11324205091080120ED37E0429FC001439F900D79
S1132430529F900D11247C0100E010E0209138039C
S11324403091390340913A0350913B03809130031A
S113245090913103A0913203B0913303281B390BBF
S11324604A0B5B0B81E090E0A0E0B0E0BC01CD0141
S1132470DED6DA01C9015C016D012091300330918F
S1132480310340913203509133038091280390919A
S11324902903A0912A03B0912B03281B390B4A0B63
S11324A05B0B81E090E0A0E0B0E0BC01CD01BFD6C1
S11324B0DA01C901A81AB90ACA0ADB0A209134034D
S11324C030913503409136035091370380912C03AA
S11324D090912D03A0912E03B0912F03281B390B4B
S11324E04A0B5B0BC601B501A2D6DA01C901A801EA
S11324F09701BC01CD018CD6DC01CB01BC01CD011F
S11325006ED5DC01CB018093390590933A05A093F5
S11325103B05B0933C0580910A0190910B01A09179
S11325200C01B0910D01B05820913505309136055C
S11325304091370550913805BC01CD0106D6DC0128
S1132540CB017C018D018091390590913A05A091D0
S11325503B05B0913C059C01AD01C801B701F5D51F
S1132560DC01CB0180933D0590933E05A0933F058C
S1132570B0934005809127038823A1F020913D0565
S113258030913E0540913F055091400580913505BD
S113259090913605A0913705B0913805BC01CD0165
S11325A009D21DC02091390530913A0540913B056F
S11325B050913C058091350590913605A0913705E1
S11325C0B0913805BC01CD01A6D2DC01CB018093CA
S11325D0410590934205A0934305B093440510929E
S11325E02503809126038823E1F380912603282F75
S11325F0880F330B440B550B80911C0390911D03E2
S1132600A0911E03B0911F03820F931FA41FB51F37
S113261080931C0390931D03A0931E03B0931F0388
S11326201092260380911B03813009F040C00F2EC5
S1132630F3E2EF2EF1E0FF2EF02D02E211E021E2B1
S113264031E044E051E06FE171E083E091E00E9409
S11326502B0680912101282F30E080912201882FC0
S113266090E0880F991FAC01440F551F440F551F6C
S1132670840F951F280F391F80912301482F50E0A4
S113268064E6649FC001659F900D1124820F931F1F
S113269090932501809324012091040190911F01BE
S11326A080910301422F692FF6D910921B0380E217
S11326B091E00E94D40580912601282F30E08F817B
S11326C09885821793070CF05AC01A82198217C092
S11326D089819A81880F991F895D9E4FFC01208111
S11326E0318189819A81880F991F8F5D9D4FFC01EB
S11326F03183208389819A8101969A838983898190
S11327009A818736910524F381E090E09C838B8342
S11327101CC08B819C81880F991F895D9E4FFC0191
S1132720808191819C8B8B8B8B819C8101972B89E0
S11327303C89880F991F895D9E4FFC01318320835A
S11327408B819C8101969C838B838B819C818936B0
S11327509105FCF28091260181508093260180919D
S11327602601882F90E020912001222F30E0880F4D
S1132770991F895D9E4FFC01318320830FC0809196
S11327802601882F90E020912001222F30E0880F2D
S1132790991F895D9E4FFC0131832083809126011E
S11327A08F5F8093260180910301882F90E087300A
S11327B0910509F457C08C30910509F49FC0029724
S11327C009F0BAC063E081E00E94BE0B81E49BE0A3
S11327D00E94710B64E081E00E94BE0B82E59BE0E5
S11327E00E94710B64E081E00E94BE0B809135056C
S11327F090913605A0913705B091380526E636E666
S113280046E650E4BC01CD01A0D4DC01CB01BC01FF
S1132810CD01B4D3DC01CB016AE00E949B0B64E0E0
S113282084E00E94BE0B86E59BE00E94710B65E08C
S113283081E00E94BE0B8BE59BE00E94710B66E079
S113284081E00E94BE0B6AE082E00E949B0B66E07E
S113285084E00E94BE0B85E69BE00E94710B0E94FF
S11328608D086AC01E821D823CC08D819E81880FA6
S1132870991F895D9E4FFC01808191812CE330E09A
S1132880A901481B590BCA01988B8F878D819E81A2
S11328900D969C878B878D819E81880F991F8F5DF4
S11328A09D4FFC01808191812CE330E0A901481BFC
S11328B0590BCA019A8B898B29899B858B8502E0E8
S11328C0492F6CE30E94BF092F859B858B8501E00E
S11328D0492F6CE30E94BF098D819E8101969E83DE
S11328E08D838D819E81873691050CF4BECF0E9425
S11328F08D0810921E0110921D011EC064E08BE031
S11329000E94BE0B809121016AE00E949B0B64E04F
S11329108AE00E94BE0B809122016AE00E949B0B18
S113292064E089E00E94BE0B809123016AE00E946A
S11329309B0B0E948D080000B6CBCF93DF93CDB7DD
S1132940DEB7F89489E690E029E630E0F9012081C9
S11329502160FC0120838DE390E02DE330E0F90158
S113296020812160FC01208378940000DF91CF91C5
S11329700895CF93DF93CDB7DEB7F89485E490E064
S113298025E430E0F90120812360FC01208387E401
S113299090E02AEFFC0120838EE690E02EE630E002
S11329A0F90120812260FC01208378940000DF91EA
S11329B0CF910895CF93DF93CDB7DEB72A970FB6A3
S11329C0F894DEBF0FBECDBF6B837C838D839E8363
S11329D02F83388749875A8719821A8220E030E08A
S11329E040E951E46B817C818D819E81AED3DC0111
S11329F0CB018B839C83AD83BE8320E030E04FE723
S1132A0053E46B817C818D819E819BD3181644F4A1
S1132A1080E090E0AFE7B3E48B839C83AD83BE8317
S1132A2020E030E0A9016B817C818D819E813AD2C6
S1132A30882324F41B821C821D821E826B817C816C
S1132A408D819E819BD2DC01CB01898320E030E023
S1132A5040E05FE36F81788589859A8576D3DC01D0
S1132A60CB018F839887A987BA8720E030E0A9013A
S1132A706F81788589859A8515D2882324F41F82ED
S1132A80188619861A8620E030E04FE753E46F81F8
S1132A90788589859A8555D3181644F480E090E0AA
S1132AA0AFE7B3E48F839887A987BA876F81788566
S1132AB089859A8563D2DC01CB018A8380910F01D9
S1132AC099819817F0F480914905882F90E08F5BE5
S1132AD09C4F2981FC01208380914905882F90E037
S1132AE0855C9B4F2A81FC012083898180930F019F
S1132AF0809149058A3F28F4809149058F5F80932E
S1132B00490500002A960FB6F894DEBF0FBECDBF6C
S1132B10DF91CF9108958F929F92AF92BF92CF92FF
S1132B20DF92EF92FF92CF93DF93CDB7DEB7669734
S1132B300FB6F894DEBF0FBECDBF6F87788B898B3D
S1132B409A8B2B8B3C8B4D8B5E8B1E821F8218863F
S1132B50198619821A821B821C821A861B861C867D
S1132B601D861E861D8226E636E646E650E46F85FF
S1132B70788989899A89E9D2DC01CB0120E030E0A7
S1132B8040EA50E4BC01CD01E0D2DC01CB01BC0140
S1132B90CD01F4D1DC01CB018E8703C08D818F5F21
S1132BA08D838D81882F90E08F5B9C4FFC019081F9
S1132BB08E85891798F38D81882F90E08F5B9C4FC9
S1132BC0FC0190818E859817A9F48D81882F90E05F
S1132BD0855C9B4FFC018081882F90E0A0E0B0E0F1
S1132BE0BC01CD01FCD1DC01CB0189839A83AB8389
S1132BF0BC83AFC08D81882F90E00197855C9B4F8B
S1132C00FC018081882F90E0A0E0B0E0BC01CD0100
S1132C10E6D16B017C018D81882F90E0855C9B4F10
S1132C20FC018081882F90E0A0E0B0E0BC01CD01E0
S1132C30D6D1DC01CB019C01AD01C701B601CDD0D9
S1132C40DC01CB016C017D018D81882F90E001971F
S1132C508F5B9C4FFC018081882F90E0A0E0B0E066
S1132C60BC01CD01BCD14B015C018D81882F90E06A
S1132C708F5B9C4FFC018081882F90E0A0E0B0E046
S1132C80BC01CD01ACD1DC01CB019C01AD01C5017E
S1132C90B401A3D0DC01CB019C01AD01C701B60195
S1132CA005D1DC01CB016C017D018E85882F90E07C
S1132CB0A0E0B0E0BC01CD0192D14B015C018D815B
S1132CC0882F90E08F5B9C4FFC018081882F90E0DF
S1132CD0A0E0B0E0BC01CD0182D1DC01CB019C01BC
S1132CE0AD01C501B40179D0DC01CB019C01AD017A
S1132CF0C701B6012AD2DC01CB016C017D018D81B3
S1132D00882F90E0855C9B4FFC018081882F90E0A8
S1132D10A0E0B0E0BC01CD0162D1DC01CB019C019B
S1132D20AD01C701B6015AD0DC01CB0189839A8376
S1132D30AB83BC8389819A81AB81BC819C01AD0149
S1132D40BC01CD014BD0DC01CB0189839A83AB83D9
S1132D50BC8380910A0190910B01A0910C01B09168
S1132D600D012F85388949895A89BC01CD01EDD1DE
S1132D70DC01CB012B893C894D895E89BC01CD01E5
S1132D80E4D1DC01CB018A879B87AC87BD872A8588
S1132D903B854C855D8569817A818B819C811ED0C0
S1132DA0DC01CB018E839F83A887B9878E819F81A5
S1132DB0A885B985BC01CD0166960FB6F894DEBF2F
S1132DC00FBECDBFDF91CF91FF90EF90DF90CF90FA
S1132DD0BF90AF909F908F9008955058BB27AA271B
S1132DE00ED075C166D130F06BD120F031F49F3F25
S1132DF011F41EF45BC10EF4E095E7FB51C1E92F19
S1132E0077D180F3BA17620773078407950718F020
S1132E1071F49EF58FC10EF4E0950B2EBA2FA02D00
S1132E200B01B90190010C01CA01A0011124FF2773
S1132E30591B99F0593F50F4503E68F11A16F0406E
S1132E40A22F232F342F4427585FF3CF469537956D
S1132E502795A795F0405395C9F77EF41F16BA0B32
S1132E60620B730B840BBAF09150A1F0FF0FBB1FE0
S1132E70661F771F881FC2F70EC0BA0F621F731F29
S1132E80841F48F4879577956795B795F7959E3F86
S1132E9008F0B3CF9395880F08F09927EE0F979514
S1132EA087950895D9D008F481E008950CD00FC116
S1132EB007D140F0FED030F021F45F3F19F0F0C0AC
S1132EC0511139C1F3C014D198F39923C9F355238F
S1132ED0B1F3951B550BBB27AA2762177307840709
S1132EE038F09F5F5F4F220F331F441FAA1FA9F3BF
S1132EF033D00E2E3AF0E0E830D091505040E695B1
S1132F00001CCAF729D0FE2F27D0660F771F881F11
S1132F10BB1F261737074807AB07B0E809F0BB0B00
S1132F20802DBF01FF2793585F4F2AF09E3F510524
S1132F3068F0B6C000C15F3FECF3983EDCF38695C1
S1132F4077956795B795F7959F5FC9F7880F911D9A
S1132F509695879597F90895E1E0660F771F881F86
S1132F60BB1F621773078407BA0720F0621B730B39
S1132F70840BBA0BEE1F88F7E095089504D068948B
S1132F80B111D9C00895BCD088F09F5790F0B92FE3
S1132F909927B751A0F0D1F0660F771F881F991FAA
S1132FA01AF0BA95C9F712C0B13081F0C3D0B1E0BC
S1132FB00895C0C0672F782F8827B85F39F0B93FCC
S1132FC0CCF3869577956795B395D9F73EF49095AC
S1132FD08095709561957F4F8F4F9F4F0895E8942A
S1132FE009C097FB3EF490958095709561957F4F4D
S1132FF08F4F9F4F9923A9F0F92F96E9BB279395FB
S1133000F695879577956795B795F111F8CFFAF40A
S1133010BB0F11F460FF1BC06F5F7F4F8F4F9F4F3B
S113302016C0882311F096E911C0772321F09EE899
S1133030872F762F05C0662371F096E8862F70E0FF
S113304060E02AF09A95660F771F881FDAF7880FD9
S11330509695879597F90895990F0008550FAA0B2F
S1133060E0E8FEEF16161706E807F907C0F0121697
S11330701306E407F50798F0621B730B840B950B9A
S113308039F40A2661F0232B242B252B21F40895EF
S11330900A2609F4A140A6958FEF811D811D08958C
S11330A097F99F6780E870E060E008959FEF80ECF7
S11330B0089500240A94161617061806090608959A
S11330C000240A9412161306140605060895092E00
S11330D00394000C11F4882352F0BB0F40F4BF2B6F
S11330E011F460FF04C06F5F7F4F8F4F9F4F0895AF
S11330F057FD9058440F551F59F05F3F71F04795A5
S1133100880F97FB991F61F09F3F79F08795089589
S1133110121613061406551FF2CF4695F1DF08C0A8
S1133120161617061806991FF1CF869571056105C5
S113313008940895E894BB2766277727CB0197F96D
S113314008958ADF08F48FEF08950BD0C0CFB1DF64
S113315028F0B6DF18F0952309F0A2CFA7CF1124E9
S1133160EACFC6DFA0F3959FD1F3950F50E0551F2A
S1133170629FF001729FBB27F00DB11D639FAA27C8
S1133180F00DB11DAA1F649F6627B00DA11D661F17
S1133190829F2227B00DA11D621F739FB00DA11D38
S11331A0621F839FA00D611D221F749F3327A00DF2
S11331B0611D231F849F600D211D822F762F6A2F8E
S11331C011249F5750408AF0E1F088234AF0EE0F13
S11331D0FF1FBB1F661F771F881F91505040A9F720
S11331E09E3F510570F05CCFA6CF5F3FECF3983E55
S11331F0DCF3869577956795B795F795E7959F5F87
S1133200C1F7FE2B880F911D9695879597F9089520
S1133210DB018F939F932DD0BF91AF91A29F800D1F
S1133220911DA39F900DB29F900D11240895A1E2CA
S11332301A2EAA1BBB1BFD010DC0AA1FBB1FEE1F2C
S1133240FF1FA217B307E407F50720F0A21BB30B77
S1133250E40BF50B661F771F881F991F1A9469F7F3
S113326060957095809590959B01AC01BD01CF014F
S1133270089509D0A59F900DB49F900DA49F800D33
S1133280911D11240895A29FB001B39FC001A39F73
S1133290700D811D1124911DB29F700D811D11248B
S11332A0911D08954532510518F4423008F004C0C8
S11332B0FB011082CB010895BB274A3031F49923D6
S11332C022F4BDE2909581959F4F01C0BB27FB017D
S11332D05527AA27880F991FAA1FA41710F0A41B0B
S11332E083955051B9F7A05DAA3308F0A95DA19365
S11332F0009779F7B111B1931192CB0100C0DC01B1
S1133300FC01672F71917723E1F7329704C07C9118
S11333106D9370836291AE17BF07C8F30895F89454
S1053320FFCFD9
S11333220B0206020B3200A708010000A042FFFFB5
S9030000FC
