:100000008AC300000C94220EA5C30000A3C3000005
:100010000C940A0E9FC300009DC300009BC3000008
:1000200099C300000C94A20C95C3000093C3000078
:1000300091C300008FC300008DC300000C94ED0D30
:100040000C943A0E87C3000085C3000083C30000F0
:100050000C94280D0C94620D7DC300007BC300003E
:1000600079C3000077C3000075C3000073C30000AC
:1000700071C300006FC300006DC300006BC30000BC
:1000800069C3000067C3000065C3000000000000F2
:100090000000003E4551453E003E6B6F6B3E001C2C
:1000A0003E7C3E1C00183C7E3C180030367F3630CB
:1000B00000185C7E5C1800000000000000000000DA
:1000C0000000000000000000000000000000003000
:1000D000484A360E00062979290600000000000073
:1000E00000607E0A353F002A1C361C2A00007F3E35
:1000F0001C0800081C3E7F000014367F36140000E8
:100100005F005F000006097F017F00224D555922E4
:100110000060606060000014B6FFB6140004067F43
:1001200006040010307F30100008083E1C0800084C
:100130001C3E080800784040404000083E083E0849
:1001400000303C3F3C3000030F3F0F030000000035
:1001500000000000065F06000007030007030024FC
:100160007E247E2400242B6A12000063130864633B
:1001700000364956205000000703000000003E41B1
:1001800000000000413E000000083E1C3E08000840
:10019000083E08080000E0600000000808080808A1
:1001A000000060600000002010080402003E514979
:1001B000453E0000427F400000625149494600220E
:1001C00049494936001814127F10002F4949493116
:1001D000003C4A494930000171090503003649498C
:1001E000493600064949291E00006C6C00000000D9
:1001F000EC6C000000081422410000242424242474
:10020000000041221408000201590906003E415D28
:10021000551E007E1111117E007F49494936003E6E
:1002200041414122007F4141413E007F49494941CE
:10023000007F09090901003E4149497A007F080809
:10024000087F0000417F410000304040403F007F78
:1002500008142241007F40404040007F0204027F9A
:10026000007F0204087F003E4141413E007F0909B2
:100270000906003E4151215E007F090919660026EA
:10028000494949320001017F0101003F4040403FA0
:10029000001F2040201F003F403C403F00631408E7
:1002A0001463000708700807007149454300000007
:1002B0007F414100000204081020000041417F00FE
:1002C0000004020102048080808080800000030717
:1002D0000000002054545478007F444444380038CF
:1002E0004444442800384444447F0038545454085B
:1002F00000087E0909000018A4A4A47C007F04045F
:1003000078000000007D4000004080847D00007F78
:10031000102844000000007F4000007C041804788E
:10032000007C0404780000384444443800FC444411
:1003300044380038444444FC00447844040800082D
:100340005454542000043E442400003C40207C00CF
:10035000001C2040201C003C6030603C006C1010F1
:100360006C00009CA0603C00006454544C000008E9
:100370003E414100000000770000000041413E087E
:10038000000201020100003C2623263C001EA1E1E0
:100390002112003D40207D000038545455090020B2
:1003A00055555578002055545578002055555478AA
:1003B000002057555778001CA2E2221400385555EA
:1003C0005508003855545508003855555408000054
:1003D000017C41000000017D41000000017C4000E3
:1003E00000702924297000782F252F78007C545420
:1003F00055450034547C5458007E097F49490038E3
:100400004545390000384544390000394544380035
:10041000003C41217D00003D41207C00009CA1600A
:100420003D00003D42423D00003C41403D008070A7
:100430006858380400483E494962007E615D433F88
:100440000022140814220040887E0902002054551E
:1004500055780000007D4100003844453900003CDB
:1004600040217D00007A090A7100007A112279008A
:1004700000085555555E004E51514E000030484D14
:1004800040203E415D4B553E04040404041C00170B
:10049000084C6A50001708342A780000307D30007C
:1004A0000008140008140014080014084411441132
:1004B0004411AA55AA55AA55BBEEBBEEBBEE0000EF
:1004C00000FF0000080808FF0000007028252970C0
:1004D0000070292529700070292528703E415D553E
:1004E000413E0AFB00FF000000FF00FF00000AFA87
:1004F00002FE00000A0B080F00000018246624000A
:1005000000292A7C2A29080808F800000000000FAA
:1005100008080808080F0808080808F80808000074
:1005200000FF0808080808080808080808FF080865
:1005300000205655567900702A252A71000F080BA5
:100540000A0A00FE02FA0A0A0A0B080B0A0A0AFA49
:1005500002FA0A0A00FF00FB0A0A0A0A0A0A0A0A41
:100560000AFB00FB0A0A005D2222225D0022555987
:10057000300000087F49413E007C55555544007CC1
:1005800055545544007C5555544400000007000064
:100590000000447D45000000457D45000000457C8D
:1005A00045000808080F0000000000F80808FFFFD9
:1005B000FFFFFFFFF0F0F0F0F0F000000077000028
:1005C0000000457D44000F0F0F0F0F0F003C42430A
:1005D0003D0000FE4A4A3400003C43433D00003DDC
:1005E00043423C000032494A3100003A4546390056
:1005F00000FC20201C0000FEAA28100000FFA524FB
:100600001800003C40413D00003C41413D00003DA0
:1006100041403C00009CA0613D00000408710904B9
:1006200000000202020000000703000000000808AA
:1006300008000000242E240000242424242405176C
:100640000A342A780006097F017F00224D5559227D
:100650000008082A08080000081818000006090900
:10066000060000000800080000000800000000026A
:100670000F00000000090F05000000090D0A00002E
:10068000003C3C3C3C000000000000004C6F6767F1
:100690006572004B75727665004D61737365004C31
:1006A0006F67676572004B75727665004D61737395
:1006B0006500760050004C6F67676572004B75727D
:1006C0007665004D6173736500696E206B67004746
:1006D0006573636877696E6469676B6569743A000E
:1006E000202020202020202020202020202020200A
:1006F0002020202020006B6D2F68004C65697374EA
:10070000756E673A00202020202020202020202005
:1007100020200057000011241FBECFEFD0E4DEBF21
:10072000CDBF11E0A0E0B1E0E6E5F2E300E00BBFF1
:1007300002C007900D92A431B107D9F729E0A4E1D6
:10074000B1E001C01D92A43BB207E1F70E94540E34
:100750000C94291955CCCF93DF93CDB7DEB784E243
:1007600090E024E230E0F90120812061FC01208347
:1007700085E290E025E230E0F90120812061FC0172
:100780002083D6D70000DF91CF910895CF93DF93D8
:1007900000D000D01F92CDB7DEB79A8389837C83C7
:1007A0006B834D8389819A81FC01108289819A81B2
:1007B0002B813C81FC013583248389819A81FC0152
:1007C0002481358189819A81FC0133832283898147
:1007D0009A812D81FC01218389819A81FC012181EB
:1007E00089819A81FC01278389819A81FC01278173
:1007F00089819A81FC01268300000F900F900F9051
:100800000F900F90DF91CF910895CF93DF9300D099
:10081000CDB7DEB79A83898389819A81FC01808173
:10082000882319F48FEF9FEF05C089819A8178D0D2
:10083000882F90E00F900F90DF91CF910895CF9384
:10084000DF93CDB7DEB727970FB6F894DEBF0FBEA4
:10085000CDBF9E838D836F838D819E81FC0120811E
:100860008D819E81FC018181281710F080E04FC0AE
:100870008D819E81FC01848195819A838983898100
:100880009A819C012F5F3F4F3A8329832F81FC017E
:1008900020838D819E81FC0187818B838B81815098
:1008A0008B838B81882389F48D819E81FC018181DA
:1008B0008B838B81882F90E0919581959109298177
:1008C0003A81820F931F9A8389838D819E812B8128
:1008D000FC0127838D819E8129813A81FC0135832A
:1008E00024838FE590E0FC0180818C83F8948D81D6
:1008F0009E81FC01808121E0280F8D819E81FC0179
:1009000020838FE590E02C81FC01208381E02796F5
:100910000FB6F894DEBF0FBECDBFDF91CF91089523
:10092000CF93DF93CDB7DEB727970FB6F894DEBF2E
:100930000FBECDBF9F838E838E819F81FC018281FC
:1009400093819A83898389819A819C012F5F3F4F8C
:100950003A832983FC0180818C838E819F81FC01F5
:1009600086818B838B8181508B838B81882389F453
:100970008E819F81FC0181818B838B81882F90E008
:1009800091958195910929813A81820F931F9A83CC
:1009900089838E819F8129813A81FC01338322835F
:1009A0008E819F812B81FC0126838FE590E0FC01E5
:1009B00080818D83F8948E819F81FC0180812FEF4F
:1009C000280F8E819F81FC0120838FE590E02D818F
:1009D000FC0120838C8127960FB6F894DEBF0FBEF2
:1009E000CDBFDF91CF910895EF92FF920F931F93A8
:1009F000CF93DF93CDB7DEB76E970FB6F894DEBF17
:100A00000FBECDBF9C8B8B8B7E8B6D8B588F4F8B8E
:100A10003A8F298F1C8F0B8FFE8EED8E82E089839B
:100A20008CE08A8389E08B831C8280E290E0FC0169
:100A30008081882F90E088709927892BC1F480915C
:100A400014018823A1F481E08093140180910001B6
:100A50008A3030F08091000181508093000107C0FE
:100A6000809100018A3018F48BE08093000180E2CD
:100A700090E0FC018081882F90E080729927892B7B
:100A800091F4909101018981891768F48091140192
:100A9000882349F48091010185508093010181E010
:100AA00080931401B9C080E290E0FC018081882F1E
:100AB00090E080719927892B91F4909101018A81AE
:100AC000981768F480911401882349F480910101FA
:100AD0008B5F8093010181E0809314019DC080E2CF
:100AE00090E0FC01808188230CF43DC090910201CC
:100AF0008B819817C0F5809114018823A1F580910E
:100B00000001882F90E08A30910581F08B309105AB
:100B100019F00997A9F023C0809115018930D0F40C
:100B2000809115018F5F8093150114C0809116018B
:100B3000893090F4809116018F5F809316010CC06C
:100B400080911701893050F4809117018F5F809355
:100B5000170104C0000003C0000001C0000081E0D4
:100B60008093140159C080E290E0FC018081882FBD
:100B700090E080749927892B09F03DC09091020183
:100B80008C818917C0F5809114018823A1F580918B
:100B90000001882F90E08A30910581F08B3091051B
:100BA00019F00997A9F023C0809115018823D1F08D
:100BB0008091150181508093150114C08091160118
:100BC000882391F0809116018150809316010CC00A
:100BD00080911701882351F08091170181508093F3
:100BE000170104C0000003C0000001C0000081E044
:100BF0008093140111C080E290E0FC018081882F75
:100C000090E0887F9927883F910531F48091140105
:100C1000813011F41092140180E090E0A0E2B1E480
:100C20008D839E83AF83B88720E030E04AE755E4A8
:100C30006D817E818F8198850E947018DC01CB01C7
:100C400089879A87AB87BC8720E030E040E85FE384
:100C500069857A858B859C850E941D1788232CF4D5
:100C600081E090E09E878D873FC020E03FEF4FE717
:100C700057E469857A858B859C850E946C181816C7
:100C80004CF520E030E040E251E46D817E818F81BF
:100C900098850E947018DC01CB01BC01CD010E9437
:100CA0008E17DC01CB019E878D870FC080E991E014
:100CB000988B8F878F8598890197F1F7988B8F870D
:100CC0008D859E8501979E878D878D859E85892B35
:100CD00069F714C069857A858B859C850E948E177B
:100CE000DC01CB019E878D878D859E859A8B898BB4
:100CF00089899A890197F1F79A8B898B2091010153
:100D00008B899C89FC012083209102018D899E8919
:100D1000FC012083209100018F89988DFC012083A4
:100D200020911501898D9A8DFC0120832091160157
:100D30008B8D9C8DFC012083209117018D8D9E8DC4
:100D4000FC01208300006E960FB6F894DEBF0FBE44
:100D5000CDBFDF91CF911F910F91FF90EF9008953C
:100D6000CF93DF931F92CDB7DEB7898389818093BC
:100D70001B0100000F90DF91CF910895CF93DF9377
:100D80001F92CDB7DEB789838981FBD400000F9015
:100D9000DF91CF910895CF93DF931F92CDB7DEB748
:100DA000C7D487E290E027E230E0F9012081206C8F
:100DB000FC0120838FE590E0FC0180818983F89419
:100DC00088E290E028E230E0F90120812F77FC01F1
:100DD000208388E290E028E230E0F90120812F7B37
:100DE000FC01208382EECADF83EAC8DF81E8C6DF28
:100DF00088E0C4DF80EAC2DF88ECC0DF85E2BEDFC6
:100E00008FE2BCDF8FEABADF88E290E028E230E0D0
:100E1000F90120812064FC01208388E290E028E22F
:100E200030E0F90120812068FC0120830DD08FE59E
:100E300090E02981FC012083BBD476D38CDC0000B8
:100E40000F90DF91CF910895CF93DF9300D0CDB76E
:100E5000DEB719821A821A821CC0198214C08A81D4
:100E6000282F30E08981882F90E03695322F222775
:100E700037952795820F931F8C5A9A4FFC01108249
:100E800089818F5F8983898188234CF78A818F5F6D
:100E90008A838A81883008F38FEF8093180106D007
:100EA00000000F900F90DF91CF910895CF93DF93C3
:100EB00000D01F92CDB7DEB787E089838FE590E041
:100EC000FC0180818B8380911801882F90E029811B
:100ED000022E000C330B02C0959587952A95E2F7F8
:100EE00081709927892B09F446C088E290E028E2B6
:100EF00030E0F90120812F7BFC01208388E290E023
:100F000028E230E0F90120812F77FC0120838981DC
:100F1000806B34DF80E132DF80E030DF88E290E018
:100F200028E230E0F90120812068FC0120831A8248
:100F300016C08981282F880F330B8A81882F90E073
:100F40003695322F222737952795820F931F8C5A7B
:100F50009A4FFC01808112DF8A818F5F8A838A81A8
:100F600088233CF788E290E028E230E0F901208114
:100F70002064FC0120838981982F915099838823D4
:100F800009F0A1CF1092180100000F900F900F9060
:100F9000DF91CF910895CF93DF9300D000D01F92BF
:100FA000CDB7DEB78B836C834D838B8188230CF4A4
:100FB000A0C08C81803408F09CC08C818695869579
:100FC000869589838C81882F90E09C012770332738
:100FD00081E090E002C0880F991F2A95E2F78A838A
:100FE0008D81882F90E0009719F0029741F14CC055
:100FF0008981282F30E08B81882F90E04981642FF0
:1010000070E04B81442F50E07695762F66277795D8
:101010006795460F571F4C5A5A4FFA014081542F7B
:101020004A81409545233695322F222737952795BB
:10103000820F931F8C5A9A4FFC0140834AC08981CA
:10104000282F30E08B81882F90E04981642F70E059
:101050004B81442F50E07695762F662777956795DC
:10106000460F571F4C5A5A4FFA0150814A81452763
:101070003695322F222737952795820F931F8C5A4A
:101080009A4FFC01408325C08981282F30E08B8155
:10109000882F90E04981642F70E04B81442F50E00D
:1010A0007695762F662777956795460F571F4C5A8A
:1010B0005A4FFA0150814A81452B3695322F22270B
:1010C00037952795820F931F8C5A9A4FFC014083C6
:1010D00000008981282F30E081E090E002C0880F75
:1010E000991F2A95E2F7982F80911801892B8093F8
:1010F000180100000F900F900F900F900F90DF914C
:10110000CF9108950F93CF93DF93CDB7DEB72B9791
:101110000FB6F894DEBF0FBECDBF8F8368874987B7
:101120002A870B878985282F30E08F81882F90E0D0
:10113000A901481B590BCA0199231CF4919581956B
:1011400091098A838A85282F30E08885882F90E04E
:10115000A901481B590BCA0199231CF4919581954B
:1011600091098B839F818985981710F481E001C0D4
:101170008FEF8C8398858A85981710F481E001C0E1
:101180008FEF8D839A818B81891734F48A8188232C
:101190000CF48F5F85950CC08B81082E000C990B89
:1011A00091958195910999230CF4019695958795D0
:1011B00089834B8568858F81EEDE9F8189859817AD
:1011C00021F498858A85981739F189818E838E81DB
:1011D000282F880F330B8A81082E000C990B9195CC
:1011E000819591098217930754F499818B81592F26
:1011F000581B852F89838C819F81890F8F839E81C6
:101200008B819817B4F699818A81890F89838D81A2
:101210009885890F8887CDCF000000002B960FB6E8
:10122000F894DEBF0FBECDBFDF91CF910F9108952F
:10123000CF93DF93CDB7DEB729970FB6F894DEBF13
:101240000FBECDBF89878985882F90E08A309105B0
:1012500029F00D9771F410921901D9C080911A01EB
:10126000873008F0D1C080911A018F5F80931A01F6
:10127000CBC080911B01882309F060C019823EC059
:1012800080911A01682F70E080911901282F30E0B9
:10129000C901880F991F820F931F880F991F9C0106
:1012A0008981882F90E0A901480F591F8985282F2F
:1012B00030E08981E82FF0E0C901880F991F820F83
:1012C000931F880F991F8E0F9F1F84579F4F9C83DA
:1012D0008B838B819C81FC0184918D832D81CB013B
:1012E0009695982F882797958795840F951F8C5AE8
:1012F0009A4FFC01208389818F5F898389818630A1
:1013000008F4BECF80911A01282F30E081E090E0F0
:1013100002C0880F991F2A95E2F7982F8091180133
:10132000892B8093180180911901843108F06EC0D7
:10133000809119018F5F8093190168C080911B0112
:10134000813009F063C01A8240C080911A01682F71
:1013500070E080911901282F30E0C901880F991F92
:10136000820F931F880F991F9C018A81882F90E01C
:10137000A901480F591F8985282F30E08A81E82F5D
:10138000F0E0C901880F991F820F931F880F991FE2
:101390008E0F9F1F84579F4F9F838E838E819F81C7
:1013A000FC01849188878885282F2095CB0196950C
:1013B000982F882797958795840F951F8C5A9A4F59
:1013C000FC0120838A818F5F8A838A81863008F4BA
:1013D000BCCF80911A01282F30E081E090E002C05C
:1013E000880F991F2A95E2F7982F80911801892B71
:1013F0008093180180911901843140F48091190182
:101400008F5F8093190102C0000001C0000000003E
:1014100029960FB6F894DEBF0FBECDBFDF91CF91F6
:101420000895CF93DF9300D0CDB7DEB79A83898339
:1014300089819A81FC018081882381F089819A8148
:10144000FC018081F5DE89819A8101969A838983E6
:1014500089819A81FC018081882381F700000F90A7
:101460000F90DF91CF910895CF93DF9300D000D0FC
:1014700000D0CDB7DEB79E838D838D819E819A8308
:10148000898389819A81FC0184918B838B818C83F0
:101490008D819E8101969E838D838C81882319F096
:1014A0008C81C6DEEACF0000000026960FB6F894C5
:1014B000DEBF0FBECDBFDF91CF910895CF93DF93F5
:1014C00000D000D000D0CDB7DEB78D836E838E8183
:1014D000282F30E08D81882F90E0A9019E012F5F99
:1014E0003F4FB9010E94EC18CE0101969ADF00002F
:1014F00026960FB6F894DEBF0FBECDBFDF91CF9119
:101500000895CF93DF9300D0CDB7DEB789836A8388
:101510008981809319018A8180931A0100000F90BC
:101520000F90DF91CF910895CF93DF93CDB7DEB7C2
:101530006ED184EC95D181E1C4D180E0C2D180E04C
:10154000C0D180E0BED180E0BCD180E0BAD1EAD188
:101550000000DF91CF910895CF93DF9300D01F92C9
:10156000CDB7DEB789836A834B838981882F90E06A
:101570008730910541F08C30910539F0029709F0E0
:1015800039C03FD037C05DD035C0ADD080E290E0EB
:10159000FC01808188235CF081E0E2DB8B8163E0E9
:1015A000B0DF8EE145DE82DC80E0DADB22C080E263
:1015B00090E0FC018081882F90E080749927892B2E
:1015C00059F481E0CDDB8B8165E09BDF8FE130DE7C
:1015D0006DDC80E0C5DB0DC080E0C2DB8B8163E0A9
:1015E00090DF8EE125DE8B8165E08BDF8FE120DEF1
:1015F0005DDC000000000F900F900F90DF91CF9105
:101600000895CF93DF93CDB7DEB71EDC60E080E0B6
:1016100078DF81E0A5DB8CE896E026DF80E0A0DBC8
:1016200060E088E06EDF83E996E01EDF60E08FE037
:1016300068DF89E996E018DF39DC0000DF91CF919F
:1016400008950F93CF93DF93CDB7DEB7FDDB60E056
:1016500080E057DF8FE996E007DF60E088E051DF48
:1016600081E07EDB86EA96E0FFDE80E079DB60E009
:101670008FE047DF8CEA96E0F7DE67E084E141DF48
:1016800082EB96E0F1DE62E080E03BDF84EB96E007
:10169000EBDE01E02CE348E76CE38CE033DD01E0B6
:1016A0002CE34CE06AE08CE02DDD01E02AE04CE028
:1016B0006DE08AE027DD01E02AE04CE06DE08EE09D
:1016C00021DD01E02CE348E76AE385E71BDD01E06B
:1016D0002CE348E76EE385E715DDE8DB0000DF91EA
:1016E000CF910F910895CF93DF93CDB7DEB7ACDBE9
:1016F00060E080E006DF86EB96E0B6DE60E088E042
:1017000000DF8DEB96E0B0DE60E08FE0FADE81E096
:1017100027DB83EC96E0A8DE80E022DB64E08AE051
:10172000F0DE89EC96E0A0DE0000DF91CF91089515
:10173000CF93DF93CDB7DEB780911C0190911D014F
:1017400081709927892BC9F484E290E024E230E08B
:10175000F9012081206AFC0120838CE490E020E5DF
:10176000FC0120838DE490E021E0FC01208381E0F6
:1017700090E090931D0180931C010000DF91CF91B8
:101780000895CF93DF931F92CDB7DEB789838EE4A0
:1017900090E02981FC01208300008DE490E0FC01B1
:1017A00080818823D4F700000F90DF91CF910895B6
:1017B000CF93DF93CDB7DEB787E290E027E230E04A
:1017C000F90120812C7FFC01208388E290E028E24F
:1017D00030E0F90120812360FC01208388EB90E058
:1017E00023E0FC01208381EB90E027E0FC012083D3
:1017F00080E790E022E0FC01208383EB90E02DE77E
:10180000FC01208378940000DF91CF910895CF935D
:10181000DF93CDB7DEB78AE080931E018CEB90E0BA
:1018200024EAFC012083000080911E01882331F00E
:101830008CEB90E0FC0180818823B4F780911E013D
:10184000882349F089EB90E0FC018081882F90E0AB
:10185000887F992702C08FEF9FEFDF91CF91089586
:10186000CF93DF931F92CDB7DEB789838AE0809351
:101870001E018BEB90E02981FC0120838CEB90E032
:1018800024E8FC012083000080911E01882331F0B0
:101890008CEB90E0FC0180818823B4F780911E01DD
:1018A000882349F089EB90E0FC018081882F90E04B
:1018B000887F992702C08FEF9FEF0F90DF91CF9124
:1018C0000895CF93DF931F92CDB7DEB789838AE067
:1018D00080931E018BEB90E02981FC0120838CEB2F
:1018E00090E024E8FC012083000080911E01882301
:1018F00031F08CEB90E0FC0180818823B4F780917B
:101900001E01882349F089EB90E0FC018081882F3B
:1019100090E0887F992702C08FEF9FEF0F90DF91B3
:10192000CF910895CF93DF93CDB7DEB78AE0809350
:101930001E018CEB90E024E9FC0120830000DF9184
:10194000CF9108951F920F9200905F000F92112483
:1019500000905B000F922F933F938F939F93EF9391
:10196000FF93CF93DF93CDB7DEB783EB90E023EB0C
:1019700030E0F90120812358FC01208380911E0171
:10198000882329F080911E01815080931E01000060
:10199000DF91CF91FF91EF919F918F913F912F9187
:1019A0000F9000925B000F9000925F000F901F90CD
:1019B0001895CF93DF931F92CDB7DEB78FE590E0F8
:1019C000FC0180818983F89484EC90E027E630E084
:1019D000FC013183208381EC90E028E9FC01208325
:1019E00080EC90E020ECFC0120838FE590E02981E1
:1019F000FC01208340E164EA79E08CE999E00E94EF
:101A0000C60340E46CE579E084E599E00E94C603F2
:101A100000000F90DF91CF910895CF93DF9300D016
:101A2000CDB7DEB78A836A8184E599E00E941F04FE
:101A3000898381EC90E021EC30E0F9012081206283
:101A4000FC01208389810F900F90DF91CF91089541
:101A50001F920F9200905F000F92112400905B0084
:101A60000F922F933F934F935F936F937F938F9337
:101A70009F93AF93BF93EF93FF93CF93DF93CDB734
:101A8000DEB786EC90E0FC018081682F8CE999E05C
:101A90000E941F040000DF91CF91FF91EF91BF9151
:101AA000AF919F918F917F916F915F914F913F91F6
:101AB0002F910F9000925B000F9000925F000F90AB
:101AC0001F9018951F920F9200905F000F921124A3
:101AD00000905B000F920F931F932F933F934F93B0
:101AE0005F936F937F938F939F93AF93BF93EF9386
:101AF000FF93CF93DF93CDB7DEB78091540988234E
:101B000049F006EC10E084E599E00E940504F80134
:101B1000808309C081EC90E021EC30E0F901208164
:101B20002F7DFC0120830000DF91CF91FF91EF9189
:101B3000BF91AF919F918F917F916F915F914F91E5
:101B40003F912F911F910F910F9000925B000F908A
:101B500000925F000F901F901895CF93DF9300D0F5
:101B6000CDB7DEB79A83898389819A81FC01808110
:101B700054DF89819A819C012F5F3F4F3A832983EB
:101B8000FC018081882381F700000F900F90DF9186
:101B9000CF910895CF93DF93CDB7DEB72C970FB6D3
:101BA000F894DEBF0FBECDBF9C878B878B859C854D
:101BB0004AE050E09E012F5F3F4FB9010E94EC18B0
:101BC000CE010196CADF00002C960FB6F894DEBF56
:101BD0000FBECDBFDF91CF9108951F920F9200905D
:101BE0005F000F9211248F939F93CF93DF93CDB714
:101BF000DEB781E090E09093200180931F01000008
:101C0000DF91CF919F918F910F9000925F000F9085
:101C10001F9018951F920F9200905F000F92112451
:101C20008F93CF93DF93CDB7DEB781E080931D0311
:101C30000000DF91CF918F910F9000925F000F9085
:101C40001F9018951F920F9200905F000F92112421
:101C50008F93CF93DF93CDB7DEB781E080932603D8
:101C60000000DF91CF918F910F9000925F000F9055
:101C70001F9018951F920F9200905F000F921124F1
:101C80008F93CF93DF93CDB7DEB7809128038F5F1B
:101C9000809328030000DF91CF918F910F900092E5
:101CA0005F000F901F9018958F929F92AF92BF92F6
:101CB000CF92DF92EF92FF920F931F93CF93DF9318
:101CC000CDB7DEB7A0970FB6F894DEBF0FBECDBF7D
:101CD000F89481E290E021E230E0F9012081277060
:101CE000FC01208382E290E022E230E0F9012081D1
:101CF000286FFC0120838AE290E02AE230E0F901BB
:101D000020812B7FFC0120838BE290E02BE230E0EE
:101D1000F90120812460FC0120838AE290E02AE21C
:101D200030E0F9012081277FFC0120838BE290E0E5
:101D30002BE230E0F90120812860FC01208384E25D
:101D400090E02FE0FC01208385E290E025E230E086
:101D5000F90120812F60FC01208388E690E028E6CD
:101D600030E0F90120812160FC0120838BE690E0C6
:101D70002BE630E0F9012081286FFC01208381E807
:101D800090E021E0FC01208381E890E02DEFFC0150
:101D9000208381E890E024E0FC0120838FE690E03E
:101DA00020E2FC0120830E94CB064ED8789458D5BF
:101DB00073D5FFDD87E690E098878F838AE290E015
:101DC0009A8789871C861B861E861D86188A1F8611
:101DD0001A8A198A1C8A1B8AE0901E03F0901F033E
:101DE0000091200310912103209146053091470571
:101DF000409148055091490588EE93E0DC010E942E
:101E0000D318DC01CB0147015801881A990AAA0AA4
:101E1000BB0AD501C401883E9340A105B105E8F095
:101E20008091460590914705A0914805B0914905DC
:101E30000196A11DB11D8093460590934705A0937F
:101E40004805B093490585E290E025E230E0F901CC
:101E5000308121E02327FC01208389E290E0FC010E
:101E60008081882F90E08870992721E0892B09F0E4
:101E700020E0822F8093100180911001882359F176
:101E800080911E0390911F03A0912003B091210324
:101E90009C01AD0128533F4F4F4F5F4F80914A0542
:101EA00090914B05A0914C05B0914D058217930779
:101EB000A407B50710F580914E058823F1F481E061
:101EC00080934E0590914F0581E0992309F080E0C1
:101ED00080934F0512C080911E0390911F03A09123
:101EE0002003B091210380934A0590934B05A09362
:101EF0004C05B0934D0510924E0580914F058823F7
:101F000049F085E290E025E230E0F90120812D7F63
:101F1000FC01208380914F05882349F485E290E0FD
:101F200025E230E0F90120812260FC01208389E272
:101F300090E0FC018081882F90E08470992721E057
:101F4000892B09F020E0822F80930F0180912603D6
:101F5000882321F480910F018130A9F5809105013A
:101F6000909106019C0140E050E080912203909105
:101F70002303A0912403B0912503280F391F4A1F82
:101F80005B1F80911E0390911F03A0912003B091CD
:101F90002103281739074A075B0718F481E080936B
:101FA000270380911E0390911F03A0912003B091FD
:101FB00021038093220390932303A0932403B093DF
:101FC00025031092260380914F05882329F08091E4
:101FD0005005882309F481D480914F0580935005E2
:101FE00080912703882309F469C285E290E025E205
:101FF00030E0F901308128E02327FC012083809123
:102000002D0390912E03A0912F03B0913003809364
:10201000290390932A03A0932B03B0932C03809160
:10202000310390913203A0913303B0913403809334
:102030002D0390932E03A0932F03B0933003809130
:10204000350390913603A0913703B0913803809304
:10205000310390933203A0933303B0933403809100
:10206000390390913A03A0913B03B0913C038093D4
:10207000350390933603A0933703B09338038091D0
:102080001E0390911F03A0912003B0912103809320
:10209000390390933A03A0933B03B0933C0381E050
:1020A00080933D0380913F0380933E0380914003E2
:1020B00080933F0380914103809340032091390333
:1020C00030913A0340913B0350913C03809135039A
:1020D00090913603A0913703B09138032817390740
:1020E0004A075B0709F454C08091070190910801E9
:1020F000CC01A0E0B0E0BC01CD013CD76B017C017C
:102100008091390390913A03A0913B03B0913C0335
:10211000BC01CD012FD74B015C018091350390911B
:102120003603A0913703B0913803BC01CD0122D70B
:10213000DC01CB019C01AD01C501B40119D6DC0164
:10214000CB019C01AD01C701B6017BD6DC01CB01FF
:102150006C017D0180910901882F90E0A0E0B0E042
:10216000BC01CD0107D7DC01CB0111E09C01AD0121
:10217000C701B601B1D788230CF410E0812F8093FA
:10218000410380914103882329F410924F0502C036
:102190001092410380913D03882309F47DC1809111
:1021A0003E03882309F478C180913F03882309F412
:1021B00073C180914003882309F46EC1809141036B
:1021C000882309F469C18091070190910801CC012D
:1021D000A0E0B0E0BC01CD01CDD6DC01CB019C017B
:1021E000AD01BC01CD01C5D5DC01CB016C017D0188
:1021F00020913503309136034091370350913803D5
:1022000080912D0390912E03A0912F03B091300364
:1022100049015A01881A990AAA0ABB0AD501C401C0
:10222000BC01CD01A7D6DC01CB019C01AD01C701EA
:10223000B60107D6DC01CB018093360590933705B4
:10224000A0933805B09339052091390330913A03B2
:1022500040913B0350913C038091310390913203B4
:10226000A0913303B091340379018A01E81AF90A85
:102270000A0B1B0BD801C7018D8B9E8BAF8BB88FC0
:102280002091350330913603409137035091380344
:1022900080912D0390912E03A0912F03B0913003D4
:1022A00049015A01881A990AAA0ABB0AD501C40130
:1022B000898F9A8FAB8FBC8F20913103309132037D
:1022C00040913303509134038091290390912A0364
:1022D000A0912B03B0912C0379018A01E81AF90A25
:1022E0000A0B1B0BD801C7018D8F9E8FAF8FB8A330
:1022F0008091070190910801CC01A0E0B0E0BC0101
:10230000CD0138D6DC01CB0120E030E04AE754E4CF
:10231000BC01CD0196D5DC01CB019C01AD01BC0116
:10232000CD0127D5DC01CB016C017D016D897E8952
:102330008F89988D1FD6DC01CB019C01AD0160E037
:1023400070E08AE794E47DD5DC01CB014C015D01AE
:102350006D8D7E8D8F8D98A10DD6DC01CB019C01FA
:10236000AD0160E070E08AE794E46BD5DC01CB015D
:102370009C01AD01C501B401FBD4DC01CB014C01D2
:102380005D01698D7A8D8B8D9C8DF4D5DC01CB013F
:1023900020E030E04AE754E4BC01CD0152D5DC0135
:1023A000CB019C01AD01C501B4014BD5DC01CB01D2
:1023B0009C01AD01C701B60193D6DC01CB0180932E
:1023C0003A0590933B05A0933C05B0933D05809161
:1023D0000B0190910C01A0910D01B0910E01B0582C
:1023E00020913605309137054091380550913905D7
:1023F000BC01CD0175D6DC01CB017C018D01809142
:102400003A0590913B05A0913C05B0913D059C019A
:10241000AD01C801B70164D6DC01CB0180933E0554
:1024200090933F05A0934005B093410580914F05DF
:102430008823A1F020913E0530913F054091400551
:10244000509141058091360590913705A09138054E
:10245000B0913905BC01CD0167D22EC020913A055B
:1024600030913B0540913C0550913D0580913605EA
:1024700090913705A0913805B0913905BC01CD0187
:1024800015D3DC01CB018093420590934305A093C3
:102490004405B093450510C01092360510923705DB
:1024A000109238051092390510923A0510923B05AA
:1024B00010923C0510923D051092270380911D0358
:1024C000813009F040C00F2EF5E2EF2EF1E0FF2E33
:1024D000F02D04E211E023E231E044E051E061E25A
:1024E00071E083E091E00E94F40480912301282FA1
:1024F00030E080912401882F90E0880F991FAC0173
:10250000440F551F440F551F840F951F280F391F67
:1025100080912501482F50E064E6649FC001659FCB
:10252000900D1124820F931F909327018093260111
:10253000209104019091210180910301422F692F84
:102540000BD810921D0380912801282F30E08F8135
:102550009885821793070CF05AC01A82198217C007
:1025600089819A81880F991F875D9E4FFC01208188
:10257000318189819A81880F991F8D5D9D4FFC0162
:102580003183208389819A8101969A838983898105
:102590009A818736910524F381E090E09C838B83B8
:1025A0001CC08B819C81880F991F875D9E4FFC0109
:1025B000808191819C8B8B8B8B819C8101972B8956
:1025C0003C89880F991F875D9E4FFC0131832083D2
:1025D0008B819C8101969C838B838B819C81893626
:1025E0009105FCF28091280181508093280180910F
:1025F0002801882F90E020912201222F30E0880FBF
:10260000991F875D9E4FFC01318320830FC080910D
:102610002801882F90E020912201222F30E0880F9E
:10262000991F875D9E4FFC01318320838091280193
:102630008F5F8093280180910301882F90E087307D
:10264000910509F46BC08C30910509F4B3C0029771
:1026500009F0CEC063E081E00E94810A8FEC96E031
:102660000E94340A64E081E00E94810A80EE96E0D4
:102670000E94340A64E081E00E94810A809136055C
:1026800090913705A0913805B091390526E636E6D8
:1026900046E650E4BC01CD0123D5DC01CB01BC01F1
:1026A000CD0137D4DC01CB016AE00E945E0A64E010
:1026B00088E00E94810A86EF96E00E94340A65E075
:1026C00081E00E94810A8BEF96E00E94340A66E066
:1026D00081E00E94810A85E097E00E94340A66E06A
:1026E00081E00E94810A80913E0590913F05A09172
:1026F0004005B0914105BC01CD010BD4DC01CB01FB
:102700006AE00E945E0A66E088E00E94810A83E136
:1027100097E00E94340A0E9456076BC01E821D82F9
:102720003CC08D819E81880F991F875D9E4FFC0163
:10273000808191812CE330E04901881A990AC40113
:10274000988B8F878D819E810D969C878B878D813D
:102750009E81880F991F8D5D9D4FFC018081918125
:102760002CE330E04901881A990AC4019A8B898BBD
:1027700029899B858B8502E0492F6CE30E948208A2
:102780002F859B858B8501E0492F6CE30E94820891
:102790008D819E8101969E838D838D819E8187365A
:1027A00091050CF4BECF0E945607109220011092A2
:1027B0001F011FC064E08BE00E94810A8091230109
:1027C0006AE00E945E0A64E08AE00E94810A8091C9
:1027D00024016AE00E945E0A64E089E00E94810AA6
:1027E000809125016AE00E945E0A0E94560701C09E
:1027F0000000809128038823E1F380912803282F8B
:10280000880F330B809151059091520582179307E1
:102810004CF480912803082E000C990B90935205DC
:102820008093510580912803282F880F330B440B88
:10283000550B80911E0390911F03A0912003B0912E
:102840002103820F931FA41FB51F80931E03909333
:102850001F03A0932003B093210310922803AACA58
:10286000CF93DF93CDB7DEB7F89489E690E029E601
:1028700030E0F90120812160FC0120838DE390E0AC
:102880002DE330E0F90120812160FC012083789460
:102890000000DF91CF910895CF93DF93CDB7DEB7DE
:1028A000F89485E490E025E430E0F901208123608C
:1028B000FC01208387E490E02AEFFC0120838EE670
:1028C00090E02EE630E0F90120812260FC012083B7
:1028D00078940000DF91CF910895CF93DF9300D0DB
:1028E000CDB7DEB71A82198214C089819A818E5BB6
:1028F0009C4FFC01108289819A81845C9B4FFC0172
:1029000010828FEF80930A0189819A8101969A83C0
:10291000898389819A818A3F91053CF300000F9059
:102920000F90DF91CF910895CF93DF93CDB7DEB7AE
:102930002A970FB6F894DEBF0FBECDBF6B837C83A2
:102940008D839E832F83388749875A8719821A82FD
:1029500020E030E040E951E46B817C818D819E81F3
:10296000BFD3DC01CB018B839C83AD83BE8320E08E
:1029700030E04FE753E46B817C818D819E81ACD345
:10298000181644F480E090E0AFE7B3E48B839C83B7
:10299000AD83BE8320E030E0A9016B817C818D8115
:1029A0009E814BD2882324F41B821C821D821E82AE
:1029B0006B817C818D819E81ACD2DC01CB018983CE
:1029C00020E030E040E05FE36F81788589859A857B
:1029D00087D3DC01CB018F839887A987BA8720E052
:1029E00030E0A9016F81788589859A8526D2882370
:1029F00024F41F82188619861A8620E030E04FE7FB
:102A000053E46F81788589859A8566D3181644F4D6
:102A100080E090E0AFE7B3E48F839887A987BA8717
:102A20006F81788589859A8574D2DC01CB018A8390
:102A300080910A019981981778F580915305882F24
:102A400090E08E5B9C4F2981FC0120838981882F37
:102A500090E0A0D881E191E080D880915305882F43
:102A600090E0845C9B4F2A81FC0120838A81882F1F
:102A700090E090D881E191E070D881E191E06DD84B
:102A8000898180930A01809153058A3F28F48091BF
:102A900053058F5F8093530500002A960FB6F89474
:102AA000DEBF0FBECDBFDF91CF9108958F929F9271
:102AB000AF92BF92CF92DF92EF92FF92CF93DF93CC
:102AC000CDB7DEB766970FB6F894DEBF0FBECDBFA9
:102AD0006F87788B898B9A8B2B8B3C8B4D8B5E8B86
:102AE0001E821F821886198619821A821B821C82F6
:102AF0001A861B861C861D861E861D8226E636E6E5
:102B000046E650E46F85788989899A89E9D2DC01A3
:102B1000CB0120E030E040EA50E4BC01CD01E0D23E
:102B2000DC01CB01BC01CD01F4D1DC01CB018E87EE
:102B300003C08D818F5F8D838D81882F90E08E5BA8
:102B40009C4FFC0190818E85891798F38D81882F89
:102B500090E08E5B9C4FFC0190818E859817A9F4C4
:102B60008D81882F90E0845C9B4FFC018081882FB1
:102B700090E0A0E0B0E0BC01CD01FCD1DC01CB01D4
:102B800089839A83AB83BC83AFC08D81882F90E00B
:102B90000197845C9B4FFC018081882F90E0A0E02E
:102BA000B0E0BC01CD01E6D16B017C018D81882FA5
:102BB00090E0845C9B4FFC018081882F90E0A0E036
:102BC000B0E0BC01CD01D6D1DC01CB019C01AD014F
:102BD000C701B601CDD0DC01CB016C017D018D8137
:102BE000882F90E001978E5B9C4FFC018081882F9D
:102BF00090E0A0E0B0E0BC01CD01BCD14B015C0194
:102C00008D81882F90E08E5B9C4FFC018081882F06
:102C100090E0A0E0B0E0BC01CD01ACD1DC01CB0183
:102C20009C01AD01C501B401A3D0DC01CB019C0125
:102C3000AD01C701B60105D1DC01CB016C017D01FD
:102C40008E85882F90E0A0E0B0E0BC01CD0192D14C
:102C50004B015C018D81882F90E08E5B9C4FFC01C5
:102C60008081882F90E0A0E0B0E0BC01CD0182D14E
:102C7000DC01CB019C01AD01C501B40179D0DC01BF
:102C8000CB019C01AD01C701B6012AD2DC01CB0109
:102C90006C017D018D81882F90E0845C9B4FFC014D
:102CA0008081882F90E0A0E0B0E0BC01CD0162D12E
:102CB000DC01CB019C01AD01C701B6015AD0DC019A
:102CC000CB0189839A83AB83BC8389819A81AB8151
:102CD000BC819C01AD01BC01CD014BD0DC01CB011D
:102CE00089839A83AB83BC8380910B0190910C0103
:102CF000A0910D01B0910E012F85388949895A891B
:102D0000BC01CD01EDD1DC01CB012B893C894D8982
:102D10005E89BC01CD01E4D1DC01CB018A879B87B0
:102D2000AC87BD872A853B854C855D8569817A8125
:102D30008B819C811ED0DC01CB018E839F83A88771
:102D4000B9878E819F81A885B985BC01CD01669622
:102D50000FB6F894DEBF0FBECDBFDF91CF91FF90CD
:102D6000EF90DF90CF90BF90AF909F908F9008959D
:102D70005058BB27AA270ED075C166D130F06BD151
:102D800020F031F49F3F11F41EF45BC10EF4E09586
:102D9000E7FB51C1E92F77D180F3BA1762077307B8
:102DA0008407950718F071F49EF58FC10EF4E09535
:102DB0000B2EBA2FA02D0B01B90190010C01CA01F5
:102DC000A0011124FF27591B99F0593F50F4503EA0
:102DD00068F11A16F040A22F232F342F4427585F92
:102DE000F3CF469537952795A795F0405395C9F7AA
:102DF0007EF41F16BA0B620B730B840BBAF0915062
:102E0000A1F0FF0FBB1F661F771F881FC2F70EC000
:102E1000BA0F621F731F841F48F4879577956795D3
:102E2000B795F7959E3F08F0B3CF9395880F08F0BC
:102E30009927EE0F979587950895D9D008F481E0EA
:102E400008950CD00FC107D140F0FED030F021F42E
:102E50005F3F19F0F0C0511139C1F3C014D198F39C
:102E60009923C9F35523B1F3951B550BBB27AA270B
:102E700062177307840738F09F5F5F4F220F331F7D
:102E8000441FAA1FA9F333D00E2E3AF0E0E830D049
:102E900091505040E695001CCAF729D0FE2F27D04C
:102EA000660F771F881FBB1F261737074807AB071A
:102EB000B0E809F0BB0B802DBF01FF2793585F4F8F
:102EC0002AF09E3F510568F0B6C000C15F3FECF3A9
:102ED000983EDCF3869577956795B795F7959F5F54
:102EE000C9F7880F911D9695879597F90895E1E0A8
:102EF000660F771F881FBB1F621773078407BA0707
:102F000020F0621B730B840BBA0BEE1F88F7E09561
:102F1000089504D06894B111D9C00895BCD088F048
:102F20009F5790F0B92F9927B751A0F0D1F0660FB5
:102F3000771F881F991F1AF0BA95C9F712C0B130D0
:102F400081F0C3D0B1E00895C0C0672F782F8827E3
:102F5000B85F39F0B93FCCF3869577956795B3950F
:102F6000D9F73EF490958095709561957F4F8F4F7E
:102F70009F4F0895E89409C097FB3EF49095809583
:102F8000709561957F4F8F4F9F4F9923A9F0F92F2F
:102F900096E9BB279395F695879577956795B795AD
:102FA000F111F8CFFAF4BB0F11F460FF1BC06F5F93
:102FB0007F4F8F4F9F4F16C0882311F096E911C0A5
:102FC000772321F09EE8872F762F05C0662371F0C6
:102FD00096E8862F70E060E02AF09A95660F771FDA
:102FE000881FDAF7880F9695879597F90895990FB6
:102FF0000008550FAA0BE0E8FEEF16161706E807C3
:10300000F907C0F012161306E407F50798F0621BE3
:10301000730B840B950B39F40A2661F0232B242BB8
:10302000252B21F408950A2609F4A140A6958FEFD7
:10303000811D811D089597F99F6780E870E060E029
:1030400008959FEF80EC089500240A941616170641
:1030500018060906089500240A9412161306140689
:1030600005060895092E0394000C11F4882352F0EC
:10307000BB0F40F4BF2B11F460FF04C06F5F7F4FA4
:103080008F4F9F4F089557FD9058440F551F59F08B
:103090005F3F71F04795880F97FB991F61F09F3F45
:1030A00079F087950895121613061406551FF2CF6E
:1030B0004695F1DF08C0161617061806991FF1CFBE
:1030C00086957105610508940895E894BB276627E5
:1030D0007727CB0197F908958ADF08F48FEF0895D9
:1030E0000BD0C0CFB1DF28F0B6DF18F0952309F080
:1030F000A2CFA7CF1124EACFC6DFA0F3959FD1F3CB
:10310000950F50E0551F629FF001729FBB27F00D95
:10311000B11D639FAA27F00DB11DAA1F649F6627EA
:10312000B00DA11D661F829F2227B00DA11D621F39
:10313000739FB00DA11D621F839FA00D611D221FF3
:10314000749F3327A00D611D231F849F600D211DD7
:10315000822F762F6A2F11249F5750408AF0E1F07A
:1031600088234AF0EE0FFF1FBB1F661F771F881FC3
:1031700091505040A9F79E3F510570F05CCFA6CF0B
:103180005F3FECF3983EDCF3869577956795B795AE
:10319000F795E7959F5FC1F7FE2B880F911D9695D8
:1031A000879597F9089509D0A59F900DB49F900D2C
:1031B000A49F800D911D11240895A29FB001B39F7B
:1031C000C001A39F700D811D1124911DB29F700D30
:1031D000811D1124911D08954532510518F4423086
:1031E00008F004C0FB011082CB010895BB274A30D0
:1031F00031F4992322F4BDE2909581959F4F01C04F
:10320000BB27FB015527AA27880F991FAA1FA417C0
:1032100010F0A41B83955051B9F7A05DAA3308F0B4
:10322000A95DA193009779F7B111B1931192CB01E8
:1032300000C0DC01FC01672F71917723E1F7329721
:1032400004C07C916D9370836291AE17BF07C8F381
:063250000895F894FFCF81
:103256000B0206020B3200A70801FF0000A042FF86
:04326600FF0A0D004E
:00000001FF
