:1000000054C6000070C600006EC600006CC600003A
:100010006AC6000068C6000066C6000064C600002C
:1000200062C600000C94330E5EC600005CC6000081
:100030005AC6000058C6000056C6000054C600004C
:1000400052C6000050C600004EC600004CC600005C
:100050000C94720E0C949D0E46C6000044C600001F
:1000600042C6000040C600003EC600003CC600007C
:100070003AC6000038C6000036C6000034C600008C
:1000800032C6000030C600002EC60000202020200E
:100090002020202020616C6C202020202020202087
:1000A000100D0A0020202020202020546F67676C4C
:1000B0006520202020202020200D0A002020202044
:1000C0002020202020202020202020202020202030
:1000D000200D0A0020202020202020202020192070
:1000E0002020202020202020200D0A00204772659B
:1000F000656E201B2045786974201A20426C756556
:10010000200D0A0020202020202020202020182040
:100110002020202020202020200D0A002020202028
:1001200020202020202020202020202020202020CF
:10013000200D0A002020202020202020205265644D
:100140002020202020202020200D0A006F6E207407
:100150006865206E6578742073637265656E2E0025
:10016000746F67676C6520746865206261636B6C8F
:10017000696768740D0A0055736520746865206AA4
:100180006F79737469636B20746F0D0A006E657804
:10019000742064656D6F6E7374726174696F6E2E16
:1001A0000D0A005075736820627574746F6E206656
:1001B0006F720D0A0053637265656E2033005363DE
:1001C0007265656E20320053637265656E2034007F
:1001D00053637265656E203100627574746F6E20B2
:1001E0006D65616E7320657869742E0D0A00736306
:1001F0007265656E732E20416761696E2C0D0A0071
:10020000726563616C6C20746865206C6173740D39
:100210000A0055736520746865206A6F7973746984
:10022000636B20746F0D0A00436C6561722F536518
:10023000742F584F522044656D6F2E0041646469DD
:100240006E6720636972636C65732E00436F6E6E18
:10025000656374696E672E0053657420736F6D65F6
:1002600020706978656C732E004F4B2C2074686188
:1002700074277320656E6F7567682E2E2E0D0A0A1F
:10028000002846696E6573742050574D20736F7552
:100290006E647321290D0A0A004C6574277320646B
:1002A000616E6365210D0A0A0052582D415343497E
:1002B000492D436F64653A2000736F6D6520737438
:1002C00072696E67732E20202020202020200D0AC6
:1002D00000557365206A6F79737469636B20746F5E
:1002E0002073656E64200D0A00393630302042617B
:1002F00075642C20384E31202020202020200D0A2B
:1003000000536574757020796F7572207465726D15
:10031000696E616C3A200D0A00554152542D4465B6
:100320006D6F6E7374726174696F6E2020200D0A98
:100330000A00202020456C656B74726F74656368D9
:100340006E696B202020200D0A0020756E64204706
:1003500072756E646C6167656E2064657220200D35
:100360000A0020496E737469747574206681722066
:100370004D657373742E200D0A00456E6A6F7920E7
:100380007468652064656D6F212020202020200086
:1003900073637265656E2E2020202020202020208F
:1003A00020202020200D0A0A0070726F63656564AA
:1003B00020746F20746865206E65787420200D0AA3
:1003C000006A6F79737469636B20627574746F6E01
:1003D00020746F2020200D0A00416C776179732012
:1003E00070757368207468652020202020200D0A15
:1003F000002D444D4D204156522D426F61726420B4
:1004000044656D6F2D200D0A0A0080E0F0F8F8FCBD
:10041000FCFCFCFCFCFCFCFCFCFCFCFCFCFCFCFC1C
:10042000FCFCFCFCFCFCF8F8F0E0800000FCFCFCB0
:10043000FCFCFCFCFCFCF0F8FCFCFCFCFCFCFCFC0C
:10044000FCFCFCFCFCFCFCF8F8F0E0C0E0F0F8F888
:10045000FCFCFCFCFCFCFCFCFCFCFCFCFCFCFCFCDC
:10046000F8F8F0E080000080E0F0F8F8FCFCFCFC1C
:10047000FCFCFCFCFCFCFCFCFCFCFCFCFCFCFCFCBC
:10048000FCFCFCFCFCF8F8F0E080FFFFFFFFFFFF46
:10049000FFFFFFF7F3F1F1F1F1F1F1F1F1F1F1F11A
:1004A000F1F7FFFFFFFFFFFFFFFFFF0000FFFFFF70
:1004B000FFFFFFFFFF1F0703010101010101010110
:1004C0000101030FFFFFFFFFFFFFFFFFFF07030314
:1004D000010101010101010101010307FFFFFFFF0C
:1004E000FFFFFFFFFF0000FFFFFFFFFFFFFFFFFF1A
:1004F0001F030101010101010101010101010103CA
:1005000007FFFFFFFFFFFFFFFFFFFFFFFFFFFFFFF3
:10051000FFFFFFF1E1C1C181818181C1C1C1C1C1C1
:10052000C1E1E1E1E1E1E1E1E1E1E10000FFFFFF43
:10053000FFFFFFFFFF0000000000000000000000C0
:1005400000000000FFFFFFFFFFFFFFFFFF000000B4
:10055000000000000000000000000000FFFFFFFF9F
:10056000FFFFFFFFFF0000FFFFFFFFFFFFFFFFFF99
:10057000F0E0C0C0C0C0C0C0C0C0C0C0C0C0C0E00B
:10058000F0FFFFFFFFFFFFFFFFFF000107070F0F57
:100590000F1F1F1F1F1F1F1F1F1F1F1F1F1F1F1F7B
:1005A0001F1F1F1F0F0F0F0707030000001F1F1F34
:1005B0001F1F1F1F1F0000000000000000000000A0
:1005C000000000001F1F1F1F1F1F1F1F1F00000014
:1005D0000000000000000000000000001F1F1F1F9F
:1005E0001F1F1F1F1F00000003070F0F0F0F0F0F0C
:1005F0000F0F0F0F0F0F0F0F0F0F0F0F0F0F0F8F8B
:10060000CFFFFFFFFFFFFFFFFFFF1F1F1F1F1F1F6A
:100610001F1F1F1F1F1F1F1F1F1F1F1F1F1F1F1FEA
:100620001F1F1F1F1F1F1F1F1F1F1F1F1F1F1F1FDA
:100630001F1F1F1F1F1F1F1F1F1F1F1F1F1F1F1FCA
:100640001F1F1F1F1F1F1F1F1F1F1F1F1F1F1F1FBA
:100650001F1F1F1F1F1F1F1F1F1F1F1F1F1F1F1FAA
:100660001F1F1F1F1F1F1F1F1F1F1F1F1F1F1F1F9A
:100670001F1F1F1F1F1F1F1F1F1F1F1F1F1F1F1F8A
:100680001F1F1F1F1F1F1F0F07010000000000007A
:10069000003E4551453E003E6B6F6B3E001C3E7C6C
:1006A0003E1C00183C7E3C180030367F3630001867
:1006B0005C7E5C18000000000000000000000000EC
:1006C0000000000000000000000000000030484A68
:1006D000360E00062979290600000000000000609F
:1006E0007E0A353F002A1C361C2A00007F3E1C086B
:1006F00000081C3E7F000014367F361400005F00A7
:100700005F000006097F017F00224D5559220060DD
:10071000606060000014B6FFB6140004067F060493
:100720000010307F30100008083E1C0800081C3EF6
:10073000080800784040404000083E083E0800306D
:100740003C3F3C3000030F3F0F030000000000005F
:100750000000065F060000070300070300247E2454
:100760007E2400242B6A12000063130864630036A1
:100770004956205000000703000000003E410000E1
:100780000000413E000000083E1C3E080008083EF4
:1007900008080000E06000000008080808080000E1
:1007A00060600000002010080402003E5149453EF0
:1007B0000000427F400000625149494600224949F9
:1007C0004936001814127F10002F49494931003C66
:1007D0004A49493000017109050300364949493643
:1007E00000064949291E00006C6C00000000EC6CFA
:1007F00000000008142241000024242424240000C6
:1008000041221408000201590906003E415D551EAF
:10081000007E1111117E007F49494936003E414159
:100820004122007F4141413E007F49494941007FCB
:1008300009090901003E4149497A007F0808087FFB
:100840000000417F410000304040403F007F0814DD
:100850002241007F40404040007F0204027F007F31
:100860000204087F003E4141413E007F090909061C
:10087000003E4151215E007F090919660026494961
:1008800049320001017F0101003F4040403F001F0D
:100890002040201F003F403C403F00631408146389
:1008A00000070870080700714945430000007F41B8
:1008B0004100000204081020000041417F000004B4
:1008C0000201020480808080808000000307000015
:1008D000002054545478007F444444380038444441
:1008E000442800384444447F0038545454080008D5
:1008F0007E0909000018A4A4A47C007F04047800E9
:100900000000007D4000004080847D00007F1028B2
:1009100044000000007F4000007C04180478007C44
:100920000404780000384444443800FC444444380B
:100930000038444444FC00447844040800085454FB
:10094000542000043E442400003C40207C00001C55
:100950002040201C003C6030603C006C10106C009B
:10096000009CA0603C00006454544C0000083E41D0
:100970004100000000770000000041413E080002F5
:1009800001020100003C2623263C001EA1E12112A9
:10099000003D40207D000038545455090020555535
:1009A000557800205554557800205555547800202E
:1009B00057555778001CA2E22214003855555508A7
:1009C0000038555455080038555554080000017C2E
:1009D00041000000017D41000000017C40000070EA
:1009E0002924297000782F252F78007C54545545F0
:1009F0000034547C5458007E097F494900384545ED
:100A00003900003845443900003945443800003C7D
:100A100041217D00003D41207C00009CA1603D0003
:100A2000003D42423D00003C41403D00807068581E
:100A3000380400483E494962007E615D433F002220
:100A4000140814220040887E09020020545555786D
:100A50000000007D4100003844453900003C402141
:100A60007D00007A090A7100007A112279000008DD
:100A70005555555E004E51514E000030484D4020B6
:100A80003E415D4B553E04040404041C0017084C11
:100A90006A50001708342A780000307D30000008C2
:100AA00014000814001408001408441144114411DF
:100AB000AA55AA55AA55BBEEBBEEBBEE000000FF3F
:100AC0000000080808FF0000007028252970007049
:100AD000292529700070292528703E415D55413E29
:100AE0000AFB00FF000000FF00FF00000AFA02FE00
:100AF00000000A0B080F00000018246624000029DB
:100B00002A7C2A29080808F800000000000F0808BD
:100B10000808080F0808080808F80808000000FF7F
:100B20000808080808080808080808FF080800203E
:100B30005655567900702A252A71000F080B0A0AAB
:100B400000FE02FA0A0A0A0B080B0A0A0AFA02FA5B
:100B50000A0A00FF00FB0A0A0A0A0A0A0A0A0AFB32
:100B600000FB0A0A005D2222225D00225559300056
:100B700000087F49413E007C55555544007C555442
:100B80005544007C55555444000000070000000007
:100B9000447D45000000457D45000000457C450042
:100BA0000808080F0000000000F80808FFFFFFFF1A
:100BB000FFFFF0F0F0F0F0F0000000770000000020
:100BC000457D44000F0F0F0F0F0F003C42433D00C7
:100BD00000FE4A4A3400003C43433D00003D43428E
:100BE0003C000032494A3100003A4546390000FCD9
:100BF00020201C0000FEAA28100000FFA5241800D9
:100C0000003C40413D00003C41413D00003D414031
:100C10003C00009CA0613D00000408710904000034
:100C2000020202000000070300000000080808009C
:100C30000000242E240000242424242405170A3430
:100C40002A780006097F017F00224D5559220008AD
:100C5000082A0808000008181800000609090600FC
:100C600000000800080000000800000000020F005B
:100C7000000000090F05000000090D0A0000003CFB
:100C80003C3C3C00000000000000101316191B1D26
:100C90001F2020201F1D1B191613100D0A07050306
:100CA00001000000010305070A0D11241FBECFEF4C
:100CB000D0E4DEBFCDBF11E0A0E0B1E0E8E9FEE1A5
:100CC00000E00BBF02C007900D92AC39B107D9F715
:100CD00026E0ACE9B1E001C01D92A230B207E1F715
:100CE0003BD30C944A0F8CC984E063D681EF93E028
:100CF000FBD589ED93E0F8D581EC93E0F5D589EA51
:100D000093E0F2D580E993E0EFD58AE793E0ECD564
:100D10000CD467E084E1F5D580E194D506D403993D
:100D2000FECF039BFECF2FEF89EF90E02150804054
:100D30009040E1F700C000000399FECF089585E1DF
:100D400038D637D422EA31E045E060E070E080E058
:100D500090E0FB01E80FF91F8038910549F0E65F4C
:100D6000FB4FE491D901A80FB91FEC930196F1CF85
:100D7000415020583F4F442311F0BF01E8CF8FE18D
:100D800080939E0165E080E0BCD582E693E0ACD51F
:100D90008AE493E0A9D582E393E0A6D5C6D367E0C1
:100DA00084E1AFD580E14ED5C0D30399FECF039B3C
:100DB000FECF2FEF89EF90E0215080409040E1F787
:100DC00000C000000399FECF08950F931F93CF93A7
:100DD000DF93CDB7DEB72A970FB6F894DEBF0FBE0C
:100DE000CDBFE7D380E1E5D560E080E08AD589E139
:100DF00093E07AD581E093E077D589EE92E074D5DF
:100E000081ED92E071D589EB92E06ED567E084E1E7
:100E100078D580E117D589D3039BFECF2FEF39EF2B
:100E200080E0215030408040E1F700C00000039B8B
:100E3000FECFB8D78C0197FD1DC087E067D567E06E
:100E400080E05FD589EA92E04FD54AE0BE016F5F4E
:100E50007F4FC801ECD7CE0101963AD567E084E117
:100E600050D580E1EFD461D38FE39CE90197F1F78E
:100E700000C000009FEF29EF30E09150204030404B
:100E8000E1F700C0000080B1887FE9F380B1887F7E
:100E9000883DA1F038F4883771F0883BA9F48FE0E1
:100EA00091E011C0883E69F0803F71F483E491E0E5
:100EB0007CD780E00AC080E091E005C080E291E04C
:100EC00002C081E391E071D781E09FEF23EC39E02C
:100ED000915020403040E1F700C000008111A9CFBF
:100EE0002A960FB6F894DEBF0FBECDBFDF91CF912B
:100EF0001F910F9108955DD381E05BD560E080E0A4
:100F000000D589E992E0F0D481E892E0EDD40DD3E8
:100F10008CE491E0A1D589E692E0E6D406D367E0BF
:100F200084E1EFD480E18ED400D30399FECF039BFC
:100F3000FECF2FEF89EF90E0215080409040E1F705
:100F400000C000000399FECF08950F931F93CF9325
:100F5000DF9385E12ED52DD360E080E0D2D488E503
:100F600092E0C2D441E06AE08AE039D341E06CE229
:100F70008CE035D341E06EE38FE631D341E066E1AA
:100F800085E62DD3D2D267E084E1BBD480E15AD488
:100F9000CCD20399FECF039BFECF2FEF89EF90E0D9
:100FA000215080409040E1F700C000000399FECF3F
:100FB00080E090E009D580E0A9D460E080E0A1D491
:100FC0008CE492E091D401E02CE24CE06AE08AE00B
:100FD00052D32EE34FE66CE28CE04DD326E145E69A
:100FE0006EE38FE648D32AE04AE066E185E643D324
:100FF0009CD267E084E185D480E124D496D2039921
:10100000FECF039BFECF2FEF89EF90E02150804071
:101010009040E1F700C000000399FECF88E090E027
:10102000D3D480E073D460E080E06BD48CE392E0B2
:101030005BD421E04AE060E280E491D321E044E126
:101040006EE186E48CD371D267E084E15AD480E10A
:10105000F9D36BD20399FECF039BFECF2FEF89EF1D
:1010600090E0215080409040E1F700C000000399DB
:10107000FECF80E190E0A8D49CD260E080E041D433
:1010800088E292E031D4C0E0D0E08E0183E0169592
:1010900007958A95E1F7017025E34C2F6AE08C2FC4
:1010A000EAD22196C038D10581F700E024E14FE76C
:1010B00064E180E0E0D201E02EE14FE76EE180E004
:1010C000DAD202E028E24FE768E280E0D4D22DD203
:1010D00067E084E116D480E1B5D327D20399FECF2F
:1010E000039BFECF2FEF89EF90E02150804090408E
:1010F000E1F700C000000399FECF88E190E064D4DE
:1011000058D260E080E0FDD382E192E0EDD380E050
:1011100092E0EAD38EEE91E0E7D389ED91E0E4D35B
:1011200004D280B1887FE9F32FEF85EA9EE0215059
:1011300080409040E1F700C0000080B1887FE9F373
:1011400080B190E080959095887F992780329105B5
:1011500071F18CF48830910509F434C0409709F797
:1011600080E190E055D480E0D1D360E080E0C9D345
:1011700085EB91E0D4CF8034910571F080389105F2
:1011800081F680E090E044D480E0C0D360E080E06D
:10119000B8D380ED91E0C3CF88E190E039D480E00E
:1011A000B5D360E080E0ADD387EC91E0B8CF88E0C4
:1011B00090E02ED480E0AAD360E080E0A2D38EEB52
:1011C00091E0ADCFF6D160E080E09BD383EA91E07F
:1011D0008BD38DE891E088D367E084E192D380E1FE
:1011E00031D3A3D10399FECF039BFECF2FEF89EF1D
:1011F00090E0215080409040E1F700C0000003994A
:10120000FECFDF91CF911F910F910895FF920F9321
:101210001F93CF93DF9385E1CCD3CBD160E080E007
:1012200070D387E791E060D380E691E05DD38CE4F2
:1012300091E05AD37AD167E084E163D380E102D3AD
:1012400074D10399FECF039BFECF2FEF89EF90E07F
:10125000215080409040E1F700C000000399FECF8C
:1012600075D3A7D160E080E04CD384E391E03CD318
:101270008CE191E039D384E091E036D38CEE90E0BC
:1012800033D384ED90E030D38CEB90E02DD384EA1F
:1012900090E02AD38CE890E027D347D1039BFECF80
:1012A0002FEF89EF90E0215080409040E1F700C09F
:1012B0000000039BFECFC0E8D4E015E101E080E12F
:1012C000F82EC7FF43C080B190E080959095887F4D
:1012D0009927892BC1F72FEF85EA9EE021508040A6
:1012E0009040E1F700C0000080B1887FE9F380B151
:1012F00090E080959095887F99278032910591F0B4
:101300003CF48830910561F0409779F4CF250DC009
:101310008034910549F08038910539F4C02705C023
:10132000C0E003C0CD2701C0C12780B1887FE9F3A9
:101330008C2F85713ED385B1807F85B9C0FD289AF9
:10134000C2FD299AC4FFBDCF2A9ABBCFDF91CF91AE
:101350001F910F91FF902DC181B1877081B982B12A
:10136000886F82B98FE084B985B18F6085B9FED26C
:1013700094D4BADCE4DC29DDE8DD48DFBCDDE6D26C
:1013800018D1FFCF0F931F93CF93DF93EB018A0107
:101390000DD4CE01880F892F881F990B91958F71DD
:1013A00005D4812F8170CC0F8C2B00D4802FDF913E
:1013B000CF911F910F91FAC32C9887EDF7D380E05E
:1013C000FAD387FFFCCF2C9A0895249A2C9ADCC379
:1013D0001F93CF93DF93EC01162FEEDF2C9840E0A4
:1013E00050E0BE01123011F083E801C086E8CADF88
:1013F0002C9ADF91CF911F910895DF92EF92FF9287
:101400000F931F93CF93DF93D82EEB018A017901BD
:10141000D3DF2C9882E0AE0160E070E0D81611F0C6
:1014200084E801C087E8AEDFE7010E0D1F1DC0177D
:10143000D10719F08991BAD3FACF2C9ADF91CF91C5
:101440001F910F91FF90EF90DF900895CF92DF9260
:10145000EF92FF920F931F93CF93DF93EC016B01F9
:101460008A017901A9DF2C98A601BE0183E08ADFF9
:10147000E7010E0D1F1DC017D10721F080E09BD39F
:101480008993F9CF2C9ADF91CF911F910F91FF9003
:10149000EF90DF90CF900895FC01A281B3819D0170
:1014A0002F5F3F4F8C919681915019F49181291BA8
:1014B00031093383228396832FB7F894908191501A
:1014C00090832FBF0895FC0110827583648373831A
:1014D00062834183478346830895FC012081222350
:1014E00019F0DADF90E008958FEF9FEF0895FC0187
:1014F000908181819817B8F4A481B5819D012F5FF7
:101500003F4F6C938781815019F48181281B3109E9
:101510008783358324839FB7F89480818F5F80838E
:101520009FBF81E0089580E00895DF92EF92FF92DF
:101530000F931F93CF93DF93DFB6F89482E2E82EE8
:1015400085E0F82EC7E0D0E080919E0190E00C2E5F
:1015500002C0959587950A94E2F780FF17C04698D8
:1015600047988C2F806B22D380E120D380E01ED35C
:10157000479A00E010E0F701E00FF11F808116D3D9
:101580000F5F1F4F00381105B1F7469A219780E889
:10159000E81AF108CF3F2FEFD207B1F610929E0163
:1015A000DFBEDF91CF911F910F91FF90EF90DF9001
:1015B000089522EA31E048E080E090E0F901E80F88
:1015C000F91F1082019680389105C1F741502058CB
:1015D0003F4F4111F1CF8FEF80939E01A6CF87FD42
:1015E00049C0603408F046C0562F5695569556951A
:1015F000677021E030E0F90102C0EE0FFF1F6A952D
:10160000E2F7BF01E52FF0E0282F30E0442371F02E
:101610004230C9F4F695FE2FEE27F795E795EE5583
:10162000FE4FE20FF31F8081682718C0F695FE2F4A
:10163000EE27F795E795EE55FE4FE20FF31F609505
:10164000808168230BC0F695FE2FEE27F795E7956E
:10165000EE55FE4FE20FF31F8081682B608381E01F
:1016600090E001C0880F5A95EAF790919E01892B6E
:1016700080939E0108957F928F929F92AF92BF9226
:10168000CF92DF92EF92FF920F931F93CF93DF934E
:10169000182FD62FD42EC22E842F90E0811B9109B3
:1016A00097FF03C0919581959109B82E2C2D30E0BC
:1016B0002D1B310937FF03C0319521953109822E49
:1016C000A22E1D1518F077247A9402C07724739403
:1016D000DC1518F099249A9402C099249394A816C2
:1016E0006CF4C82F87FF02C0C1E0C80FC595282F32
:1016F000332721950CF43095790117C0CA2DA7FE28
:1017000002C0C1E0CA0DC595C195F1CFDC15C9F085
:101710008C2F0C2E000C990BE816F9066CF48C2F0C
:101720008819170DCA1554F0C82F402F6D2F812F1F
:1017300056DF1D11EDCFEACF8C2FF4CF8B0DD90DD5
:10174000F3CFDF91CF911F910F91FF90EF90DF903A
:10175000CF90BF90AF909F908F907F900895AF9261
:10176000BF92CF92DF92EF92FF920F931F93CF938E
:10177000DF93E82ED62EF22E81E0C82EC41AB42EA6
:10178000B194BB0CC42F642F6D0D422F8E2D27DF1B
:101790006D2D6C1B4F2D8E2D22DF4F2D6D2D8C2F1F
:1017A0008E0D1DDF4F2D6D2D8E2D8C1B18DFD0E083
:1017B000DC170CF03CC0C7FC04C0C150B394B39418
:1017C000CB0CDF5F8D2F880F8F5FC80EAE2CAD0E58
:1017D0004F2D1D2D1C0F612F8A2D01DF0E2D0D1B8E
:1017E0004F2D612F802FFBDE4F2D1D2D1C1B612FD8
:1017F0008A2DF5DE4F2D612F802FF1DE1D2D1D0F5F
:101800004F2D612F0E2D0C0F802FE9DE4F2D612FF4
:101810001E2D1C1B812FE3DEAD2CAD1A4F2D6A2D22
:10182000802FDDDE4F2D6A2D812FD9DEC1CFDF91D4
:10183000CF911F910F91FF90EF90DF90CF90BF90CD
:10184000AF900895CF938A30D1F18D30A9F1C09136
:101850009C0190919D0126E0829FA001112486E0C9
:10186000989FB001112420E8C29F600D711D1124C2
:1018700020E030E0F901E40FF51FE657F94FE4915D
:10188000D901A60FB71FAE55BE4FEC932F5F3F4F48
:101890002630310579F721E030E001C0220FCA95EA
:1018A000EAF780919E01282B20939E01943170F4D9
:1018B0009F5F90939D010AC010929D0107C0809187
:1018C0009C01873018F48F5F80939C01CF9108951D
:1018D000CF93DF93EC018881882319F08991B2DFDF
:1018E000FACFDF91CF910895CF93DF93EC01FE0102
:1018F00084912196882311F0A5DFF9CFDF91CF9154
:10190000089580939D0160939C01089590E8899FBC
:10191000A001112420E030E0F901E40FF51FEE559D
:10192000FE4F10822F5F3F4F20383105A9F721E08D
:1019300030E0A90102C0440F551F8A95E2F7CA01A1
:1019400090919E01892B80939E0108954ED184EC45
:1019500082D181E164D180E062D180E060D180E019
:101960005ED180E05CD180E05AD176C1CF930CD1BA
:1019700087B1806C87B9CFB7F8944798469882EEC4
:1019800015D183EA13D181E811D188E00FD180EA23
:101990000DD188EC0BD185E209D18FE207D18FEA16
:1019A00005D1469A479A05DECFBF0BD1CFDFCF9145
:1019B0000CCDCF93C82F19D184EC4DD185E12FD117
:1019C0008C2F2DD1CF9148C1EF92FF920F931F938F
:1019D000CF93DF937C0102EA11E0C0E0D0E09801F0
:1019E00040E850E060E070E082E007DD62E0C701BF
:1019F0008C0F9D1FEDDC219600581F4FC830D1057C
:101A000071F7DF91CF911F910F91FF90EF900895A3
:101A1000EF92FF920F931F93CF93DF937C0102EA23
:101A200011E0C0E0D0E0980140E850E060E070E0F4
:101A3000C7018C0F9D1F0ADD219600581F4FC8302B
:101A4000D10589F78FEF80939E01DF91CF911F9190
:101A50000F91FF90EF9069CD3F924F925F926F92FE
:101A60007F928F929F92AF92BF92CF92DF92EF922E
:101A7000FF920F931F93CF93DF938C01559A81ECC4
:101A80008093800089E08093810010929000809381
:101A9000910088EE882E83E0982EA12CB12C90E244
:101AA000492E91EA592E97E0692E712C2AEAC22E0E
:101AB0002CE0D22E32E0332EF801C081D181228178
:101AC0003381209709F439C0DE01A2D1A501940128
:101AD0007DD179019E0140E050E0C301B20176D191
:101AE00021503109309399002093980020E030E094
:101AF0002E153F0518F080E190E01AC0EAE8FCE0FE
:101B0000C19BFECF38BA849190E080599F4F90934B
:101B10008900809388003196CE16DF0689F72F5F03
:101B20003F4FE6CFEFE9FFE03197F1F700C000004B
:101B30000197C1F70C5F1F4FBFCF2115310551F041
:101B40008FE99FE00197F1F700C0000021503109B3
:101B5000B9F7F0CF1092800010928100109290009F
:101B600010929100DF91CF911F910F91FF90EF9014
:101B7000DF90CF90BF90AF909F908F907F906F90AD
:101B80005F904F903F90089580919F0180FD0DC020
:101B900084B1806A84B980E58CBD81E08DBD81E02F
:101BA00090E09093A00180939F0108958EBD0DB4A5
:101BB00007FEFDCF08958EBD0DB407FEFDCF8EB597
:101BC000089587B18C7F87B988B1836088B983E035
:101BD0008093B80087E08093B10082E0809370002A
:101BE0008DE78093B300789408958AE08093A101F3
:101BF00084EA8093BC008091A101882321F0809128
:101C0000BC0087FFF8CF8091A101882329F0809143
:101C1000B900887F90E008958FEF9FEF08959AE0D4
:101C20009093A1018093BB0084E88093BC008091D5
:101C3000A101882321F08091BC0087FFF8CF80911B
:101C4000A101882329F08091B900887F90E0089550
:101C50008FEF9FEF0895E3CF8AE08093A10184E99D
:101C60008093BC0008951F920F920FB60F9211241B
:101C70008F938091B30083588093B3008091A1012A
:101C8000882329F08091A10181508093A1018F9137
:101C90000F900FBE0F901F9018958FB7F89427E6FE
:101CA00030E03093C5002093C40098E99093C100C0
:101CB00090EC9093C0008FBF40E162EF75E08AEE38
:101CC00095E001DC40E46AEA75E082EA95E0FBCB4E
:101CD000682F82EA95E00BDCE1ECF0E09081906205
:101CE000908308951F920F920FB60F9211240BB696
:101CF0000F922F933F934F935F936F937F938F93A5
:101D00009F93AF93BF93EF93FF936091C6008AEECA
:101D100095E0EDDBFF91EF91BF91AF919F918F9196
:101D20007F916F915F914F913F912F910F900BBEDB
:101D30000F900FBE0F901F9018951F920F920FB625
:101D40000F9211240BB60F922F933F934F935F93F3
:101D50006F937F938F939F93AF93BF93EF93FF9373
:101D60008091A205882331F082EA95E0B6DB80936A
:101D7000C60005C08091C1008F7D8093C100FF9196
:101D8000EF91BF91AF919F918F917F916F915F91F3
:101D90004F913F912F910F900BBE0F900FBE0F9060
:101DA0001F9018958AEE95E098CB0F931F93CF93D1
:101DB000DF93EC018E0189918BDFF8018081811125
:101DC000F9CFDF91CF911F910F910895A1E21A2EC3
:101DD000AA1BBB1BFD010DC0AA1FBB1FEE1FFF1FCF
:101DE000A217B307E407F50720F0A21BB30BE40B1F
:101DF000F50B661F771F881F991F1A9469F7609566
:101E00007095809590959B01AC01BD01CF0108951F
:101E1000A29FB001B39FC001A39F700D811D11242B
:101E2000911DB29F700D811D1124911D0895BB2736
:101E30004A3031F4992322F4BDE2909581959F4F69
:101E400001C0BB27FB015527AA27880F991FAA1F8E
:101E5000A41710F0A41B83955051B9F7A05DAA33C5
:101E600008F0A95DA193009779F7B111B193119290
:101E7000CB0100C0DC01FC01672F71917723E1F7F2
:101E8000329704C07C916D9370836291AE17BF0747
:081E9000C8F30895F894FFCF98
:101E98004A6F79737469636B2055702E0D0A004A76
:101EA8006F79737469636B20446F776E2E0D0A0027
:101EB8004A6F79737469636B204C6566742E0D0ADA
:101EC800004A6F79737469636B2052696768742E6E
:101ED8000D0A00457869742E0D0A0A009302FA006B
:101EE800EE017D000B027D004B02FA000B027D0023
:101EF8004B027D00B801FA00B8017D000B027D009D
:101F08009302FA004B027D000B027D00EE0177017F
:101F18000B027D004B02FA009302FA000B02FA0052
:0C1F2800B801FA00B8017D0000000000C4
:00000001FF
